{"abi":[{"inputs":[{"internalType":"uint256","name":"minimum","type":"uint256"}],"name":"createCampaign","outputs":[],"stateMutability":"nonpayable","type":"function"},{"inputs":[],"name":"getCampaign","outputs":[{"internalType":"address[]","name":"","type":"address[]"}],"stateMutability":"view","type":"function"}],"devdoc":{"kind":"dev","methods":{},"version":1},"evm":{"assembly":"    /* \"Campaign.sol\":63:425  contract CampaignFactory {... */\n  mstore(0x40, 0x80)\n  callvalue\n  dup1\n  iszero\n  tag_1\n  jumpi\n  0x00\n  dup1\n  revert\ntag_1:\n  pop\n  dataSize(sub_0)\n  dup1\n  dataOffset(sub_0)\n  0x00\n  codecopy\n  0x00\n  return\nstop\n\nsub_0: assembly {\n        /* \"Campaign.sol\":63:425  contract CampaignFactory {... */\n      mstore(0x40, 0x80)\n      callvalue\n      dup1\n      iszero\n      tag_1\n      jumpi\n      0x00\n      dup1\n      revert\n    tag_1:\n      pop\n      jumpi(tag_2, lt(calldatasize, 0x04))\n      shr(0xe0, calldataload(0x00))\n      dup1\n      0x236b8e3a\n      eq\n      tag_3\n      jumpi\n      dup1\n      0xa3303a75\n      eq\n      tag_4\n      jumpi\n    tag_2:\n      0x00\n      dup1\n      revert\n        /* \"Campaign.sol\":317:422  function getCampaign() public view returns (address[] memory) {... */\n    tag_3:\n      tag_5\n      tag_6\n      jump\t// in\n    tag_5:\n      mload(0x40)\n      tag_7\n      swap2\n      swap1\n      tag_8\n      jump\t// in\n    tag_7:\n      mload(0x40)\n      dup1\n      swap2\n      sub\n      swap1\n      return\n        /* \"Campaign.sol\":131:309  function createCampaign(uint256 minimum) public {... */\n    tag_4:\n      tag_9\n      0x04\n      dup1\n      calldatasize\n      sub\n      dup2\n      add\n      swap1\n      tag_10\n      swap2\n      swap1\n      tag_11\n      jump\t// in\n    tag_10:\n      tag_12\n      jump\t// in\n    tag_9:\n      stop\n        /* \"Campaign.sol\":317:422  function getCampaign() public view returns (address[] memory) {... */\n    tag_6:\n        /* \"Campaign.sol\":361:377  address[] memory */\n      0x60\n        /* \"Campaign.sol\":397:414  campaignAddresses */\n      0x00\n        /* \"Campaign.sol\":390:414  return campaignAddresses */\n      dup1\n      sload\n      dup1\n      0x20\n      mul\n      0x20\n      add\n      mload(0x40)\n      swap1\n      dup2\n      add\n      0x40\n      mstore\n      dup1\n      swap3\n      swap2\n      swap1\n      dup2\n      dup2\n      mstore\n      0x20\n      add\n      dup3\n      dup1\n      sload\n      dup1\n      iszero\n      tag_14\n      jumpi\n      0x20\n      mul\n      dup3\n      add\n      swap2\n      swap1\n      0x00\n      mstore\n      keccak256(0x00, 0x20)\n      swap1\n    tag_15:\n      dup2\n      0x00\n      swap1\n      sload\n      swap1\n      0x0100\n      exp\n      swap1\n      div\n      0xffffffffffffffffffffffffffffffffffffffff\n      and\n      0xffffffffffffffffffffffffffffffffffffffff\n      and\n      dup2\n      mstore\n      0x20\n      add\n      swap1\n      0x01\n      add\n      swap1\n      dup1\n      dup4\n      gt\n      tag_15\n      jumpi\n    tag_14:\n      pop\n      pop\n      pop\n      pop\n      pop\n      swap1\n      pop\n        /* \"Campaign.sol\":317:422  function getCampaign() public view returns (address[] memory) {... */\n      swap1\n      jump\t// out\n        /* \"Campaign.sol\":131:309  function createCampaign(uint256 minimum) public {... */\n    tag_12:\n        /* \"Campaign.sol\":190:210  Campaign newCampaign */\n      0x00\n        /* \"Campaign.sol\":226:236  msg.sender */\n      caller\n        /* \"Campaign.sol\":238:245  minimum */\n      dup3\n        /* \"Campaign.sol\":213:246  new Campaign(msg.sender, minimum) */\n      mload(0x40)\n      tag_17\n      swap1\n      tag_18\n      jump\t// in\n    tag_17:\n      tag_19\n      swap3\n      swap2\n      swap1\n      tag_20\n      jump\t// in\n    tag_19:\n      mload(0x40)\n      dup1\n      swap2\n      sub\n      swap1\n      0x00\n      create\n      dup1\n      iszero\n      dup1\n      iszero\n      tag_21\n      jumpi\n      returndatasize\n      0x00\n      dup1\n      returndatacopy\n      revert(0x00, returndatasize)\n    tag_21:\n      pop\n        /* \"Campaign.sol\":190:246  Campaign newCampaign = new Campaign(msg.sender, minimum) */\n      swap1\n      pop\n        /* \"Campaign.sol\":257:274  campaignAddresses */\n      0x00\n        /* \"Campaign.sol\":288:299  newCampaign */\n      dup2\n        /* \"Campaign.sol\":257:301  campaignAddresses.push(address(newCampaign)) */\n      swap1\n      dup1\n      0x01\n      dup2\n      sload\n      add\n      dup1\n      dup3\n      sstore\n      dup1\n      swap2\n      pop\n      pop\n      0x01\n      swap1\n      sub\n      swap1\n      0x00\n      mstore\n      keccak256(0x00, 0x20)\n      add\n      0x00\n      swap1\n      swap2\n      swap1\n      swap2\n      swap1\n      swap2\n      0x0100\n      exp\n      dup2\n      sload\n      dup2\n      0xffffffffffffffffffffffffffffffffffffffff\n      mul\n      not\n      and\n      swap1\n      dup4\n      0xffffffffffffffffffffffffffffffffffffffff\n      and\n      mul\n      or\n      swap1\n      sstore\n      pop\n        /* \"Campaign.sol\":179:309  {... */\n      pop\n        /* \"Campaign.sol\":131:309  function createCampaign(uint256 minimum) public {... */\n      pop\n      jump\t// out\n    tag_18:\n      dataSize(sub_0)\n      dup1\n      dataOffset(sub_0)\n      dup4\n      codecopy\n      add\n      swap1\n      jump\t// out\n        /* \"#utility.yul\":7:121   */\n    tag_23:\n        /* \"#utility.yul\":74:80   */\n      0x00\n        /* \"#utility.yul\":108:113   */\n      dup2\n        /* \"#utility.yul\":102:114   */\n      mload\n        /* \"#utility.yul\":92:114   */\n      swap1\n      pop\n        /* \"#utility.yul\":7:121   */\n      swap2\n      swap1\n      pop\n      jump\t// out\n        /* \"#utility.yul\":127:311   */\n    tag_24:\n        /* \"#utility.yul\":226:237   */\n      0x00\n        /* \"#utility.yul\":260:266   */\n      dup3\n        /* \"#utility.yul\":255:258   */\n      dup3\n        /* \"#utility.yul\":248:267   */\n      mstore\n        /* \"#utility.yul\":300:304   */\n      0x20\n        /* \"#utility.yul\":295:298   */\n      dup3\n        /* \"#utility.yul\":291:305   */\n      add\n        /* \"#utility.yul\":276:305   */\n      swap1\n      pop\n        /* \"#utility.yul\":127:311   */\n      swap3\n      swap2\n      pop\n      pop\n      jump\t// out\n        /* \"#utility.yul\":317:449   */\n    tag_25:\n        /* \"#utility.yul\":384:388   */\n      0x00\n        /* \"#utility.yul\":407:410   */\n      dup2\n        /* \"#utility.yul\":399:410   */\n      swap1\n      pop\n        /* \"#utility.yul\":437:441   */\n      0x20\n        /* \"#utility.yul\":432:435   */\n      dup3\n        /* \"#utility.yul\":428:442   */\n      add\n        /* \"#utility.yul\":420:442   */\n      swap1\n      pop\n        /* \"#utility.yul\":317:449   */\n      swap2\n      swap1\n      pop\n      jump\t// out\n        /* \"#utility.yul\":455:581   */\n    tag_26:\n        /* \"#utility.yul\":492:499   */\n      0x00\n        /* \"#utility.yul\":532:574   */\n      0xffffffffffffffffffffffffffffffffffffffff\n        /* \"#utility.yul\":525:530   */\n      dup3\n        /* \"#utility.yul\":521:575   */\n      and\n        /* \"#utility.yul\":510:575   */\n      swap1\n      pop\n        /* \"#utility.yul\":455:581   */\n      swap2\n      swap1\n      pop\n      jump\t// out\n        /* \"#utility.yul\":587:683   */\n    tag_27:\n        /* \"#utility.yul\":624:631   */\n      0x00\n        /* \"#utility.yul\":653:677   */\n      tag_46\n        /* \"#utility.yul\":671:676   */\n      dup3\n        /* \"#utility.yul\":653:677   */\n      tag_26\n      jump\t// in\n    tag_46:\n        /* \"#utility.yul\":642:677   */\n      swap1\n      pop\n        /* \"#utility.yul\":587:683   */\n      swap2\n      swap1\n      pop\n      jump\t// out\n        /* \"#utility.yul\":689:797   */\n    tag_28:\n        /* \"#utility.yul\":766:790   */\n      tag_48\n        /* \"#utility.yul\":784:789   */\n      dup2\n        /* \"#utility.yul\":766:790   */\n      tag_27\n      jump\t// in\n    tag_48:\n        /* \"#utility.yul\":761:764   */\n      dup3\n        /* \"#utility.yul\":754:791   */\n      mstore\n        /* \"#utility.yul\":689:797   */\n      pop\n      pop\n      jump\t// out\n        /* \"#utility.yul\":803:982   */\n    tag_29:\n        /* \"#utility.yul\":872:882   */\n      0x00\n        /* \"#utility.yul\":893:939   */\n      tag_50\n        /* \"#utility.yul\":935:938   */\n      dup4\n        /* \"#utility.yul\":927:933   */\n      dup4\n        /* \"#utility.yul\":893:939   */\n      tag_28\n      jump\t// in\n    tag_50:\n        /* \"#utility.yul\":971:975   */\n      0x20\n        /* \"#utility.yul\":966:969   */\n      dup4\n        /* \"#utility.yul\":962:976   */\n      add\n        /* \"#utility.yul\":948:976   */\n      swap1\n      pop\n        /* \"#utility.yul\":803:982   */\n      swap3\n      swap2\n      pop\n      pop\n      jump\t// out\n        /* \"#utility.yul\":988:1101   */\n    tag_30:\n        /* \"#utility.yul\":1058:1062   */\n      0x00\n        /* \"#utility.yul\":1090:1094   */\n      0x20\n        /* \"#utility.yul\":1085:1088   */\n      dup3\n        /* \"#utility.yul\":1081:1095   */\n      add\n        /* \"#utility.yul\":1073:1095   */\n      swap1\n      pop\n        /* \"#utility.yul\":988:1101   */\n      swap2\n      swap1\n      pop\n      jump\t// out\n        /* \"#utility.yul\":1137:1869   */\n    tag_31:\n        /* \"#utility.yul\":1256:1259   */\n      0x00\n        /* \"#utility.yul\":1285:1339   */\n      tag_53\n        /* \"#utility.yul\":1333:1338   */\n      dup3\n        /* \"#utility.yul\":1285:1339   */\n      tag_23\n      jump\t// in\n    tag_53:\n        /* \"#utility.yul\":1355:1441   */\n      tag_54\n        /* \"#utility.yul\":1434:1440   */\n      dup2\n        /* \"#utility.yul\":1429:1432   */\n      dup6\n        /* \"#utility.yul\":1355:1441   */\n      tag_24\n      jump\t// in\n    tag_54:\n        /* \"#utility.yul\":1348:1441   */\n      swap4\n      pop\n        /* \"#utility.yul\":1465:1521   */\n      tag_55\n        /* \"#utility.yul\":1515:1520   */\n      dup4\n        /* \"#utility.yul\":1465:1521   */\n      tag_25\n      jump\t// in\n    tag_55:\n        /* \"#utility.yul\":1544:1551   */\n      dup1\n        /* \"#utility.yul\":1575:1576   */\n      0x00\n        /* \"#utility.yul\":1560:1844   */\n    tag_56:\n        /* \"#utility.yul\":1585:1591   */\n      dup4\n        /* \"#utility.yul\":1582:1583   */\n      dup2\n        /* \"#utility.yul\":1579:1592   */\n      lt\n        /* \"#utility.yul\":1560:1844   */\n      iszero\n      tag_58\n      jumpi\n        /* \"#utility.yul\":1661:1667   */\n      dup2\n        /* \"#utility.yul\":1655:1668   */\n      mload\n        /* \"#utility.yul\":1688:1751   */\n      tag_59\n        /* \"#utility.yul\":1747:1750   */\n      dup9\n        /* \"#utility.yul\":1732:1745   */\n      dup3\n        /* \"#utility.yul\":1688:1751   */\n      tag_29\n      jump\t// in\n    tag_59:\n        /* \"#utility.yul\":1681:1751   */\n      swap8\n      pop\n        /* \"#utility.yul\":1774:1834   */\n      tag_60\n        /* \"#utility.yul\":1827:1833   */\n      dup4\n        /* \"#utility.yul\":1774:1834   */\n      tag_30\n      jump\t// in\n    tag_60:\n        /* \"#utility.yul\":1764:1834   */\n      swap3\n      pop\n        /* \"#utility.yul\":1620:1844   */\n      pop\n        /* \"#utility.yul\":1607:1608   */\n      0x01\n        /* \"#utility.yul\":1604:1605   */\n      dup2\n        /* \"#utility.yul\":1600:1609   */\n      add\n        /* \"#utility.yul\":1595:1609   */\n      swap1\n      pop\n        /* \"#utility.yul\":1560:1844   */\n      jump(tag_56)\n    tag_58:\n        /* \"#utility.yul\":1564:1578   */\n      pop\n        /* \"#utility.yul\":1860:1863   */\n      dup6\n        /* \"#utility.yul\":1853:1863   */\n      swap4\n      pop\n        /* \"#utility.yul\":1261:1869   */\n      pop\n      pop\n      pop\n        /* \"#utility.yul\":1137:1869   */\n      swap3\n      swap2\n      pop\n      pop\n      jump\t// out\n        /* \"#utility.yul\":1875:2248   */\n    tag_8:\n        /* \"#utility.yul\":2018:2022   */\n      0x00\n        /* \"#utility.yul\":2056:2058   */\n      0x20\n        /* \"#utility.yul\":2045:2054   */\n      dup3\n        /* \"#utility.yul\":2041:2059   */\n      add\n        /* \"#utility.yul\":2033:2059   */\n      swap1\n      pop\n        /* \"#utility.yul\":2105:2114   */\n      dup2\n        /* \"#utility.yul\":2099:2103   */\n      dup2\n        /* \"#utility.yul\":2095:2115   */\n      sub\n        /* \"#utility.yul\":2091:2092   */\n      0x00\n        /* \"#utility.yul\":2080:2089   */\n      dup4\n        /* \"#utility.yul\":2076:2093   */\n      add\n        /* \"#utility.yul\":2069:2116   */\n      mstore\n        /* \"#utility.yul\":2133:2241   */\n      tag_62\n        /* \"#utility.yul\":2236:2240   */\n      dup2\n        /* \"#utility.yul\":2227:2233   */\n      dup5\n        /* \"#utility.yul\":2133:2241   */\n      tag_31\n      jump\t// in\n    tag_62:\n        /* \"#utility.yul\":2125:2241   */\n      swap1\n      pop\n        /* \"#utility.yul\":1875:2248   */\n      swap3\n      swap2\n      pop\n      pop\n      jump\t// out\n        /* \"#utility.yul\":2335:2452   */\n    tag_33:\n        /* \"#utility.yul\":2444:2445   */\n      0x00\n        /* \"#utility.yul\":2441:2442   */\n      dup1\n        /* \"#utility.yul\":2434:2446   */\n      revert\n        /* \"#utility.yul\":2581:2658   */\n    tag_35:\n        /* \"#utility.yul\":2618:2625   */\n      0x00\n        /* \"#utility.yul\":2647:2652   */\n      dup2\n        /* \"#utility.yul\":2636:2652   */\n      swap1\n      pop\n        /* \"#utility.yul\":2581:2658   */\n      swap2\n      swap1\n      pop\n      jump\t// out\n        /* \"#utility.yul\":2664:2786   */\n    tag_36:\n        /* \"#utility.yul\":2737:2761   */\n      tag_68\n        /* \"#utility.yul\":2755:2760   */\n      dup2\n        /* \"#utility.yul\":2737:2761   */\n      tag_35\n      jump\t// in\n    tag_68:\n        /* \"#utility.yul\":2730:2735   */\n      dup2\n        /* \"#utility.yul\":2727:2762   */\n      eq\n        /* \"#utility.yul\":2717:2780   */\n      tag_69\n      jumpi\n        /* \"#utility.yul\":2776:2777   */\n      0x00\n        /* \"#utility.yul\":2773:2774   */\n      dup1\n        /* \"#utility.yul\":2766:2778   */\n      revert\n        /* \"#utility.yul\":2717:2780   */\n    tag_69:\n        /* \"#utility.yul\":2664:2786   */\n      pop\n      jump\t// out\n        /* \"#utility.yul\":2792:2931   */\n    tag_37:\n        /* \"#utility.yul\":2838:2843   */\n      0x00\n        /* \"#utility.yul\":2876:2882   */\n      dup2\n        /* \"#utility.yul\":2863:2883   */\n      calldataload\n        /* \"#utility.yul\":2854:2883   */\n      swap1\n      pop\n        /* \"#utility.yul\":2892:2925   */\n      tag_71\n        /* \"#utility.yul\":2919:2924   */\n      dup2\n        /* \"#utility.yul\":2892:2925   */\n      tag_36\n      jump\t// in\n    tag_71:\n        /* \"#utility.yul\":2792:2931   */\n      swap3\n      swap2\n      pop\n      pop\n      jump\t// out\n        /* \"#utility.yul\":2937:3266   */\n    tag_11:\n        /* \"#utility.yul\":2996:3002   */\n      0x00\n        /* \"#utility.yul\":3045:3047   */\n      0x20\n        /* \"#utility.yul\":3033:3042   */\n      dup3\n        /* \"#utility.yul\":3024:3031   */\n      dup5\n        /* \"#utility.yul\":3020:3043   */\n      sub\n        /* \"#utility.yul\":3016:3048   */\n      slt\n        /* \"#utility.yul\":3013:3132   */\n      iszero\n      tag_73\n      jumpi\n        /* \"#utility.yul\":3051:3130   */\n      tag_74\n      tag_33\n      jump\t// in\n    tag_74:\n        /* \"#utility.yul\":3013:3132   */\n    tag_73:\n        /* \"#utility.yul\":3171:3172   */\n      0x00\n        /* \"#utility.yul\":3196:3249   */\n      tag_75\n        /* \"#utility.yul\":3241:3248   */\n      dup5\n        /* \"#utility.yul\":3232:3238   */\n      dup3\n        /* \"#utility.yul\":3221:3230   */\n      dup6\n        /* \"#utility.yul\":3217:3239   */\n      add\n        /* \"#utility.yul\":3196:3249   */\n      tag_37\n      jump\t// in\n    tag_75:\n        /* \"#utility.yul\":3186:3249   */\n      swap2\n      pop\n        /* \"#utility.yul\":3142:3259   */\n      pop\n        /* \"#utility.yul\":2937:3266   */\n      swap3\n      swap2\n      pop\n      pop\n      jump\t// out\n        /* \"#utility.yul\":3272:3390   */\n    tag_38:\n        /* \"#utility.yul\":3359:3383   */\n      tag_77\n        /* \"#utility.yul\":3377:3382   */\n      dup2\n        /* \"#utility.yul\":3359:3383   */\n      tag_27\n      jump\t// in\n    tag_77:\n        /* \"#utility.yul\":3354:3357   */\n      dup3\n        /* \"#utility.yul\":3347:3384   */\n      mstore\n        /* \"#utility.yul\":3272:3390   */\n      pop\n      pop\n      jump\t// out\n        /* \"#utility.yul\":3396:3514   */\n    tag_39:\n        /* \"#utility.yul\":3483:3507   */\n      tag_79\n        /* \"#utility.yul\":3501:3506   */\n      dup2\n        /* \"#utility.yul\":3483:3507   */\n      tag_35\n      jump\t// in\n    tag_79:\n        /* \"#utility.yul\":3478:3481   */\n      dup3\n        /* \"#utility.yul\":3471:3508   */\n      mstore\n        /* \"#utility.yul\":3396:3514   */\n      pop\n      pop\n      jump\t// out\n        /* \"#utility.yul\":3520:3852   */\n    tag_20:\n        /* \"#utility.yul\":3641:3645   */\n      0x00\n        /* \"#utility.yul\":3679:3681   */\n      0x40\n        /* \"#utility.yul\":3668:3677   */\n      dup3\n        /* \"#utility.yul\":3664:3682   */\n      add\n        /* \"#utility.yul\":3656:3682   */\n      swap1\n      pop\n        /* \"#utility.yul\":3692:3763   */\n      tag_81\n        /* \"#utility.yul\":3760:3761   */\n      0x00\n        /* \"#utility.yul\":3749:3758   */\n      dup4\n        /* \"#utility.yul\":3745:3762   */\n      add\n        /* \"#utility.yul\":3736:3742   */\n      dup6\n        /* \"#utility.yul\":3692:3763   */\n      tag_38\n      jump\t// in\n    tag_81:\n        /* \"#utility.yul\":3773:3845   */\n      tag_82\n        /* \"#utility.yul\":3841:3843   */\n      0x20\n        /* \"#utility.yul\":3830:3839   */\n      dup4\n        /* \"#utility.yul\":3826:3844   */\n      add\n        /* \"#utility.yul\":3817:3823   */\n      dup5\n        /* \"#utility.yul\":3773:3845   */\n      tag_39\n      jump\t// in\n    tag_82:\n        /* \"#utility.yul\":3520:3852   */\n      swap4\n      swap3\n      pop\n      pop\n      pop\n      jump\t// out\n    stop\n\n    sub_0: assembly {\n            /* \"Campaign.sol\":429:3073  contract Campaign {... */\n          mstore(0x40, 0x80)\n            /* \"Campaign.sol\":1010:1176  constructor(address creator, uint256 minAmount) {... */\n          callvalue\n          dup1\n          iszero\n          tag_1\n          jumpi\n          0x00\n          dup1\n          revert\n        tag_1:\n          pop\n          mload(0x40)\n          sub(codesize, bytecodeSize)\n          dup1\n          bytecodeSize\n          dup4\n          codecopy\n          dup2\n          dup2\n          add\n          0x40\n          mstore\n          dup2\n          add\n          swap1\n          tag_2\n          swap2\n          swap1\n          tag_3\n          jump\t// in\n        tag_2:\n            /* \"Campaign.sol\":1079:1086  creator */\n          dup2\n            /* \"Campaign.sol\":1069:1076  manager */\n          0x00\n          dup1\n            /* \"Campaign.sol\":1069:1086  manager = creator */\n          0x0100\n          exp\n          dup2\n          sload\n          dup2\n          0xffffffffffffffffffffffffffffffffffffffff\n          mul\n          not\n          and\n          swap1\n          dup4\n          0xffffffffffffffffffffffffffffffffffffffff\n          and\n          mul\n          or\n          swap1\n          sstore\n          pop\n            /* \"Campaign.sol\":1115:1124  minAmount */\n          dup1\n            /* \"Campaign.sol\":1097:1112  minContribution */\n          0x02\n            /* \"Campaign.sol\":1097:1124  minContribution = minAmount */\n          dup2\n          swap1\n          sstore\n          pop\n            /* \"Campaign.sol\":1145:1146  0 */\n          0x00\n            /* \"Campaign.sol\":1135:1142  reqSize */\n          0x04\n            /* \"Campaign.sol\":1135:1146  reqSize = 0 */\n          dup2\n          swap1\n          sstore\n          pop\n            /* \"Campaign.sol\":1167:1168  0 */\n          0x00\n            /* \"Campaign.sol\":1157:1164  aprSize */\n          0x05\n            /* \"Campaign.sol\":1157:1168  aprSize = 0 */\n          dup2\n          swap1\n          sstore\n          pop\n            /* \"Campaign.sol\":1010:1176  constructor(address creator, uint256 minAmount) {... */\n          pop\n          pop\n            /* \"Campaign.sol\":429:3073  contract Campaign {... */\n          jump(tag_6)\n            /* \"#utility.yul\":88:205   */\n        tag_8:\n            /* \"#utility.yul\":197:198   */\n          0x00\n            /* \"#utility.yul\":194:195   */\n          dup1\n            /* \"#utility.yul\":187:199   */\n          revert\n            /* \"#utility.yul\":334:460   */\n        tag_10:\n            /* \"#utility.yul\":371:378   */\n          0x00\n            /* \"#utility.yul\":411:453   */\n          0xffffffffffffffffffffffffffffffffffffffff\n            /* \"#utility.yul\":404:409   */\n          dup3\n            /* \"#utility.yul\":400:454   */\n          and\n            /* \"#utility.yul\":389:454   */\n          swap1\n          pop\n            /* \"#utility.yul\":334:460   */\n          swap2\n          swap1\n          pop\n          jump\t// out\n            /* \"#utility.yul\":466:562   */\n        tag_11:\n            /* \"#utility.yul\":503:510   */\n          0x00\n            /* \"#utility.yul\":532:556   */\n          tag_23\n            /* \"#utility.yul\":550:555   */\n          dup3\n            /* \"#utility.yul\":532:556   */\n          tag_10\n          jump\t// in\n        tag_23:\n            /* \"#utility.yul\":521:556   */\n          swap1\n          pop\n            /* \"#utility.yul\":466:562   */\n          swap2\n          swap1\n          pop\n          jump\t// out\n            /* \"#utility.yul\":568:690   */\n        tag_12:\n            /* \"#utility.yul\":641:665   */\n          tag_25\n            /* \"#utility.yul\":659:664   */\n          dup2\n            /* \"#utility.yul\":641:665   */\n          tag_11\n          jump\t// in\n        tag_25:\n            /* \"#utility.yul\":634:639   */\n          dup2\n            /* \"#utility.yul\":631:666   */\n          eq\n            /* \"#utility.yul\":621:684   */\n          tag_26\n          jumpi\n            /* \"#utility.yul\":680:681   */\n          0x00\n            /* \"#utility.yul\":677:678   */\n          dup1\n            /* \"#utility.yul\":670:682   */\n          revert\n            /* \"#utility.yul\":621:684   */\n        tag_26:\n            /* \"#utility.yul\":568:690   */\n          pop\n          jump\t// out\n            /* \"#utility.yul\":696:839   */\n        tag_13:\n            /* \"#utility.yul\":753:758   */\n          0x00\n            /* \"#utility.yul\":784:790   */\n          dup2\n            /* \"#utility.yul\":778:791   */\n          mload\n            /* \"#utility.yul\":769:791   */\n          swap1\n          pop\n            /* \"#utility.yul\":800:833   */\n          tag_28\n            /* \"#utility.yul\":827:832   */\n          dup2\n            /* \"#utility.yul\":800:833   */\n          tag_12\n          jump\t// in\n        tag_28:\n            /* \"#utility.yul\":696:839   */\n          swap3\n          swap2\n          pop\n          pop\n          jump\t// out\n            /* \"#utility.yul\":845:922   */\n        tag_14:\n            /* \"#utility.yul\":882:889   */\n          0x00\n            /* \"#utility.yul\":911:916   */\n          dup2\n            /* \"#utility.yul\":900:916   */\n          swap1\n          pop\n            /* \"#utility.yul\":845:922   */\n          swap2\n          swap1\n          pop\n          jump\t// out\n            /* \"#utility.yul\":928:1050   */\n        tag_15:\n            /* \"#utility.yul\":1001:1025   */\n          tag_31\n            /* \"#utility.yul\":1019:1024   */\n          dup2\n            /* \"#utility.yul\":1001:1025   */\n          tag_14\n          jump\t// in\n        tag_31:\n            /* \"#utility.yul\":994:999   */\n          dup2\n            /* \"#utility.yul\":991:1026   */\n          eq\n            /* \"#utility.yul\":981:1044   */\n          tag_32\n          jumpi\n            /* \"#utility.yul\":1040:1041   */\n          0x00\n            /* \"#utility.yul\":1037:1038   */\n          dup1\n            /* \"#utility.yul\":1030:1042   */\n          revert\n            /* \"#utility.yul\":981:1044   */\n        tag_32:\n            /* \"#utility.yul\":928:1050   */\n          pop\n          jump\t// out\n            /* \"#utility.yul\":1056:1199   */\n        tag_16:\n            /* \"#utility.yul\":1113:1118   */\n          0x00\n            /* \"#utility.yul\":1144:1150   */\n          dup2\n            /* \"#utility.yul\":1138:1151   */\n          mload\n            /* \"#utility.yul\":1129:1151   */\n          swap1\n          pop\n            /* \"#utility.yul\":1160:1193   */\n          tag_34\n            /* \"#utility.yul\":1187:1192   */\n          dup2\n            /* \"#utility.yul\":1160:1193   */\n          tag_15\n          jump\t// in\n        tag_34:\n            /* \"#utility.yul\":1056:1199   */\n          swap3\n          swap2\n          pop\n          pop\n          jump\t// out\n            /* \"#utility.yul\":1205:1712   */\n        tag_3:\n            /* \"#utility.yul\":1284:1290   */\n          0x00\n            /* \"#utility.yul\":1292:1298   */\n          dup1\n            /* \"#utility.yul\":1341:1343   */\n          0x40\n            /* \"#utility.yul\":1329:1338   */\n          dup4\n            /* \"#utility.yul\":1320:1327   */\n          dup6\n            /* \"#utility.yul\":1316:1339   */\n          sub\n            /* \"#utility.yul\":1312:1344   */\n          slt\n            /* \"#utility.yul\":1309:1428   */\n          iszero\n          tag_36\n          jumpi\n            /* \"#utility.yul\":1347:1426   */\n          tag_37\n          tag_8\n          jump\t// in\n        tag_37:\n            /* \"#utility.yul\":1309:1428   */\n        tag_36:\n            /* \"#utility.yul\":1467:1468   */\n          0x00\n            /* \"#utility.yul\":1492:1556   */\n          tag_38\n            /* \"#utility.yul\":1548:1555   */\n          dup6\n            /* \"#utility.yul\":1539:1545   */\n          dup3\n            /* \"#utility.yul\":1528:1537   */\n          dup7\n            /* \"#utility.yul\":1524:1546   */\n          add\n            /* \"#utility.yul\":1492:1556   */\n          tag_13\n          jump\t// in\n        tag_38:\n            /* \"#utility.yul\":1482:1556   */\n          swap3\n          pop\n            /* \"#utility.yul\":1438:1566   */\n          pop\n            /* \"#utility.yul\":1605:1607   */\n          0x20\n            /* \"#utility.yul\":1631:1695   */\n          tag_39\n            /* \"#utility.yul\":1687:1694   */\n          dup6\n            /* \"#utility.yul\":1678:1684   */\n          dup3\n            /* \"#utility.yul\":1667:1676   */\n          dup7\n            /* \"#utility.yul\":1663:1685   */\n          add\n            /* \"#utility.yul\":1631:1695   */\n          tag_16\n          jump\t// in\n        tag_39:\n            /* \"#utility.yul\":1621:1695   */\n          swap2\n          pop\n            /* \"#utility.yul\":1576:1705   */\n          pop\n            /* \"#utility.yul\":1205:1712   */\n          swap3\n          pop\n          swap3\n          swap1\n          pop\n          jump\t// out\n            /* \"Campaign.sol\":429:3073  contract Campaign {... */\n        tag_6:\n          dataSize(sub_0)\n          dup1\n          dataOffset(sub_0)\n          0x00\n          codecopy\n          0x00\n          return\n        stop\n\n        sub_0: assembly {\n                /* \"Campaign.sol\":429:3073  contract Campaign {... */\n              mstore(0x40, 0x80)\n              jumpi(tag_1, lt(calldatasize, 0x04))\n              shr(0xe0, calldataload(0x00))\n              dup1\n              0x481c6a75\n              gt\n              tag_11\n              jumpi\n              dup1\n              0x481c6a75\n              eq\n              tag_6\n              jumpi\n              dup1\n              0x81d12c58\n              eq\n              tag_7\n              jumpi\n              dup1\n              0xaaffadf3\n              eq\n              tag_8\n              jumpi\n              dup1\n              0xd7bb99ba\n              eq\n              tag_9\n              jumpi\n              dup1\n              0xd7d1bbdb\n              eq\n              tag_10\n              jumpi\n              jump(tag_1)\n            tag_11:\n              dup1\n              0x03441006\n              eq\n              tag_2\n              jumpi\n              dup1\n              0x0a144391\n              eq\n              tag_3\n              jumpi\n              dup1\n              0x1b16bb5c\n              eq\n              tag_4\n              jumpi\n              dup1\n              0x4051ddac\n              eq\n              tag_5\n              jumpi\n            tag_1:\n              0x00\n              dup1\n              revert\n                /* \"Campaign.sol\":2366:2697  function finalizeRequest(uint256 reqIndex) public payable onlyManager {... */\n            tag_2:\n              tag_12\n              0x04\n              dup1\n              calldatasize\n              sub\n              dup2\n              add\n              swap1\n              tag_13\n              swap2\n              swap1\n              tag_14\n              jump\t// in\n            tag_13:\n              tag_15\n              jump\t// in\n            tag_12:\n              stop\n                /* \"Campaign.sol\":699:740  mapping(address => bool) public approvers */\n            tag_3:\n              callvalue\n              dup1\n              iszero\n              tag_16\n              jumpi\n              0x00\n              dup1\n              revert\n            tag_16:\n              pop\n              tag_17\n              0x04\n              dup1\n              calldatasize\n              sub\n              dup2\n              add\n              swap1\n              tag_18\n              swap2\n              swap1\n              tag_19\n              jump\t// in\n            tag_18:\n              tag_20\n              jump\t// in\n            tag_17:\n              mload(0x40)\n              tag_21\n              swap2\n              swap1\n              tag_22\n              jump\t// in\n            tag_21:\n              mload(0x40)\n              dup1\n              swap2\n              sub\n              swap1\n              return\n                /* \"Campaign.sol\":1562:1993  function createRequest(... */\n            tag_4:\n              callvalue\n              dup1\n              iszero\n              tag_23\n              jumpi\n              0x00\n              dup1\n              revert\n            tag_23:\n              pop\n              tag_24\n              0x04\n              dup1\n              calldatasize\n              sub\n              dup2\n              add\n              swap1\n              tag_25\n              swap2\n              swap1\n              tag_26\n              jump\t// in\n            tag_25:\n              tag_27\n              jump\t// in\n            tag_24:\n              stop\n                /* \"Campaign.sol\":2705:3070  function getSummary()... */\n            tag_5:\n              callvalue\n              dup1\n              iszero\n              tag_28\n              jumpi\n              0x00\n              dup1\n              revert\n            tag_28:\n              pop\n              tag_29\n              tag_30\n              jump\t// in\n            tag_29:\n              mload(0x40)\n              tag_31\n              swap6\n              swap5\n              swap4\n              swap3\n              swap2\n              swap1\n              tag_32\n              jump\t// in\n            tag_31:\n              mload(0x40)\n              dup1\n              swap2\n              sub\n              swap1\n              return\n                /* \"Campaign.sol\":670:692  address public manager */\n            tag_6:\n              callvalue\n              dup1\n              iszero\n              tag_33\n              jumpi\n              0x00\n              dup1\n              revert\n            tag_33:\n              pop\n              tag_34\n              tag_35\n              jump\t// in\n            tag_34:\n              mload(0x40)\n              tag_36\n              swap2\n              swap1\n              tag_37\n              jump\t// in\n            tag_36:\n              mload(0x40)\n              dup1\n              swap2\n              sub\n              swap1\n              return\n                /* \"Campaign.sol\":784:827  mapping(uint256 => Request) public requests */\n            tag_7:\n              callvalue\n              dup1\n              iszero\n              tag_38\n              jumpi\n              0x00\n              dup1\n              revert\n            tag_38:\n              pop\n              tag_39\n              0x04\n              dup1\n              calldatasize\n              sub\n              dup2\n              add\n              swap1\n              tag_40\n              swap2\n              swap1\n              tag_14\n              jump\t// in\n            tag_40:\n              tag_41\n              jump\t// in\n            tag_39:\n              mload(0x40)\n              tag_42\n              swap6\n              swap5\n              swap4\n              swap3\n              swap2\n              swap1\n              tag_43\n              jump\t// in\n            tag_42:\n              mload(0x40)\n              dup1\n              swap2\n              sub\n              swap1\n              return\n                /* \"Campaign.sol\":747:777  uint256 public minContribution */\n            tag_8:\n              callvalue\n              dup1\n              iszero\n              tag_44\n              jumpi\n              0x00\n              dup1\n              revert\n            tag_44:\n              pop\n              tag_45\n              tag_46\n              jump\t// in\n            tag_45:\n              mload(0x40)\n              tag_47\n              swap2\n              swap1\n              tag_48\n              jump\t// in\n            tag_47:\n              mload(0x40)\n              dup1\n              swap2\n              sub\n              swap1\n              return\n                /* \"Campaign.sol\":1184:1554  function contribute() public payable {... */\n            tag_9:\n              tag_49\n              tag_50\n              jump\t// in\n            tag_49:\n              stop\n                /* \"Campaign.sol\":2001:2358  function approveRequest(uint256 reqIndex) public {... */\n            tag_10:\n              callvalue\n              dup1\n              iszero\n              tag_51\n              jumpi\n              0x00\n              dup1\n              revert\n            tag_51:\n              pop\n              tag_52\n              0x04\n              dup1\n              calldatasize\n              sub\n              dup2\n              add\n              swap1\n              tag_53\n              swap2\n              swap1\n              tag_14\n              jump\t// in\n            tag_53:\n              tag_54\n              jump\t// in\n            tag_52:\n              stop\n                /* \"Campaign.sol\":2366:2697  function finalizeRequest(uint256 reqIndex) public payable onlyManager {... */\n            tag_15:\n                /* \"Campaign.sol\":936:943  manager */\n              0x00\n              dup1\n              sload\n              swap1\n              0x0100\n              exp\n              swap1\n              div\n              0xffffffffffffffffffffffffffffffffffffffff\n              and\n                /* \"Campaign.sol\":922:943  msg.sender == manager */\n              0xffffffffffffffffffffffffffffffffffffffff\n              and\n                /* \"Campaign.sol\":922:932  msg.sender */\n              caller\n                /* \"Campaign.sol\":922:943  msg.sender == manager */\n              0xffffffffffffffffffffffffffffffffffffffff\n              and\n              eq\n                /* \"Campaign.sol\":914:982  require(msg.sender == manager, \"Only manager can use this function\") */\n              tag_56\n              jumpi\n              mload(0x40)\n              0x08c379a000000000000000000000000000000000000000000000000000000000\n              dup2\n              mstore\n              0x04\n              add\n              tag_57\n              swap1\n              tag_58\n              jump\t// in\n            tag_57:\n              mload(0x40)\n              dup1\n              swap2\n              sub\n              swap1\n              revert\n            tag_56:\n                /* \"Campaign.sol\":2447:2464  Request storage r */\n              0x00\n                /* \"Campaign.sol\":2467:2475  requests */\n              0x03\n                /* \"Campaign.sol\":2467:2485  requests[reqIndex] */\n              0x00\n                /* \"Campaign.sol\":2476:2484  reqIndex */\n              dup4\n                /* \"Campaign.sol\":2467:2485  requests[reqIndex] */\n              dup2\n              mstore\n              0x20\n              add\n              swap1\n              dup2\n              mstore\n              0x20\n              add\n              0x00\n              keccak256\n                /* \"Campaign.sol\":2447:2485  Request storage r = requests[reqIndex] */\n              swap1\n              pop\n                /* \"Campaign.sol\":2505:2506  r */\n              dup1\n                /* \"Campaign.sol\":2505:2515  r.complete */\n              0x03\n              add\n              0x00\n              swap1\n              sload\n              swap1\n              0x0100\n              exp\n              swap1\n              div\n              0xff\n              and\n                /* \"Campaign.sol\":2504:2515  !r.complete */\n              iszero\n                /* \"Campaign.sol\":2496:2545  require(!r.complete, \"request already finalized\") */\n              tag_60\n              jumpi\n              mload(0x40)\n              0x08c379a000000000000000000000000000000000000000000000000000000000\n              dup2\n              mstore\n              0x04\n              add\n              tag_61\n              swap1\n              tag_62\n              jump\t// in\n            tag_61:\n              mload(0x40)\n              dup1\n              swap2\n              sub\n              swap1\n              revert\n            tag_60:\n                /* \"Campaign.sol\":2591:2592  2 */\n              0x02\n                /* \"Campaign.sol\":2581:2588  aprSize */\n              sload(0x05)\n                /* \"Campaign.sol\":2581:2592  aprSize / 2 */\n              tag_63\n              swap2\n              swap1\n              tag_64\n              jump\t// in\n            tag_63:\n                /* \"Campaign.sol\":2564:2565  r */\n              dup2\n                /* \"Campaign.sol\":2564:2578  r.postiveVotes */\n              0x04\n              add\n              sload\n                /* \"Campaign.sol\":2564:2592  r.postiveVotes > aprSize / 2 */\n              gt\n                /* \"Campaign.sol\":2556:2621  require(r.postiveVotes > aprSize / 2, \"Not enough postive votes\") */\n              tag_65\n              jumpi\n              mload(0x40)\n              0x08c379a000000000000000000000000000000000000000000000000000000000\n              dup2\n              mstore\n              0x04\n              add\n              tag_66\n              swap1\n              tag_67\n              jump\t// in\n            tag_66:\n              mload(0x40)\n              dup1\n              swap2\n              sub\n              swap1\n              revert\n            tag_65:\n                /* \"Campaign.sol\":2645:2649  true */\n              0x01\n                /* \"Campaign.sol\":2632:2633  r */\n              dup2\n                /* \"Campaign.sol\":2632:2642  r.complete */\n              0x03\n              add\n              0x00\n                /* \"Campaign.sol\":2632:2649  r.complete = true */\n              0x0100\n              exp\n              dup2\n              sload\n              dup2\n              0xff\n              mul\n              not\n              and\n              swap1\n              dup4\n              iszero\n              iszero\n              mul\n              or\n              swap1\n              sstore\n              pop\n                /* \"Campaign.sol\":2660:2661  r */\n              dup1\n                /* \"Campaign.sol\":2660:2671  r.recipient */\n              0x01\n              add\n              0x00\n              swap1\n              sload\n              swap1\n              0x0100\n              exp\n              swap1\n              div\n              0xffffffffffffffffffffffffffffffffffffffff\n              and\n                /* \"Campaign.sol\":2660:2680  r.recipient.transfer */\n              0xffffffffffffffffffffffffffffffffffffffff\n              and\n                /* \"Campaign.sol\":2660:2689  r.recipient.transfer(r.value) */\n              0x08fc\n                /* \"Campaign.sol\":2681:2682  r */\n              dup3\n                /* \"Campaign.sol\":2681:2688  r.value */\n              0x02\n              add\n              sload\n                /* \"Campaign.sol\":2660:2689  r.recipient.transfer(r.value) */\n              swap1\n              dup2\n              iszero\n              mul\n              swap1\n              mload(0x40)\n              0x00\n              mload(0x40)\n              dup1\n              dup4\n              sub\n              dup2\n              dup6\n              dup9\n              dup9\n              call\n              swap4\n              pop\n              pop\n              pop\n              pop\n              iszero\n              dup1\n              iszero\n              tag_69\n              jumpi\n              returndatasize\n              0x00\n              dup1\n              returndatacopy\n              revert(0x00, returndatasize)\n            tag_69:\n              pop\n                /* \"Campaign.sol\":2436:2697  {... */\n              pop\n                /* \"Campaign.sol\":2366:2697  function finalizeRequest(uint256 reqIndex) public payable onlyManager {... */\n              pop\n              jump\t// out\n                /* \"Campaign.sol\":699:740  mapping(address => bool) public approvers */\n            tag_20:\n              mstore(0x20, 0x01)\n              dup1\n              0x00\n              mstore\n              keccak256(0x00, 0x40)\n              0x00\n              swap2\n              pop\n              sload\n              swap1\n              0x0100\n              exp\n              swap1\n              div\n              0xff\n              and\n              dup2\n              jump\t// out\n                /* \"Campaign.sol\":1562:1993  function createRequest(... */\n            tag_27:\n                /* \"Campaign.sol\":936:943  manager */\n              0x00\n              dup1\n              sload\n              swap1\n              0x0100\n              exp\n              swap1\n              div\n              0xffffffffffffffffffffffffffffffffffffffff\n              and\n                /* \"Campaign.sol\":922:943  msg.sender == manager */\n              0xffffffffffffffffffffffffffffffffffffffff\n              and\n                /* \"Campaign.sol\":922:932  msg.sender */\n              caller\n                /* \"Campaign.sol\":922:943  msg.sender == manager */\n              0xffffffffffffffffffffffffffffffffffffffff\n              and\n              eq\n                /* \"Campaign.sol\":914:982  require(msg.sender == manager, \"Only manager can use this function\") */\n              tag_71\n              jumpi\n              mload(0x40)\n              0x08c379a000000000000000000000000000000000000000000000000000000000\n              dup2\n              mstore\n              0x04\n              add\n              tag_72\n              swap1\n              tag_58\n              jump\t// in\n            tag_72:\n              mload(0x40)\n              dup1\n              swap2\n              sub\n              swap1\n              revert\n            tag_71:\n                /* \"Campaign.sol\":1718:1744  Request storage newRequest */\n              0x00\n                /* \"Campaign.sol\":1747:1755  requests */\n              0x03\n                /* \"Campaign.sol\":1747:1764  requests[reqSize] */\n              0x00\n                /* \"Campaign.sol\":1756:1763  reqSize */\n              sload(0x04)\n                /* \"Campaign.sol\":1747:1764  requests[reqSize] */\n              dup2\n              mstore\n              0x20\n              add\n              swap1\n              dup2\n              mstore\n              0x20\n              add\n              0x00\n              keccak256\n                /* \"Campaign.sol\":1718:1764  Request storage newRequest = requests[reqSize] */\n              swap1\n              pop\n                /* \"Campaign.sol\":1800:1811  description */\n              dup4\n                /* \"Campaign.sol\":1775:1785  newRequest */\n              dup2\n                /* \"Campaign.sol\":1775:1797  newRequest.description */\n              0x00\n              add\n                /* \"Campaign.sol\":1775:1811  newRequest.description = description */\n              swap1\n              dup1\n              mload\n              swap1\n              0x20\n              add\n              swap1\n              tag_74\n              swap3\n              swap2\n              swap1\n              tag_75\n              jump\t// in\n            tag_74:\n              pop\n                /* \"Campaign.sol\":1845:1854  recipient */\n              dup3\n                /* \"Campaign.sol\":1822:1832  newRequest */\n              dup2\n                /* \"Campaign.sol\":1822:1842  newRequest.recipient */\n              0x01\n              add\n              0x00\n                /* \"Campaign.sol\":1822:1854  newRequest.recipient = recipient */\n              0x0100\n              exp\n              dup2\n              sload\n              dup2\n              0xffffffffffffffffffffffffffffffffffffffff\n              mul\n              not\n              and\n              swap1\n              dup4\n              0xffffffffffffffffffffffffffffffffffffffff\n              and\n              mul\n              or\n              swap1\n              sstore\n              pop\n                /* \"Campaign.sol\":1884:1889  value */\n              dup2\n                /* \"Campaign.sol\":1865:1875  newRequest */\n              dup2\n                /* \"Campaign.sol\":1865:1881  newRequest.value */\n              0x02\n              add\n                /* \"Campaign.sol\":1865:1889  newRequest.value = value */\n              dup2\n              swap1\n              sstore\n              pop\n                /* \"Campaign.sol\":1922:1927  false */\n              0x00\n                /* \"Campaign.sol\":1900:1910  newRequest */\n              dup2\n                /* \"Campaign.sol\":1900:1919  newRequest.complete */\n              0x03\n              add\n              0x00\n                /* \"Campaign.sol\":1900:1927  newRequest.complete = false */\n              0x0100\n              exp\n              dup2\n              sload\n              dup2\n              0xff\n              mul\n              not\n              and\n              swap1\n              dup4\n              iszero\n              iszero\n              mul\n              or\n              swap1\n              sstore\n              pop\n                /* \"Campaign.sol\":1964:1965  0 */\n              0x00\n                /* \"Campaign.sol\":1938:1948  newRequest */\n              dup2\n                /* \"Campaign.sol\":1938:1961  newRequest.postiveVotes */\n              0x04\n              add\n                /* \"Campaign.sol\":1938:1965  newRequest.postiveVotes = 0 */\n              dup2\n              swap1\n              sstore\n              pop\n                /* \"Campaign.sol\":1976:1983  reqSize */\n              0x04\n              0x00\n                /* \"Campaign.sol\":1976:1985  reqSize++ */\n              dup2\n              sload\n              dup1\n              swap3\n              swap2\n              swap1\n              tag_76\n              swap1\n              tag_77\n              jump\t// in\n            tag_76:\n              swap2\n              swap1\n              pop\n              sstore\n              pop\n                /* \"Campaign.sol\":1707:1993  {... */\n              pop\n                /* \"Campaign.sol\":1562:1993  function createRequest(... */\n              pop\n              pop\n              pop\n              jump\t// out\n                /* \"Campaign.sol\":2705:3070  function getSummary()... */\n            tag_30:\n                /* \"Campaign.sol\":2789:2796  address */\n              0x00\n                /* \"Campaign.sol\":2811:2818  uint256 */\n              dup1\n                /* \"Campaign.sol\":2833:2840  uint256 */\n              0x00\n                /* \"Campaign.sol\":2855:2862  uint256 */\n              dup1\n                /* \"Campaign.sol\":2877:2884  uint256 */\n              0x00\n                /* \"Campaign.sol\":2934:2941  manager */\n              dup1\n              0x00\n              swap1\n              sload\n              swap1\n              0x0100\n              exp\n              swap1\n              div\n              0xffffffffffffffffffffffffffffffffffffffff\n              and\n                /* \"Campaign.sol\":2956:2971  minContribution */\n              sload(0x02)\n                /* \"Campaign.sol\":2986:2993  reqSize */\n              sload(0x04)\n                /* \"Campaign.sol\":3008:3015  aprSize */\n              sload(0x05)\n                /* \"Campaign.sol\":3030:3051  address(this).balance */\n              selfbalance\n                /* \"Campaign.sol\":2912:3062  return (... */\n              swap5\n              pop\n              swap5\n              pop\n              swap5\n              pop\n              swap5\n              pop\n              swap5\n              pop\n                /* \"Campaign.sol\":2705:3070  function getSummary()... */\n              swap1\n              swap2\n              swap3\n              swap4\n              swap5\n              jump\t// out\n                /* \"Campaign.sol\":670:692  address public manager */\n            tag_35:\n              0x00\n              dup1\n              sload\n              swap1\n              0x0100\n              exp\n              swap1\n              div\n              0xffffffffffffffffffffffffffffffffffffffff\n              and\n              dup2\n              jump\t// out\n                /* \"Campaign.sol\":784:827  mapping(uint256 => Request) public requests */\n            tag_41:\n              mstore(0x20, 0x03)\n              dup1\n              0x00\n              mstore\n              keccak256(0x00, 0x40)\n              0x00\n              swap2\n              pop\n              swap1\n              pop\n              dup1\n              0x00\n              add\n              dup1\n              sload\n              tag_79\n              swap1\n              tag_80\n              jump\t// in\n            tag_79:\n              dup1\n              0x1f\n              add\n              0x20\n              dup1\n              swap2\n              div\n              mul\n              0x20\n              add\n              mload(0x40)\n              swap1\n              dup2\n              add\n              0x40\n              mstore\n              dup1\n              swap3\n              swap2\n              swap1\n              dup2\n              dup2\n              mstore\n              0x20\n              add\n              dup3\n              dup1\n              sload\n              tag_81\n              swap1\n              tag_80\n              jump\t// in\n            tag_81:\n              dup1\n              iszero\n              tag_82\n              jumpi\n              dup1\n              0x1f\n              lt\n              tag_83\n              jumpi\n              0x0100\n              dup1\n              dup4\n              sload\n              div\n              mul\n              dup4\n              mstore\n              swap2\n              0x20\n              add\n              swap2\n              jump(tag_82)\n            tag_83:\n              dup3\n              add\n              swap2\n              swap1\n              0x00\n              mstore\n              keccak256(0x00, 0x20)\n              swap1\n            tag_84:\n              dup2\n              sload\n              dup2\n              mstore\n              swap1\n              0x01\n              add\n              swap1\n              0x20\n              add\n              dup1\n              dup4\n              gt\n              tag_84\n              jumpi\n              dup3\n              swap1\n              sub\n              0x1f\n              and\n              dup3\n              add\n              swap2\n            tag_82:\n              pop\n              pop\n              pop\n              pop\n              pop\n              swap1\n              dup1\n              0x01\n              add\n              0x00\n              swap1\n              sload\n              swap1\n              0x0100\n              exp\n              swap1\n              div\n              0xffffffffffffffffffffffffffffffffffffffff\n              and\n              swap1\n              dup1\n              0x02\n              add\n              sload\n              swap1\n              dup1\n              0x03\n              add\n              0x00\n              swap1\n              sload\n              swap1\n              0x0100\n              exp\n              swap1\n              div\n              0xff\n              and\n              swap1\n              dup1\n              0x04\n              add\n              sload\n              swap1\n              pop\n              dup6\n              jump\t// out\n                /* \"Campaign.sol\":747:777  uint256 public minContribution */\n            tag_46:\n              sload(0x02)\n              dup2\n              jump\t// out\n                /* \"Campaign.sol\":1184:1554  function contribute() public payable {... */\n            tag_50:\n                /* \"Campaign.sol\":1267:1282  minContribution */\n              sload(0x02)\n                /* \"Campaign.sol\":1254:1263  msg.value */\n              callvalue\n                /* \"Campaign.sol\":1254:1282  msg.value >= minContribution */\n              lt\n              iszero\n                /* \"Campaign.sol\":1232:1366  require(... */\n              tag_86\n              jumpi\n              mload(0x40)\n              0x08c379a000000000000000000000000000000000000000000000000000000000\n              dup2\n              mstore\n              0x04\n              add\n              tag_87\n              swap1\n              tag_88\n              jump\t// in\n            tag_87:\n              mload(0x40)\n              dup1\n              swap2\n              sub\n              swap1\n              revert\n            tag_86:\n                /* \"Campaign.sol\":1400:1409  approvers */\n              0x01\n                /* \"Campaign.sol\":1400:1421  approvers[msg.sender] */\n              0x00\n                /* \"Campaign.sol\":1410:1420  msg.sender */\n              caller\n                /* \"Campaign.sol\":1400:1421  approvers[msg.sender] */\n              0xffffffffffffffffffffffffffffffffffffffff\n              and\n              0xffffffffffffffffffffffffffffffffffffffff\n              and\n              dup2\n              mstore\n              0x20\n              add\n              swap1\n              dup2\n              mstore\n              0x20\n              add\n              0x00\n              keccak256\n              0x00\n              swap1\n              sload\n              swap1\n              0x0100\n              exp\n              swap1\n              div\n              0xff\n              and\n                /* \"Campaign.sol\":1399:1421  !approvers[msg.sender] */\n              iszero\n                /* \"Campaign.sol\":1377:1487  require(... */\n              tag_89\n              jumpi\n              mload(0x40)\n              0x08c379a000000000000000000000000000000000000000000000000000000000\n              dup2\n              mstore\n              0x04\n              add\n              tag_90\n              swap1\n              tag_91\n              jump\t// in\n            tag_90:\n              mload(0x40)\n              dup1\n              swap2\n              sub\n              swap1\n              revert\n            tag_89:\n                /* \"Campaign.sol\":1522:1526  true */\n              0x01\n                /* \"Campaign.sol\":1498:1507  approvers */\n              dup1\n                /* \"Campaign.sol\":1498:1519  approvers[msg.sender] */\n              0x00\n                /* \"Campaign.sol\":1508:1518  msg.sender */\n              caller\n                /* \"Campaign.sol\":1498:1519  approvers[msg.sender] */\n              0xffffffffffffffffffffffffffffffffffffffff\n              and\n              0xffffffffffffffffffffffffffffffffffffffff\n              and\n              dup2\n              mstore\n              0x20\n              add\n              swap1\n              dup2\n              mstore\n              0x20\n              add\n              0x00\n              keccak256\n              0x00\n                /* \"Campaign.sol\":1498:1526  approvers[msg.sender] = true */\n              0x0100\n              exp\n              dup2\n              sload\n              dup2\n              0xff\n              mul\n              not\n              and\n              swap1\n              dup4\n              iszero\n              iszero\n              mul\n              or\n              swap1\n              sstore\n              pop\n                /* \"Campaign.sol\":1537:1544  aprSize */\n              0x05\n              0x00\n                /* \"Campaign.sol\":1537:1546  aprSize++ */\n              dup2\n              sload\n              dup1\n              swap3\n              swap2\n              swap1\n              tag_92\n              swap1\n              tag_77\n              jump\t// in\n            tag_92:\n              swap2\n              swap1\n              pop\n              sstore\n              pop\n                /* \"Campaign.sol\":1184:1554  function contribute() public payable {... */\n              jump\t// out\n                /* \"Campaign.sol\":2001:2358  function approveRequest(uint256 reqIndex) public {... */\n            tag_54:\n                /* \"Campaign.sol\":2061:2078  Request storage r */\n              0x00\n                /* \"Campaign.sol\":2081:2089  requests */\n              0x03\n                /* \"Campaign.sol\":2081:2099  requests[reqIndex] */\n              0x00\n                /* \"Campaign.sol\":2090:2098  reqIndex */\n              dup4\n                /* \"Campaign.sol\":2081:2099  requests[reqIndex] */\n              dup2\n              mstore\n              0x20\n              add\n              swap1\n              dup2\n              mstore\n              0x20\n              add\n              0x00\n              keccak256\n                /* \"Campaign.sol\":2061:2099  Request storage r = requests[reqIndex] */\n              swap1\n              pop\n                /* \"Campaign.sol\":2132:2141  approvers */\n              0x01\n                /* \"Campaign.sol\":2132:2153  approvers[msg.sender] */\n              0x00\n                /* \"Campaign.sol\":2142:2152  msg.sender */\n              caller\n                /* \"Campaign.sol\":2132:2153  approvers[msg.sender] */\n              0xffffffffffffffffffffffffffffffffffffffff\n              and\n              0xffffffffffffffffffffffffffffffffffffffff\n              and\n              dup2\n              mstore\n              0x20\n              add\n              swap1\n              dup2\n              mstore\n              0x20\n              add\n              0x00\n              keccak256\n              0x00\n              swap1\n              sload\n              swap1\n              0x0100\n              exp\n              swap1\n              div\n              0xff\n              and\n                /* \"Campaign.sol\":2110:2220  require(... */\n              tag_94\n              jumpi\n              mload(0x40)\n              0x08c379a000000000000000000000000000000000000000000000000000000000\n              dup2\n              mstore\n              0x04\n              add\n              tag_95\n              swap1\n              tag_96\n              jump\t// in\n            tag_95:\n              mload(0x40)\n              dup1\n              swap2\n              sub\n              swap1\n              revert\n            tag_94:\n                /* \"Campaign.sol\":2240:2241  r */\n              dup1\n                /* \"Campaign.sol\":2240:2247  r.voted */\n              0x05\n              add\n                /* \"Campaign.sol\":2240:2259  r.voted[msg.sender] */\n              0x00\n                /* \"Campaign.sol\":2248:2258  msg.sender */\n              caller\n                /* \"Campaign.sol\":2240:2259  r.voted[msg.sender] */\n              0xffffffffffffffffffffffffffffffffffffffff\n              and\n              0xffffffffffffffffffffffffffffffffffffffff\n              and\n              dup2\n              mstore\n              0x20\n              add\n              swap1\n              dup2\n              mstore\n              0x20\n              add\n              0x00\n              keccak256\n              0x00\n              swap1\n              sload\n              swap1\n              0x0100\n              exp\n              swap1\n              div\n              0xff\n              and\n                /* \"Campaign.sol\":2239:2259  !r.voted[msg.sender] */\n              iszero\n                /* \"Campaign.sol\":2231:2286  require(!r.voted[msg.sender], \"You have already voted\") */\n              tag_97\n              jumpi\n              mload(0x40)\n              0x08c379a000000000000000000000000000000000000000000000000000000000\n              dup2\n              mstore\n              0x04\n              add\n              tag_98\n              swap1\n              tag_99\n              jump\t// in\n            tag_98:\n              mload(0x40)\n              dup1\n              swap2\n              sub\n              swap1\n              revert\n            tag_97:\n                /* \"Campaign.sol\":2297:2298  r */\n              dup1\n                /* \"Campaign.sol\":2297:2311  r.postiveVotes */\n              0x04\n              add\n              0x00\n                /* \"Campaign.sol\":2297:2313  r.postiveVotes++ */\n              dup2\n              sload\n              dup1\n              swap3\n              swap2\n              swap1\n              tag_100\n              swap1\n              tag_77\n              jump\t// in\n            tag_100:\n              swap2\n              swap1\n              pop\n              sstore\n              pop\n                /* \"Campaign.sol\":2346:2350  true */\n              0x01\n                /* \"Campaign.sol\":2324:2325  r */\n              dup2\n                /* \"Campaign.sol\":2324:2331  r.voted */\n              0x05\n              add\n                /* \"Campaign.sol\":2324:2343  r.voted[msg.sender] */\n              0x00\n                /* \"Campaign.sol\":2332:2342  msg.sender */\n              caller\n                /* \"Campaign.sol\":2324:2343  r.voted[msg.sender] */\n              0xffffffffffffffffffffffffffffffffffffffff\n              and\n              0xffffffffffffffffffffffffffffffffffffffff\n              and\n              dup2\n              mstore\n              0x20\n              add\n              swap1\n              dup2\n              mstore\n              0x20\n              add\n              0x00\n              keccak256\n              0x00\n                /* \"Campaign.sol\":2324:2350  r.voted[msg.sender] = true */\n              0x0100\n              exp\n              dup2\n              sload\n              dup2\n              0xff\n              mul\n              not\n              and\n              swap1\n              dup4\n              iszero\n              iszero\n              mul\n              or\n              swap1\n              sstore\n              pop\n                /* \"Campaign.sol\":2050:2358  {... */\n              pop\n                /* \"Campaign.sol\":2001:2358  function approveRequest(uint256 reqIndex) public {... */\n              pop\n              jump\t// out\n            tag_75:\n              dup3\n              dup1\n              sload\n              tag_101\n              swap1\n              tag_80\n              jump\t// in\n            tag_101:\n              swap1\n              0x00\n              mstore\n              keccak256(0x00, 0x20)\n              swap1\n              0x1f\n              add\n              0x20\n              swap1\n              div\n              dup2\n              add\n              swap3\n              dup3\n              tag_103\n              jumpi\n              0x00\n              dup6\n              sstore\n              jump(tag_102)\n            tag_103:\n              dup3\n              0x1f\n              lt\n              tag_104\n              jumpi\n              dup1\n              mload\n              not(0xff)\n              and\n              dup4\n              dup1\n              add\n              or\n              dup6\n              sstore\n              jump(tag_102)\n            tag_104:\n              dup3\n              dup1\n              add\n              0x01\n              add\n              dup6\n              sstore\n              dup3\n              iszero\n              tag_102\n              jumpi\n              swap2\n              dup3\n              add\n            tag_105:\n              dup3\n              dup2\n              gt\n              iszero\n              tag_106\n              jumpi\n              dup3\n              mload\n              dup3\n              sstore\n              swap2\n              0x20\n              add\n              swap2\n              swap1\n              0x01\n              add\n              swap1\n              jump(tag_105)\n            tag_106:\n            tag_102:\n              pop\n              swap1\n              pop\n              tag_107\n              swap2\n              swap1\n              tag_108\n              jump\t// in\n            tag_107:\n              pop\n              swap1\n              jump\t// out\n            tag_108:\n            tag_109:\n              dup1\n              dup3\n              gt\n              iszero\n              tag_110\n              jumpi\n              0x00\n              dup2\n              0x00\n              swap1\n              sstore\n              pop\n              0x01\n              add\n              jump(tag_109)\n            tag_110:\n              pop\n              swap1\n              jump\t// out\n                /* \"#utility.yul\":7:82   */\n            tag_111:\n                /* \"#utility.yul\":40:46   */\n              0x00\n                /* \"#utility.yul\":73:75   */\n              0x40\n                /* \"#utility.yul\":67:76   */\n              mload\n                /* \"#utility.yul\":57:76   */\n              swap1\n              pop\n                /* \"#utility.yul\":7:82   */\n              swap1\n              jump\t// out\n                /* \"#utility.yul\":88:205   */\n            tag_112:\n                /* \"#utility.yul\":197:198   */\n              0x00\n                /* \"#utility.yul\":194:195   */\n              dup1\n                /* \"#utility.yul\":187:199   */\n              revert\n                /* \"#utility.yul\":211:328   */\n            tag_113:\n                /* \"#utility.yul\":320:321   */\n              0x00\n                /* \"#utility.yul\":317:318   */\n              dup1\n                /* \"#utility.yul\":310:322   */\n              revert\n                /* \"#utility.yul\":334:411   */\n            tag_114:\n                /* \"#utility.yul\":371:378   */\n              0x00\n                /* \"#utility.yul\":400:405   */\n              dup2\n                /* \"#utility.yul\":389:405   */\n              swap1\n              pop\n                /* \"#utility.yul\":334:411   */\n              swap2\n              swap1\n              pop\n              jump\t// out\n                /* \"#utility.yul\":417:539   */\n            tag_115:\n                /* \"#utility.yul\":490:514   */\n              tag_166\n                /* \"#utility.yul\":508:513   */\n              dup2\n                /* \"#utility.yul\":490:514   */\n              tag_114\n              jump\t// in\n            tag_166:\n                /* \"#utility.yul\":483:488   */\n              dup2\n                /* \"#utility.yul\":480:515   */\n              eq\n                /* \"#utility.yul\":470:533   */\n              tag_167\n              jumpi\n                /* \"#utility.yul\":529:530   */\n              0x00\n                /* \"#utility.yul\":526:527   */\n              dup1\n                /* \"#utility.yul\":519:531   */\n              revert\n                /* \"#utility.yul\":470:533   */\n            tag_167:\n                /* \"#utility.yul\":417:539   */\n              pop\n              jump\t// out\n                /* \"#utility.yul\":545:684   */\n            tag_116:\n                /* \"#utility.yul\":591:596   */\n              0x00\n                /* \"#utility.yul\":629:635   */\n              dup2\n                /* \"#utility.yul\":616:636   */\n              calldataload\n                /* \"#utility.yul\":607:636   */\n              swap1\n              pop\n                /* \"#utility.yul\":645:678   */\n              tag_169\n                /* \"#utility.yul\":672:677   */\n              dup2\n                /* \"#utility.yul\":645:678   */\n              tag_115\n              jump\t// in\n            tag_169:\n                /* \"#utility.yul\":545:684   */\n              swap3\n              swap2\n              pop\n              pop\n              jump\t// out\n                /* \"#utility.yul\":690:1019   */\n            tag_14:\n                /* \"#utility.yul\":749:755   */\n              0x00\n                /* \"#utility.yul\":798:800   */\n              0x20\n                /* \"#utility.yul\":786:795   */\n              dup3\n                /* \"#utility.yul\":777:784   */\n              dup5\n                /* \"#utility.yul\":773:796   */\n              sub\n                /* \"#utility.yul\":769:801   */\n              slt\n                /* \"#utility.yul\":766:885   */\n              iszero\n              tag_171\n              jumpi\n                /* \"#utility.yul\":804:883   */\n              tag_172\n              tag_112\n              jump\t// in\n            tag_172:\n                /* \"#utility.yul\":766:885   */\n            tag_171:\n                /* \"#utility.yul\":924:925   */\n              0x00\n                /* \"#utility.yul\":949:1002   */\n              tag_173\n                /* \"#utility.yul\":994:1001   */\n              dup5\n                /* \"#utility.yul\":985:991   */\n              dup3\n                /* \"#utility.yul\":974:983   */\n              dup6\n                /* \"#utility.yul\":970:992   */\n              add\n                /* \"#utility.yul\":949:1002   */\n              tag_116\n              jump\t// in\n            tag_173:\n                /* \"#utility.yul\":939:1002   */\n              swap2\n              pop\n                /* \"#utility.yul\":895:1012   */\n              pop\n                /* \"#utility.yul\":690:1019   */\n              swap3\n              swap2\n              pop\n              pop\n              jump\t// out\n                /* \"#utility.yul\":1025:1151   */\n            tag_117:\n                /* \"#utility.yul\":1062:1069   */\n              0x00\n                /* \"#utility.yul\":1102:1144   */\n              0xffffffffffffffffffffffffffffffffffffffff\n                /* \"#utility.yul\":1095:1100   */\n              dup3\n                /* \"#utility.yul\":1091:1145   */\n              and\n                /* \"#utility.yul\":1080:1145   */\n              swap1\n              pop\n                /* \"#utility.yul\":1025:1151   */\n              swap2\n              swap1\n              pop\n              jump\t// out\n                /* \"#utility.yul\":1157:1253   */\n            tag_118:\n                /* \"#utility.yul\":1194:1201   */\n              0x00\n                /* \"#utility.yul\":1223:1247   */\n              tag_176\n                /* \"#utility.yul\":1241:1246   */\n              dup3\n                /* \"#utility.yul\":1223:1247   */\n              tag_117\n              jump\t// in\n            tag_176:\n                /* \"#utility.yul\":1212:1247   */\n              swap1\n              pop\n                /* \"#utility.yul\":1157:1253   */\n              swap2\n              swap1\n              pop\n              jump\t// out\n                /* \"#utility.yul\":1259:1381   */\n            tag_119:\n                /* \"#utility.yul\":1332:1356   */\n              tag_178\n                /* \"#utility.yul\":1350:1355   */\n              dup2\n                /* \"#utility.yul\":1332:1356   */\n              tag_118\n              jump\t// in\n            tag_178:\n                /* \"#utility.yul\":1325:1330   */\n              dup2\n                /* \"#utility.yul\":1322:1357   */\n              eq\n                /* \"#utility.yul\":1312:1375   */\n              tag_179\n              jumpi\n                /* \"#utility.yul\":1371:1372   */\n              0x00\n                /* \"#utility.yul\":1368:1369   */\n              dup1\n                /* \"#utility.yul\":1361:1373   */\n              revert\n                /* \"#utility.yul\":1312:1375   */\n            tag_179:\n                /* \"#utility.yul\":1259:1381   */\n              pop\n              jump\t// out\n                /* \"#utility.yul\":1387:1526   */\n            tag_120:\n                /* \"#utility.yul\":1433:1438   */\n              0x00\n                /* \"#utility.yul\":1471:1477   */\n              dup2\n                /* \"#utility.yul\":1458:1478   */\n              calldataload\n                /* \"#utility.yul\":1449:1478   */\n              swap1\n              pop\n                /* \"#utility.yul\":1487:1520   */\n              tag_181\n                /* \"#utility.yul\":1514:1519   */\n              dup2\n                /* \"#utility.yul\":1487:1520   */\n              tag_119\n              jump\t// in\n            tag_181:\n                /* \"#utility.yul\":1387:1526   */\n              swap3\n              swap2\n              pop\n              pop\n              jump\t// out\n                /* \"#utility.yul\":1532:1861   */\n            tag_19:\n                /* \"#utility.yul\":1591:1597   */\n              0x00\n                /* \"#utility.yul\":1640:1642   */\n              0x20\n                /* \"#utility.yul\":1628:1637   */\n              dup3\n                /* \"#utility.yul\":1619:1626   */\n              dup5\n                /* \"#utility.yul\":1615:1638   */\n              sub\n                /* \"#utility.yul\":1611:1643   */\n              slt\n                /* \"#utility.yul\":1608:1727   */\n              iszero\n              tag_183\n              jumpi\n                /* \"#utility.yul\":1646:1725   */\n              tag_184\n              tag_112\n              jump\t// in\n            tag_184:\n                /* \"#utility.yul\":1608:1727   */\n            tag_183:\n                /* \"#utility.yul\":1766:1767   */\n              0x00\n                /* \"#utility.yul\":1791:1844   */\n              tag_185\n                /* \"#utility.yul\":1836:1843   */\n              dup5\n                /* \"#utility.yul\":1827:1833   */\n              dup3\n                /* \"#utility.yul\":1816:1825   */\n              dup6\n                /* \"#utility.yul\":1812:1834   */\n              add\n                /* \"#utility.yul\":1791:1844   */\n              tag_120\n              jump\t// in\n            tag_185:\n                /* \"#utility.yul\":1781:1844   */\n              swap2\n              pop\n                /* \"#utility.yul\":1737:1854   */\n              pop\n                /* \"#utility.yul\":1532:1861   */\n              swap3\n              swap2\n              pop\n              pop\n              jump\t// out\n                /* \"#utility.yul\":1867:1957   */\n            tag_121:\n                /* \"#utility.yul\":1901:1908   */\n              0x00\n                /* \"#utility.yul\":1944:1949   */\n              dup2\n                /* \"#utility.yul\":1937:1950   */\n              iszero\n                /* \"#utility.yul\":1930:1951   */\n              iszero\n                /* \"#utility.yul\":1919:1951   */\n              swap1\n              pop\n                /* \"#utility.yul\":1867:1957   */\n              swap2\n              swap1\n              pop\n              jump\t// out\n                /* \"#utility.yul\":1963:2072   */\n            tag_122:\n                /* \"#utility.yul\":2044:2065   */\n              tag_188\n                /* \"#utility.yul\":2059:2064   */\n              dup2\n                /* \"#utility.yul\":2044:2065   */\n              tag_121\n              jump\t// in\n            tag_188:\n                /* \"#utility.yul\":2039:2042   */\n              dup3\n                /* \"#utility.yul\":2032:2066   */\n              mstore\n                /* \"#utility.yul\":1963:2072   */\n              pop\n              pop\n              jump\t// out\n                /* \"#utility.yul\":2078:2288   */\n            tag_22:\n                /* \"#utility.yul\":2165:2169   */\n              0x00\n                /* \"#utility.yul\":2203:2205   */\n              0x20\n                /* \"#utility.yul\":2192:2201   */\n              dup3\n                /* \"#utility.yul\":2188:2206   */\n              add\n                /* \"#utility.yul\":2180:2206   */\n              swap1\n              pop\n                /* \"#utility.yul\":2216:2281   */\n              tag_190\n                /* \"#utility.yul\":2278:2279   */\n              0x00\n                /* \"#utility.yul\":2267:2276   */\n              dup4\n                /* \"#utility.yul\":2263:2280   */\n              add\n                /* \"#utility.yul\":2254:2260   */\n              dup5\n                /* \"#utility.yul\":2216:2281   */\n              tag_122\n              jump\t// in\n            tag_190:\n                /* \"#utility.yul\":2078:2288   */\n              swap3\n              swap2\n              pop\n              pop\n              jump\t// out\n                /* \"#utility.yul\":2294:2411   */\n            tag_123:\n                /* \"#utility.yul\":2403:2404   */\n              0x00\n                /* \"#utility.yul\":2400:2401   */\n              dup1\n                /* \"#utility.yul\":2393:2405   */\n              revert\n                /* \"#utility.yul\":2417:2534   */\n            tag_124:\n                /* \"#utility.yul\":2526:2527   */\n              0x00\n                /* \"#utility.yul\":2523:2524   */\n              dup1\n                /* \"#utility.yul\":2516:2528   */\n              revert\n                /* \"#utility.yul\":2540:2642   */\n            tag_125:\n                /* \"#utility.yul\":2581:2587   */\n              0x00\n                /* \"#utility.yul\":2632:2634   */\n              0x1f\n                /* \"#utility.yul\":2628:2635   */\n              not\n                /* \"#utility.yul\":2623:2625   */\n              0x1f\n                /* \"#utility.yul\":2616:2621   */\n              dup4\n                /* \"#utility.yul\":2612:2626   */\n              add\n                /* \"#utility.yul\":2608:2636   */\n              and\n                /* \"#utility.yul\":2598:2636   */\n              swap1\n              pop\n                /* \"#utility.yul\":2540:2642   */\n              swap2\n              swap1\n              pop\n              jump\t// out\n                /* \"#utility.yul\":2648:2828   */\n            tag_126:\n                /* \"#utility.yul\":2696:2773   */\n              0x4e487b7100000000000000000000000000000000000000000000000000000000\n                /* \"#utility.yul\":2693:2694   */\n              0x00\n                /* \"#utility.yul\":2686:2774   */\n              mstore\n                /* \"#utility.yul\":2793:2797   */\n              0x41\n                /* \"#utility.yul\":2790:2791   */\n              0x04\n                /* \"#utility.yul\":2783:2798   */\n              mstore\n                /* \"#utility.yul\":2817:2821   */\n              0x24\n                /* \"#utility.yul\":2814:2815   */\n              0x00\n                /* \"#utility.yul\":2807:2822   */\n              revert\n                /* \"#utility.yul\":2834:3115   */\n            tag_127:\n                /* \"#utility.yul\":2917:2944   */\n              tag_196\n                /* \"#utility.yul\":2939:2943   */\n              dup3\n                /* \"#utility.yul\":2917:2944   */\n              tag_125\n              jump\t// in\n            tag_196:\n                /* \"#utility.yul\":2909:2915   */\n              dup2\n                /* \"#utility.yul\":2905:2945   */\n              add\n                /* \"#utility.yul\":3047:3053   */\n              dup2\n                /* \"#utility.yul\":3035:3045   */\n              dup2\n                /* \"#utility.yul\":3032:3054   */\n              lt\n                /* \"#utility.yul\":3011:3029   */\n              0xffffffffffffffff\n                /* \"#utility.yul\":2999:3009   */\n              dup3\n                /* \"#utility.yul\":2996:3030   */\n              gt\n                /* \"#utility.yul\":2993:3055   */\n              or\n                /* \"#utility.yul\":2990:3078   */\n              iszero\n              tag_197\n              jumpi\n                /* \"#utility.yul\":3058:3076   */\n              tag_198\n              tag_126\n              jump\t// in\n            tag_198:\n                /* \"#utility.yul\":2990:3078   */\n            tag_197:\n                /* \"#utility.yul\":3098:3108   */\n              dup1\n                /* \"#utility.yul\":3094:3096   */\n              0x40\n                /* \"#utility.yul\":3087:3109   */\n              mstore\n                /* \"#utility.yul\":2877:3115   */\n              pop\n                /* \"#utility.yul\":2834:3115   */\n              pop\n              pop\n              jump\t// out\n                /* \"#utility.yul\":3121:3250   */\n            tag_128:\n                /* \"#utility.yul\":3155:3161   */\n              0x00\n                /* \"#utility.yul\":3182:3202   */\n              tag_200\n              tag_111\n              jump\t// in\n            tag_200:\n                /* \"#utility.yul\":3172:3202   */\n              swap1\n              pop\n                /* \"#utility.yul\":3211:3244   */\n              tag_201\n                /* \"#utility.yul\":3239:3243   */\n              dup3\n                /* \"#utility.yul\":3231:3237   */\n              dup3\n                /* \"#utility.yul\":3211:3244   */\n              tag_127\n              jump\t// in\n            tag_201:\n                /* \"#utility.yul\":3121:3250   */\n              swap2\n              swap1\n              pop\n              jump\t// out\n                /* \"#utility.yul\":3256:3564   */\n            tag_129:\n                /* \"#utility.yul\":3318:3322   */\n              0x00\n                /* \"#utility.yul\":3408:3426   */\n              0xffffffffffffffff\n                /* \"#utility.yul\":3400:3406   */\n              dup3\n                /* \"#utility.yul\":3397:3427   */\n              gt\n                /* \"#utility.yul\":3394:3450   */\n              iszero\n              tag_203\n              jumpi\n                /* \"#utility.yul\":3430:3448   */\n              tag_204\n              tag_126\n              jump\t// in\n            tag_204:\n                /* \"#utility.yul\":3394:3450   */\n            tag_203:\n                /* \"#utility.yul\":3468:3497   */\n              tag_205\n                /* \"#utility.yul\":3490:3496   */\n              dup3\n                /* \"#utility.yul\":3468:3497   */\n              tag_125\n              jump\t// in\n            tag_205:\n                /* \"#utility.yul\":3460:3497   */\n              swap1\n              pop\n                /* \"#utility.yul\":3552:3556   */\n              0x20\n                /* \"#utility.yul\":3546:3550   */\n              dup2\n                /* \"#utility.yul\":3542:3557   */\n              add\n                /* \"#utility.yul\":3534:3557   */\n              swap1\n              pop\n                /* \"#utility.yul\":3256:3564   */\n              swap2\n              swap1\n              pop\n              jump\t// out\n                /* \"#utility.yul\":3570:3724   */\n            tag_130:\n                /* \"#utility.yul\":3654:3660   */\n              dup3\n                /* \"#utility.yul\":3649:3652   */\n              dup2\n                /* \"#utility.yul\":3644:3647   */\n              dup4\n                /* \"#utility.yul\":3631:3661   */\n              calldatacopy\n                /* \"#utility.yul\":3716:3717   */\n              0x00\n                /* \"#utility.yul\":3707:3713   */\n              dup4\n                /* \"#utility.yul\":3702:3705   */\n              dup4\n                /* \"#utility.yul\":3698:3714   */\n              add\n                /* \"#utility.yul\":3691:3718   */\n              mstore\n                /* \"#utility.yul\":3570:3724   */\n              pop\n              pop\n              pop\n              jump\t// out\n                /* \"#utility.yul\":3730:4142   */\n            tag_131:\n                /* \"#utility.yul\":3808:3813   */\n              0x00\n                /* \"#utility.yul\":3833:3899   */\n              tag_208\n                /* \"#utility.yul\":3849:3898   */\n              tag_209\n                /* \"#utility.yul\":3891:3897   */\n              dup5\n                /* \"#utility.yul\":3849:3898   */\n              tag_129\n              jump\t// in\n            tag_209:\n                /* \"#utility.yul\":3833:3899   */\n              tag_128\n              jump\t// in\n            tag_208:\n                /* \"#utility.yul\":3824:3899   */\n              swap1\n              pop\n                /* \"#utility.yul\":3922:3928   */\n              dup3\n                /* \"#utility.yul\":3915:3920   */\n              dup2\n                /* \"#utility.yul\":3908:3929   */\n              mstore\n                /* \"#utility.yul\":3960:3964   */\n              0x20\n                /* \"#utility.yul\":3953:3958   */\n              dup2\n                /* \"#utility.yul\":3949:3965   */\n              add\n                /* \"#utility.yul\":3998:4001   */\n              dup5\n                /* \"#utility.yul\":3989:3995   */\n              dup5\n                /* \"#utility.yul\":3984:3987   */\n              dup5\n                /* \"#utility.yul\":3980:3996   */\n              add\n                /* \"#utility.yul\":3977:4002   */\n              gt\n                /* \"#utility.yul\":3974:4086   */\n              iszero\n              tag_210\n              jumpi\n                /* \"#utility.yul\":4005:4084   */\n              tag_211\n              tag_124\n              jump\t// in\n            tag_211:\n                /* \"#utility.yul\":3974:4086   */\n            tag_210:\n                /* \"#utility.yul\":4095:4136   */\n              tag_212\n                /* \"#utility.yul\":4129:4135   */\n              dup5\n                /* \"#utility.yul\":4124:4127   */\n              dup3\n                /* \"#utility.yul\":4119:4122   */\n              dup6\n                /* \"#utility.yul\":4095:4136   */\n              tag_130\n              jump\t// in\n            tag_212:\n                /* \"#utility.yul\":3814:4142   */\n              pop\n                /* \"#utility.yul\":3730:4142   */\n              swap4\n              swap3\n              pop\n              pop\n              pop\n              jump\t// out\n                /* \"#utility.yul\":4162:4502   */\n            tag_132:\n                /* \"#utility.yul\":4218:4223   */\n              0x00\n                /* \"#utility.yul\":4267:4270   */\n              dup3\n                /* \"#utility.yul\":4260:4264   */\n              0x1f\n                /* \"#utility.yul\":4252:4258   */\n              dup4\n                /* \"#utility.yul\":4248:4265   */\n              add\n                /* \"#utility.yul\":4244:4271   */\n              slt\n                /* \"#utility.yul\":4234:4356   */\n              tag_214\n              jumpi\n                /* \"#utility.yul\":4275:4354   */\n              tag_215\n              tag_123\n              jump\t// in\n            tag_215:\n                /* \"#utility.yul\":4234:4356   */\n            tag_214:\n                /* \"#utility.yul\":4392:4398   */\n              dup2\n                /* \"#utility.yul\":4379:4399   */\n              calldataload\n                /* \"#utility.yul\":4417:4496   */\n              tag_216\n                /* \"#utility.yul\":4492:4495   */\n              dup5\n                /* \"#utility.yul\":4484:4490   */\n              dup3\n                /* \"#utility.yul\":4477:4481   */\n              0x20\n                /* \"#utility.yul\":4469:4475   */\n              dup7\n                /* \"#utility.yul\":4465:4482   */\n              add\n                /* \"#utility.yul\":4417:4496   */\n              tag_131\n              jump\t// in\n            tag_216:\n                /* \"#utility.yul\":4408:4496   */\n              swap2\n              pop\n                /* \"#utility.yul\":4224:4502   */\n              pop\n                /* \"#utility.yul\":4162:4502   */\n              swap3\n              swap2\n              pop\n              pop\n              jump\t// out\n                /* \"#utility.yul\":4508:4612   */\n            tag_133:\n                /* \"#utility.yul\":4553:4560   */\n              0x00\n                /* \"#utility.yul\":4582:4606   */\n              tag_218\n                /* \"#utility.yul\":4600:4605   */\n              dup3\n                /* \"#utility.yul\":4582:4606   */\n              tag_117\n              jump\t// in\n            tag_218:\n                /* \"#utility.yul\":4571:4606   */\n              swap1\n              pop\n                /* \"#utility.yul\":4508:4612   */\n              swap2\n              swap1\n              pop\n              jump\t// out\n                /* \"#utility.yul\":4618:4756   */\n            tag_134:\n                /* \"#utility.yul\":4699:4731   */\n              tag_220\n                /* \"#utility.yul\":4725:4730   */\n              dup2\n                /* \"#utility.yul\":4699:4731   */\n              tag_133\n              jump\t// in\n            tag_220:\n                /* \"#utility.yul\":4692:4697   */\n              dup2\n                /* \"#utility.yul\":4689:4732   */\n              eq\n                /* \"#utility.yul\":4679:4750   */\n              tag_221\n              jumpi\n                /* \"#utility.yul\":4746:4747   */\n              0x00\n                /* \"#utility.yul\":4743:4744   */\n              dup1\n                /* \"#utility.yul\":4736:4748   */\n              revert\n                /* \"#utility.yul\":4679:4750   */\n            tag_221:\n                /* \"#utility.yul\":4618:4756   */\n              pop\n              jump\t// out\n                /* \"#utility.yul\":4762:4917   */\n            tag_135:\n                /* \"#utility.yul\":4816:4821   */\n              0x00\n                /* \"#utility.yul\":4854:4860   */\n              dup2\n                /* \"#utility.yul\":4841:4861   */\n              calldataload\n                /* \"#utility.yul\":4832:4861   */\n              swap1\n              pop\n                /* \"#utility.yul\":4870:4911   */\n              tag_223\n                /* \"#utility.yul\":4905:4910   */\n              dup2\n                /* \"#utility.yul\":4870:4911   */\n              tag_134\n              jump\t// in\n            tag_223:\n                /* \"#utility.yul\":4762:4917   */\n              swap3\n              swap2\n              pop\n              pop\n              jump\t// out\n                /* \"#utility.yul\":4923:5738   */\n            tag_26:\n                /* \"#utility.yul\":5018:5024   */\n              0x00\n                /* \"#utility.yul\":5026:5032   */\n              dup1\n                /* \"#utility.yul\":5034:5040   */\n              0x00\n                /* \"#utility.yul\":5083:5085   */\n              0x60\n                /* \"#utility.yul\":5071:5080   */\n              dup5\n                /* \"#utility.yul\":5062:5069   */\n              dup7\n                /* \"#utility.yul\":5058:5081   */\n              sub\n                /* \"#utility.yul\":5054:5086   */\n              slt\n                /* \"#utility.yul\":5051:5170   */\n              iszero\n              tag_225\n              jumpi\n                /* \"#utility.yul\":5089:5168   */\n              tag_226\n              tag_112\n              jump\t// in\n            tag_226:\n                /* \"#utility.yul\":5051:5170   */\n            tag_225:\n                /* \"#utility.yul\":5237:5238   */\n              0x00\n                /* \"#utility.yul\":5226:5235   */\n              dup5\n                /* \"#utility.yul\":5222:5239   */\n              add\n                /* \"#utility.yul\":5209:5240   */\n              calldataload\n                /* \"#utility.yul\":5267:5285   */\n              0xffffffffffffffff\n                /* \"#utility.yul\":5259:5265   */\n              dup2\n                /* \"#utility.yul\":5256:5286   */\n              gt\n                /* \"#utility.yul\":5253:5370   */\n              iszero\n              tag_227\n              jumpi\n                /* \"#utility.yul\":5289:5368   */\n              tag_228\n              tag_113\n              jump\t// in\n            tag_228:\n                /* \"#utility.yul\":5253:5370   */\n            tag_227:\n                /* \"#utility.yul\":5394:5457   */\n              tag_229\n                /* \"#utility.yul\":5449:5456   */\n              dup7\n                /* \"#utility.yul\":5440:5446   */\n              dup3\n                /* \"#utility.yul\":5429:5438   */\n              dup8\n                /* \"#utility.yul\":5425:5447   */\n              add\n                /* \"#utility.yul\":5394:5457   */\n              tag_132\n              jump\t// in\n            tag_229:\n                /* \"#utility.yul\":5384:5457   */\n              swap4\n              pop\n                /* \"#utility.yul\":5180:5467   */\n              pop\n                /* \"#utility.yul\":5506:5508   */\n              0x20\n                /* \"#utility.yul\":5532:5593   */\n              tag_230\n                /* \"#utility.yul\":5585:5592   */\n              dup7\n                /* \"#utility.yul\":5576:5582   */\n              dup3\n                /* \"#utility.yul\":5565:5574   */\n              dup8\n                /* \"#utility.yul\":5561:5583   */\n              add\n                /* \"#utility.yul\":5532:5593   */\n              tag_135\n              jump\t// in\n            tag_230:\n                /* \"#utility.yul\":5522:5593   */\n              swap3\n              pop\n                /* \"#utility.yul\":5477:5603   */\n              pop\n                /* \"#utility.yul\":5642:5644   */\n              0x40\n                /* \"#utility.yul\":5668:5721   */\n              tag_231\n                /* \"#utility.yul\":5713:5720   */\n              dup7\n                /* \"#utility.yul\":5704:5710   */\n              dup3\n                /* \"#utility.yul\":5693:5702   */\n              dup8\n                /* \"#utility.yul\":5689:5711   */\n              add\n                /* \"#utility.yul\":5668:5721   */\n              tag_116\n              jump\t// in\n            tag_231:\n                /* \"#utility.yul\":5658:5721   */\n              swap2\n              pop\n                /* \"#utility.yul\":5613:5731   */\n              pop\n                /* \"#utility.yul\":4923:5738   */\n              swap3\n              pop\n              swap3\n              pop\n              swap3\n              jump\t// out\n                /* \"#utility.yul\":5744:5862   */\n            tag_136:\n                /* \"#utility.yul\":5831:5855   */\n              tag_233\n                /* \"#utility.yul\":5849:5854   */\n              dup2\n                /* \"#utility.yul\":5831:5855   */\n              tag_118\n              jump\t// in\n            tag_233:\n                /* \"#utility.yul\":5826:5829   */\n              dup3\n                /* \"#utility.yul\":5819:5856   */\n              mstore\n                /* \"#utility.yul\":5744:5862   */\n              pop\n              pop\n              jump\t// out\n                /* \"#utility.yul\":5868:5986   */\n            tag_137:\n                /* \"#utility.yul\":5955:5979   */\n              tag_235\n                /* \"#utility.yul\":5973:5978   */\n              dup2\n                /* \"#utility.yul\":5955:5979   */\n              tag_114\n              jump\t// in\n            tag_235:\n                /* \"#utility.yul\":5950:5953   */\n              dup3\n                /* \"#utility.yul\":5943:5980   */\n              mstore\n                /* \"#utility.yul\":5868:5986   */\n              pop\n              pop\n              jump\t// out\n                /* \"#utility.yul\":5992:6656   */\n            tag_32:\n                /* \"#utility.yul\":6197:6201   */\n              0x00\n                /* \"#utility.yul\":6235:6238   */\n              0xa0\n                /* \"#utility.yul\":6224:6233   */\n              dup3\n                /* \"#utility.yul\":6220:6239   */\n              add\n                /* \"#utility.yul\":6212:6239   */\n              swap1\n              pop\n                /* \"#utility.yul\":6249:6320   */\n              tag_237\n                /* \"#utility.yul\":6317:6318   */\n              0x00\n                /* \"#utility.yul\":6306:6315   */\n              dup4\n                /* \"#utility.yul\":6302:6319   */\n              add\n                /* \"#utility.yul\":6293:6299   */\n              dup9\n                /* \"#utility.yul\":6249:6320   */\n              tag_136\n              jump\t// in\n            tag_237:\n                /* \"#utility.yul\":6330:6402   */\n              tag_238\n                /* \"#utility.yul\":6398:6400   */\n              0x20\n                /* \"#utility.yul\":6387:6396   */\n              dup4\n                /* \"#utility.yul\":6383:6401   */\n              add\n                /* \"#utility.yul\":6374:6380   */\n              dup8\n                /* \"#utility.yul\":6330:6402   */\n              tag_137\n              jump\t// in\n            tag_238:\n                /* \"#utility.yul\":6412:6484   */\n              tag_239\n                /* \"#utility.yul\":6480:6482   */\n              0x40\n                /* \"#utility.yul\":6469:6478   */\n              dup4\n                /* \"#utility.yul\":6465:6483   */\n              add\n                /* \"#utility.yul\":6456:6462   */\n              dup7\n                /* \"#utility.yul\":6412:6484   */\n              tag_137\n              jump\t// in\n            tag_239:\n                /* \"#utility.yul\":6494:6566   */\n              tag_240\n                /* \"#utility.yul\":6562:6564   */\n              0x60\n                /* \"#utility.yul\":6551:6560   */\n              dup4\n                /* \"#utility.yul\":6547:6565   */\n              add\n                /* \"#utility.yul\":6538:6544   */\n              dup6\n                /* \"#utility.yul\":6494:6566   */\n              tag_137\n              jump\t// in\n            tag_240:\n                /* \"#utility.yul\":6576:6649   */\n              tag_241\n                /* \"#utility.yul\":6644:6647   */\n              0x80\n                /* \"#utility.yul\":6633:6642   */\n              dup4\n                /* \"#utility.yul\":6629:6648   */\n              add\n                /* \"#utility.yul\":6620:6626   */\n              dup5\n                /* \"#utility.yul\":6576:6649   */\n              tag_137\n              jump\t// in\n            tag_241:\n                /* \"#utility.yul\":5992:6656   */\n              swap7\n              swap6\n              pop\n              pop\n              pop\n              pop\n              pop\n              pop\n              jump\t// out\n                /* \"#utility.yul\":6662:6884   */\n            tag_37:\n                /* \"#utility.yul\":6755:6759   */\n              0x00\n                /* \"#utility.yul\":6793:6795   */\n              0x20\n                /* \"#utility.yul\":6782:6791   */\n              dup3\n                /* \"#utility.yul\":6778:6796   */\n              add\n                /* \"#utility.yul\":6770:6796   */\n              swap1\n              pop\n                /* \"#utility.yul\":6806:6877   */\n              tag_243\n                /* \"#utility.yul\":6874:6875   */\n              0x00\n                /* \"#utility.yul\":6863:6872   */\n              dup4\n                /* \"#utility.yul\":6859:6876   */\n              add\n                /* \"#utility.yul\":6850:6856   */\n              dup5\n                /* \"#utility.yul\":6806:6877   */\n              tag_136\n              jump\t// in\n            tag_243:\n                /* \"#utility.yul\":6662:6884   */\n              swap3\n              swap2\n              pop\n              pop\n              jump\t// out\n                /* \"#utility.yul\":6890:6989   */\n            tag_138:\n                /* \"#utility.yul\":6942:6948   */\n              0x00\n                /* \"#utility.yul\":6976:6981   */\n              dup2\n                /* \"#utility.yul\":6970:6982   */\n              mload\n                /* \"#utility.yul\":6960:6982   */\n              swap1\n              pop\n                /* \"#utility.yul\":6890:6989   */\n              swap2\n              swap1\n              pop\n              jump\t// out\n                /* \"#utility.yul\":6995:7164   */\n            tag_139:\n                /* \"#utility.yul\":7079:7090   */\n              0x00\n                /* \"#utility.yul\":7113:7119   */\n              dup3\n                /* \"#utility.yul\":7108:7111   */\n              dup3\n                /* \"#utility.yul\":7101:7120   */\n              mstore\n                /* \"#utility.yul\":7153:7157   */\n              0x20\n                /* \"#utility.yul\":7148:7151   */\n              dup3\n                /* \"#utility.yul\":7144:7158   */\n              add\n                /* \"#utility.yul\":7129:7158   */\n              swap1\n              pop\n                /* \"#utility.yul\":6995:7164   */\n              swap3\n              swap2\n              pop\n              pop\n              jump\t// out\n                /* \"#utility.yul\":7170:7477   */\n            tag_140:\n                /* \"#utility.yul\":7238:7239   */\n              0x00\n                /* \"#utility.yul\":7248:7361   */\n            tag_247:\n                /* \"#utility.yul\":7262:7268   */\n              dup4\n                /* \"#utility.yul\":7259:7260   */\n              dup2\n                /* \"#utility.yul\":7256:7269   */\n              lt\n                /* \"#utility.yul\":7248:7361   */\n              iszero\n              tag_249\n              jumpi\n                /* \"#utility.yul\":7347:7348   */\n              dup1\n                /* \"#utility.yul\":7342:7345   */\n              dup3\n                /* \"#utility.yul\":7338:7349   */\n              add\n                /* \"#utility.yul\":7332:7350   */\n              mload\n                /* \"#utility.yul\":7328:7329   */\n              dup2\n                /* \"#utility.yul\":7323:7326   */\n              dup5\n                /* \"#utility.yul\":7319:7330   */\n              add\n                /* \"#utility.yul\":7312:7351   */\n              mstore\n                /* \"#utility.yul\":7284:7286   */\n              0x20\n                /* \"#utility.yul\":7281:7282   */\n              dup2\n                /* \"#utility.yul\":7277:7287   */\n              add\n                /* \"#utility.yul\":7272:7287   */\n              swap1\n              pop\n                /* \"#utility.yul\":7248:7361   */\n              jump(tag_247)\n            tag_249:\n                /* \"#utility.yul\":7379:7385   */\n              dup4\n                /* \"#utility.yul\":7376:7377   */\n              dup2\n                /* \"#utility.yul\":7373:7386   */\n              gt\n                /* \"#utility.yul\":7370:7471   */\n              iszero\n              tag_250\n              jumpi\n                /* \"#utility.yul\":7459:7460   */\n              0x00\n                /* \"#utility.yul\":7450:7456   */\n              dup5\n                /* \"#utility.yul\":7445:7448   */\n              dup5\n                /* \"#utility.yul\":7441:7457   */\n              add\n                /* \"#utility.yul\":7434:7461   */\n              mstore\n                /* \"#utility.yul\":7370:7471   */\n            tag_250:\n                /* \"#utility.yul\":7219:7477   */\n              pop\n                /* \"#utility.yul\":7170:7477   */\n              pop\n              pop\n              pop\n              jump\t// out\n                /* \"#utility.yul\":7483:7847   */\n            tag_141:\n                /* \"#utility.yul\":7571:7574   */\n              0x00\n                /* \"#utility.yul\":7599:7638   */\n              tag_252\n                /* \"#utility.yul\":7632:7637   */\n              dup3\n                /* \"#utility.yul\":7599:7638   */\n              tag_138\n              jump\t// in\n            tag_252:\n                /* \"#utility.yul\":7654:7725   */\n              tag_253\n                /* \"#utility.yul\":7718:7724   */\n              dup2\n                /* \"#utility.yul\":7713:7716   */\n              dup6\n                /* \"#utility.yul\":7654:7725   */\n              tag_139\n              jump\t// in\n            tag_253:\n                /* \"#utility.yul\":7647:7725   */\n              swap4\n              pop\n                /* \"#utility.yul\":7734:7786   */\n              tag_254\n                /* \"#utility.yul\":7779:7785   */\n              dup2\n                /* \"#utility.yul\":7774:7777   */\n              dup6\n                /* \"#utility.yul\":7767:7771   */\n              0x20\n                /* \"#utility.yul\":7760:7765   */\n              dup7\n                /* \"#utility.yul\":7756:7772   */\n              add\n                /* \"#utility.yul\":7734:7786   */\n              tag_140\n              jump\t// in\n            tag_254:\n                /* \"#utility.yul\":7811:7840   */\n              tag_255\n                /* \"#utility.yul\":7833:7839   */\n              dup2\n                /* \"#utility.yul\":7811:7840   */\n              tag_125\n              jump\t// in\n            tag_255:\n                /* \"#utility.yul\":7806:7809   */\n              dup5\n                /* \"#utility.yul\":7802:7841   */\n              add\n                /* \"#utility.yul\":7795:7841   */\n              swap2\n              pop\n                /* \"#utility.yul\":7575:7847   */\n              pop\n                /* \"#utility.yul\":7483:7847   */\n              swap3\n              swap2\n              pop\n              pop\n              jump\t// out\n                /* \"#utility.yul\":7853:7995   */\n            tag_142:\n                /* \"#utility.yul\":7956:7988   */\n              tag_257\n                /* \"#utility.yul\":7982:7987   */\n              dup2\n                /* \"#utility.yul\":7956:7988   */\n              tag_133\n              jump\t// in\n            tag_257:\n                /* \"#utility.yul\":7951:7954   */\n              dup3\n                /* \"#utility.yul\":7944:7989   */\n              mstore\n                /* \"#utility.yul\":7853:7995   */\n              pop\n              pop\n              jump\t// out\n                /* \"#utility.yul\":8001:8776   */\n            tag_43:\n                /* \"#utility.yul\":8236:8240   */\n              0x00\n                /* \"#utility.yul\":8274:8277   */\n              0xa0\n                /* \"#utility.yul\":8263:8272   */\n              dup3\n                /* \"#utility.yul\":8259:8278   */\n              add\n                /* \"#utility.yul\":8251:8278   */\n              swap1\n              pop\n                /* \"#utility.yul\":8324:8333   */\n              dup2\n                /* \"#utility.yul\":8318:8322   */\n              dup2\n                /* \"#utility.yul\":8314:8334   */\n              sub\n                /* \"#utility.yul\":8310:8311   */\n              0x00\n                /* \"#utility.yul\":8299:8308   */\n              dup4\n                /* \"#utility.yul\":8295:8312   */\n              add\n                /* \"#utility.yul\":8288:8335   */\n              mstore\n                /* \"#utility.yul\":8352:8430   */\n              tag_259\n                /* \"#utility.yul\":8425:8429   */\n              dup2\n                /* \"#utility.yul\":8416:8422   */\n              dup9\n                /* \"#utility.yul\":8352:8430   */\n              tag_141\n              jump\t// in\n            tag_259:\n                /* \"#utility.yul\":8344:8430   */\n              swap1\n              pop\n                /* \"#utility.yul\":8440:8528   */\n              tag_260\n                /* \"#utility.yul\":8524:8526   */\n              0x20\n                /* \"#utility.yul\":8513:8522   */\n              dup4\n                /* \"#utility.yul\":8509:8527   */\n              add\n                /* \"#utility.yul\":8500:8506   */\n              dup8\n                /* \"#utility.yul\":8440:8528   */\n              tag_142\n              jump\t// in\n            tag_260:\n                /* \"#utility.yul\":8538:8610   */\n              tag_261\n                /* \"#utility.yul\":8606:8608   */\n              0x40\n                /* \"#utility.yul\":8595:8604   */\n              dup4\n                /* \"#utility.yul\":8591:8609   */\n              add\n                /* \"#utility.yul\":8582:8588   */\n              dup7\n                /* \"#utility.yul\":8538:8610   */\n              tag_137\n              jump\t// in\n            tag_261:\n                /* \"#utility.yul\":8620:8686   */\n              tag_262\n                /* \"#utility.yul\":8682:8684   */\n              0x60\n                /* \"#utility.yul\":8671:8680   */\n              dup4\n                /* \"#utility.yul\":8667:8685   */\n              add\n                /* \"#utility.yul\":8658:8664   */\n              dup6\n                /* \"#utility.yul\":8620:8686   */\n              tag_122\n              jump\t// in\n            tag_262:\n                /* \"#utility.yul\":8696:8769   */\n              tag_263\n                /* \"#utility.yul\":8764:8767   */\n              0x80\n                /* \"#utility.yul\":8753:8762   */\n              dup4\n                /* \"#utility.yul\":8749:8768   */\n              add\n                /* \"#utility.yul\":8740:8746   */\n              dup5\n                /* \"#utility.yul\":8696:8769   */\n              tag_137\n              jump\t// in\n            tag_263:\n                /* \"#utility.yul\":8001:8776   */\n              swap7\n              swap6\n              pop\n              pop\n              pop\n              pop\n              pop\n              pop\n              jump\t// out\n                /* \"#utility.yul\":8782:9004   */\n            tag_48:\n                /* \"#utility.yul\":8875:8879   */\n              0x00\n                /* \"#utility.yul\":8913:8915   */\n              0x20\n                /* \"#utility.yul\":8902:8911   */\n              dup3\n                /* \"#utility.yul\":8898:8916   */\n              add\n                /* \"#utility.yul\":8890:8916   */\n              swap1\n              pop\n                /* \"#utility.yul\":8926:8997   */\n              tag_265\n                /* \"#utility.yul\":8994:8995   */\n              0x00\n                /* \"#utility.yul\":8983:8992   */\n              dup4\n                /* \"#utility.yul\":8979:8996   */\n              add\n                /* \"#utility.yul\":8970:8976   */\n              dup5\n                /* \"#utility.yul\":8926:8997   */\n              tag_137\n              jump\t// in\n            tag_265:\n                /* \"#utility.yul\":8782:9004   */\n              swap3\n              swap2\n              pop\n              pop\n              jump\t// out\n                /* \"#utility.yul\":9010:9231   */\n            tag_143:\n                /* \"#utility.yul\":9150:9184   */\n              0x4f6e6c79206d616e616765722063616e2075736520746869732066756e637469\n                /* \"#utility.yul\":9146:9147   */\n              0x00\n                /* \"#utility.yul\":9138:9144   */\n              dup3\n                /* \"#utility.yul\":9134:9148   */\n              add\n                /* \"#utility.yul\":9127:9185   */\n              mstore\n                /* \"#utility.yul\":9219:9223   */\n              0x6f6e000000000000000000000000000000000000000000000000000000000000\n                /* \"#utility.yul\":9214:9216   */\n              0x20\n                /* \"#utility.yul\":9206:9212   */\n              dup3\n                /* \"#utility.yul\":9202:9217   */\n              add\n                /* \"#utility.yul\":9195:9224   */\n              mstore\n                /* \"#utility.yul\":9010:9231   */\n              pop\n              jump\t// out\n                /* \"#utility.yul\":9237:9603   */\n            tag_144:\n                /* \"#utility.yul\":9379:9382   */\n              0x00\n                /* \"#utility.yul\":9400:9467   */\n              tag_268\n                /* \"#utility.yul\":9464:9466   */\n              0x22\n                /* \"#utility.yul\":9459:9462   */\n              dup4\n                /* \"#utility.yul\":9400:9467   */\n              tag_139\n              jump\t// in\n            tag_268:\n                /* \"#utility.yul\":9393:9467   */\n              swap2\n              pop\n                /* \"#utility.yul\":9476:9569   */\n              tag_269\n                /* \"#utility.yul\":9565:9568   */\n              dup3\n                /* \"#utility.yul\":9476:9569   */\n              tag_143\n              jump\t// in\n            tag_269:\n                /* \"#utility.yul\":9594:9596   */\n              0x40\n                /* \"#utility.yul\":9589:9592   */\n              dup3\n                /* \"#utility.yul\":9585:9597   */\n              add\n                /* \"#utility.yul\":9578:9597   */\n              swap1\n              pop\n                /* \"#utility.yul\":9237:9603   */\n              swap2\n              swap1\n              pop\n              jump\t// out\n                /* \"#utility.yul\":9609:10028   */\n            tag_58:\n                /* \"#utility.yul\":9775:9779   */\n              0x00\n                /* \"#utility.yul\":9813:9815   */\n              0x20\n                /* \"#utility.yul\":9802:9811   */\n              dup3\n                /* \"#utility.yul\":9798:9816   */\n              add\n                /* \"#utility.yul\":9790:9816   */\n              swap1\n              pop\n                /* \"#utility.yul\":9862:9871   */\n              dup2\n                /* \"#utility.yul\":9856:9860   */\n              dup2\n                /* \"#utility.yul\":9852:9872   */\n              sub\n                /* \"#utility.yul\":9848:9849   */\n              0x00\n                /* \"#utility.yul\":9837:9846   */\n              dup4\n                /* \"#utility.yul\":9833:9850   */\n              add\n                /* \"#utility.yul\":9826:9873   */\n              mstore\n                /* \"#utility.yul\":9890:10021   */\n              tag_271\n                /* \"#utility.yul\":10016:10020   */\n              dup2\n                /* \"#utility.yul\":9890:10021   */\n              tag_144\n              jump\t// in\n            tag_271:\n                /* \"#utility.yul\":9882:10021   */\n              swap1\n              pop\n                /* \"#utility.yul\":9609:10028   */\n              swap2\n              swap1\n              pop\n              jump\t// out\n                /* \"#utility.yul\":10034:10209   */\n            tag_145:\n                /* \"#utility.yul\":10174:10201   */\n              0x7265717565737420616c72656164792066696e616c697a656400000000000000\n                /* \"#utility.yul\":10170:10171   */\n              0x00\n                /* \"#utility.yul\":10162:10168   */\n              dup3\n                /* \"#utility.yul\":10158:10172   */\n              add\n                /* \"#utility.yul\":10151:10202   */\n              mstore\n                /* \"#utility.yul\":10034:10209   */\n              pop\n              jump\t// out\n                /* \"#utility.yul\":10215:10581   */\n            tag_146:\n                /* \"#utility.yul\":10357:10360   */\n              0x00\n                /* \"#utility.yul\":10378:10445   */\n              tag_274\n                /* \"#utility.yul\":10442:10444   */\n              0x19\n                /* \"#utility.yul\":10437:10440   */\n              dup4\n                /* \"#utility.yul\":10378:10445   */\n              tag_139\n              jump\t// in\n            tag_274:\n                /* \"#utility.yul\":10371:10445   */\n              swap2\n              pop\n                /* \"#utility.yul\":10454:10547   */\n              tag_275\n                /* \"#utility.yul\":10543:10546   */\n              dup3\n                /* \"#utility.yul\":10454:10547   */\n              tag_145\n              jump\t// in\n            tag_275:\n                /* \"#utility.yul\":10572:10574   */\n              0x20\n                /* \"#utility.yul\":10567:10570   */\n              dup3\n                /* \"#utility.yul\":10563:10575   */\n              add\n                /* \"#utility.yul\":10556:10575   */\n              swap1\n              pop\n                /* \"#utility.yul\":10215:10581   */\n              swap2\n              swap1\n              pop\n              jump\t// out\n                /* \"#utility.yul\":10587:11006   */\n            tag_62:\n                /* \"#utility.yul\":10753:10757   */\n              0x00\n                /* \"#utility.yul\":10791:10793   */\n              0x20\n                /* \"#utility.yul\":10780:10789   */\n              dup3\n                /* \"#utility.yul\":10776:10794   */\n              add\n                /* \"#utility.yul\":10768:10794   */\n              swap1\n              pop\n                /* \"#utility.yul\":10840:10849   */\n              dup2\n                /* \"#utility.yul\":10834:10838   */\n              dup2\n                /* \"#utility.yul\":10830:10850   */\n              sub\n                /* \"#utility.yul\":10826:10827   */\n              0x00\n                /* \"#utility.yul\":10815:10824   */\n              dup4\n                /* \"#utility.yul\":10811:10828   */\n              add\n                /* \"#utility.yul\":10804:10851   */\n              mstore\n                /* \"#utility.yul\":10868:10999   */\n              tag_277\n                /* \"#utility.yul\":10994:10998   */\n              dup2\n                /* \"#utility.yul\":10868:10999   */\n              tag_146\n              jump\t// in\n            tag_277:\n                /* \"#utility.yul\":10860:10999   */\n              swap1\n              pop\n                /* \"#utility.yul\":10587:11006   */\n              swap2\n              swap1\n              pop\n              jump\t// out\n                /* \"#utility.yul\":11012:11192   */\n            tag_147:\n                /* \"#utility.yul\":11060:11137   */\n              0x4e487b7100000000000000000000000000000000000000000000000000000000\n                /* \"#utility.yul\":11057:11058   */\n              0x00\n                /* \"#utility.yul\":11050:11138   */\n              mstore\n                /* \"#utility.yul\":11157:11161   */\n              0x12\n                /* \"#utility.yul\":11154:11155   */\n              0x04\n                /* \"#utility.yul\":11147:11162   */\n              mstore\n                /* \"#utility.yul\":11181:11185   */\n              0x24\n                /* \"#utility.yul\":11178:11179   */\n              0x00\n                /* \"#utility.yul\":11171:11186   */\n              revert\n                /* \"#utility.yul\":11198:11378   */\n            tag_148:\n                /* \"#utility.yul\":11246:11323   */\n              0x4e487b7100000000000000000000000000000000000000000000000000000000\n                /* \"#utility.yul\":11243:11244   */\n              0x00\n                /* \"#utility.yul\":11236:11324   */\n              mstore\n                /* \"#utility.yul\":11343:11347   */\n              0x11\n                /* \"#utility.yul\":11340:11341   */\n              0x04\n                /* \"#utility.yul\":11333:11348   */\n              mstore\n                /* \"#utility.yul\":11367:11371   */\n              0x24\n                /* \"#utility.yul\":11364:11365   */\n              0x00\n                /* \"#utility.yul\":11357:11372   */\n              revert\n                /* \"#utility.yul\":11384:11569   */\n            tag_64:\n                /* \"#utility.yul\":11424:11425   */\n              0x00\n                /* \"#utility.yul\":11441:11461   */\n              tag_281\n                /* \"#utility.yul\":11459:11460   */\n              dup3\n                /* \"#utility.yul\":11441:11461   */\n              tag_114\n              jump\t// in\n            tag_281:\n                /* \"#utility.yul\":11436:11461   */\n              swap2\n              pop\n                /* \"#utility.yul\":11475:11495   */\n              tag_282\n                /* \"#utility.yul\":11493:11494   */\n              dup4\n                /* \"#utility.yul\":11475:11495   */\n              tag_114\n              jump\t// in\n            tag_282:\n                /* \"#utility.yul\":11470:11495   */\n              swap3\n              pop\n                /* \"#utility.yul\":11514:11515   */\n              dup3\n                /* \"#utility.yul\":11504:11539   */\n              tag_283\n              jumpi\n                /* \"#utility.yul\":11519:11537   */\n              tag_284\n              tag_147\n              jump\t// in\n            tag_284:\n                /* \"#utility.yul\":11504:11539   */\n            tag_283:\n                /* \"#utility.yul\":11561:11562   */\n              dup3\n                /* \"#utility.yul\":11558:11559   */\n              dup3\n                /* \"#utility.yul\":11554:11563   */\n              div\n                /* \"#utility.yul\":11549:11563   */\n              swap1\n              pop\n                /* \"#utility.yul\":11384:11569   */\n              swap3\n              swap2\n              pop\n              pop\n              jump\t// out\n                /* \"#utility.yul\":11575:11749   */\n            tag_149:\n                /* \"#utility.yul\":11715:11741   */\n              0x4e6f7420656e6f75676820706f737469766520766f7465730000000000000000\n                /* \"#utility.yul\":11711:11712   */\n              0x00\n                /* \"#utility.yul\":11703:11709   */\n              dup3\n                /* \"#utility.yul\":11699:11713   */\n              add\n                /* \"#utility.yul\":11692:11742   */\n              mstore\n                /* \"#utility.yul\":11575:11749   */\n              pop\n              jump\t// out\n                /* \"#utility.yul\":11755:12121   */\n            tag_150:\n                /* \"#utility.yul\":11897:11900   */\n              0x00\n                /* \"#utility.yul\":11918:11985   */\n              tag_287\n                /* \"#utility.yul\":11982:11984   */\n              0x18\n                /* \"#utility.yul\":11977:11980   */\n              dup4\n                /* \"#utility.yul\":11918:11985   */\n              tag_139\n              jump\t// in\n            tag_287:\n                /* \"#utility.yul\":11911:11985   */\n              swap2\n              pop\n                /* \"#utility.yul\":11994:12087   */\n              tag_288\n                /* \"#utility.yul\":12083:12086   */\n              dup3\n                /* \"#utility.yul\":11994:12087   */\n              tag_149\n              jump\t// in\n            tag_288:\n                /* \"#utility.yul\":12112:12114   */\n              0x20\n                /* \"#utility.yul\":12107:12110   */\n              dup3\n                /* \"#utility.yul\":12103:12115   */\n              add\n                /* \"#utility.yul\":12096:12115   */\n              swap1\n              pop\n                /* \"#utility.yul\":11755:12121   */\n              swap2\n              swap1\n              pop\n              jump\t// out\n                /* \"#utility.yul\":12127:12546   */\n            tag_67:\n                /* \"#utility.yul\":12293:12297   */\n              0x00\n                /* \"#utility.yul\":12331:12333   */\n              0x20\n                /* \"#utility.yul\":12320:12329   */\n              dup3\n                /* \"#utility.yul\":12316:12334   */\n              add\n                /* \"#utility.yul\":12308:12334   */\n              swap1\n              pop\n                /* \"#utility.yul\":12380:12389   */\n              dup2\n                /* \"#utility.yul\":12374:12378   */\n              dup2\n                /* \"#utility.yul\":12370:12390   */\n              sub\n                /* \"#utility.yul\":12366:12367   */\n              0x00\n                /* \"#utility.yul\":12355:12364   */\n              dup4\n                /* \"#utility.yul\":12351:12368   */\n              add\n                /* \"#utility.yul\":12344:12391   */\n              mstore\n                /* \"#utility.yul\":12408:12539   */\n              tag_290\n                /* \"#utility.yul\":12534:12538   */\n              dup2\n                /* \"#utility.yul\":12408:12539   */\n              tag_150\n              jump\t// in\n            tag_290:\n                /* \"#utility.yul\":12400:12539   */\n              swap1\n              pop\n                /* \"#utility.yul\":12127:12546   */\n              swap2\n              swap1\n              pop\n              jump\t// out\n                /* \"#utility.yul\":12552:12785   */\n            tag_77:\n                /* \"#utility.yul\":12591:12594   */\n              0x00\n                /* \"#utility.yul\":12614:12638   */\n              tag_292\n                /* \"#utility.yul\":12632:12637   */\n              dup3\n                /* \"#utility.yul\":12614:12638   */\n              tag_114\n              jump\t// in\n            tag_292:\n                /* \"#utility.yul\":12605:12638   */\n              swap2\n              pop\n                /* \"#utility.yul\":12660:12726   */\n              0xffffffffffffffffffffffffffffffffffffffffffffffffffffffffffffffff\n                /* \"#utility.yul\":12653:12658   */\n              dup3\n                /* \"#utility.yul\":12650:12727   */\n              eq\n                /* \"#utility.yul\":12647:12750   */\n              iszero\n              tag_293\n              jumpi\n                /* \"#utility.yul\":12730:12748   */\n              tag_294\n              tag_148\n              jump\t// in\n            tag_294:\n                /* \"#utility.yul\":12647:12750   */\n            tag_293:\n                /* \"#utility.yul\":12777:12778   */\n              0x01\n                /* \"#utility.yul\":12770:12775   */\n              dup3\n                /* \"#utility.yul\":12766:12779   */\n              add\n                /* \"#utility.yul\":12759:12779   */\n              swap1\n              pop\n                /* \"#utility.yul\":12552:12785   */\n              swap2\n              swap1\n              pop\n              jump\t// out\n                /* \"#utility.yul\":12791:12971   */\n            tag_151:\n                /* \"#utility.yul\":12839:12916   */\n              0x4e487b7100000000000000000000000000000000000000000000000000000000\n                /* \"#utility.yul\":12836:12837   */\n              0x00\n                /* \"#utility.yul\":12829:12917   */\n              mstore\n                /* \"#utility.yul\":12936:12940   */\n              0x22\n                /* \"#utility.yul\":12933:12934   */\n              0x04\n                /* \"#utility.yul\":12926:12941   */\n              mstore\n                /* \"#utility.yul\":12960:12964   */\n              0x24\n                /* \"#utility.yul\":12957:12958   */\n              0x00\n                /* \"#utility.yul\":12950:12965   */\n              revert\n                /* \"#utility.yul\":12977:13297   */\n            tag_80:\n                /* \"#utility.yul\":13021:13027   */\n              0x00\n                /* \"#utility.yul\":13058:13059   */\n              0x02\n                /* \"#utility.yul\":13052:13056   */\n              dup3\n                /* \"#utility.yul\":13048:13060   */\n              div\n                /* \"#utility.yul\":13038:13060   */\n              swap1\n              pop\n                /* \"#utility.yul\":13105:13106   */\n              0x01\n                /* \"#utility.yul\":13099:13103   */\n              dup3\n                /* \"#utility.yul\":13095:13107   */\n              and\n                /* \"#utility.yul\":13126:13144   */\n              dup1\n                /* \"#utility.yul\":13116:13197   */\n              tag_297\n              jumpi\n                /* \"#utility.yul\":13182:13186   */\n              0x7f\n                /* \"#utility.yul\":13174:13180   */\n              dup3\n                /* \"#utility.yul\":13170:13187   */\n              and\n                /* \"#utility.yul\":13160:13187   */\n              swap2\n              pop\n                /* \"#utility.yul\":13116:13197   */\n            tag_297:\n                /* \"#utility.yul\":13244:13246   */\n              0x20\n                /* \"#utility.yul\":13236:13242   */\n              dup3\n                /* \"#utility.yul\":13233:13247   */\n              lt\n                /* \"#utility.yul\":13213:13231   */\n              dup2\n                /* \"#utility.yul\":13210:13248   */\n              eq\n                /* \"#utility.yul\":13207:13291   */\n              iszero\n              tag_298\n              jumpi\n                /* \"#utility.yul\":13263:13281   */\n              tag_299\n              tag_151\n              jump\t// in\n            tag_299:\n                /* \"#utility.yul\":13207:13291   */\n            tag_298:\n                /* \"#utility.yul\":13028:13297   */\n              pop\n                /* \"#utility.yul\":12977:13297   */\n              swap2\n              swap1\n              pop\n              jump\t// out\n                /* \"#utility.yul\":13303:13546   */\n            tag_152:\n                /* \"#utility.yul\":13443:13477   */\n              0x636f6e747269627574696f6e2073686f756c6420626520677265617465722074\n                /* \"#utility.yul\":13439:13440   */\n              0x00\n                /* \"#utility.yul\":13431:13437   */\n              dup3\n                /* \"#utility.yul\":13427:13441   */\n              add\n                /* \"#utility.yul\":13420:13478   */\n              mstore\n                /* \"#utility.yul\":13512:13538   */\n              0x68616e206d696e696d756d20636f6e747269627574696f6e0000000000000000\n                /* \"#utility.yul\":13507:13509   */\n              0x20\n                /* \"#utility.yul\":13499:13505   */\n              dup3\n                /* \"#utility.yul\":13495:13510   */\n              add\n                /* \"#utility.yul\":13488:13539   */\n              mstore\n                /* \"#utility.yul\":13303:13546   */\n              pop\n              jump\t// out\n                /* \"#utility.yul\":13552:13918   */\n            tag_153:\n                /* \"#utility.yul\":13694:13697   */\n              0x00\n                /* \"#utility.yul\":13715:13782   */\n              tag_302\n                /* \"#utility.yul\":13779:13781   */\n              0x38\n                /* \"#utility.yul\":13774:13777   */\n              dup4\n                /* \"#utility.yul\":13715:13782   */\n              tag_139\n              jump\t// in\n            tag_302:\n                /* \"#utility.yul\":13708:13782   */\n              swap2\n              pop\n                /* \"#utility.yul\":13791:13884   */\n              tag_303\n                /* \"#utility.yul\":13880:13883   */\n              dup3\n                /* \"#utility.yul\":13791:13884   */\n              tag_152\n              jump\t// in\n            tag_303:\n                /* \"#utility.yul\":13909:13911   */\n              0x40\n                /* \"#utility.yul\":13904:13907   */\n              dup3\n                /* \"#utility.yul\":13900:13912   */\n              add\n                /* \"#utility.yul\":13893:13912   */\n              swap1\n              pop\n                /* \"#utility.yul\":13552:13918   */\n              swap2\n              swap1\n              pop\n              jump\t// out\n                /* \"#utility.yul\":13924:14343   */\n            tag_88:\n                /* \"#utility.yul\":14090:14094   */\n              0x00\n                /* \"#utility.yul\":14128:14130   */\n              0x20\n                /* \"#utility.yul\":14117:14126   */\n              dup3\n                /* \"#utility.yul\":14113:14131   */\n              add\n                /* \"#utility.yul\":14105:14131   */\n              swap1\n              pop\n                /* \"#utility.yul\":14177:14186   */\n              dup2\n                /* \"#utility.yul\":14171:14175   */\n              dup2\n                /* \"#utility.yul\":14167:14187   */\n              sub\n                /* \"#utility.yul\":14163:14164   */\n              0x00\n                /* \"#utility.yul\":14152:14161   */\n              dup4\n                /* \"#utility.yul\":14148:14165   */\n              add\n                /* \"#utility.yul\":14141:14188   */\n              mstore\n                /* \"#utility.yul\":14205:14336   */\n              tag_305\n                /* \"#utility.yul\":14331:14335   */\n              dup2\n                /* \"#utility.yul\":14205:14336   */\n              tag_153\n              jump\t// in\n            tag_305:\n                /* \"#utility.yul\":14197:14336   */\n              swap1\n              pop\n                /* \"#utility.yul\":13924:14343   */\n              swap2\n              swap1\n              pop\n              jump\t// out\n                /* \"#utility.yul\":14349:14574   */\n            tag_154:\n                /* \"#utility.yul\":14489:14523   */\n              0x636f6e747269627574696f6e2063616e206f6e6c79206265206d616465206f6e\n                /* \"#utility.yul\":14485:14486   */\n              0x00\n                /* \"#utility.yul\":14477:14483   */\n              dup3\n                /* \"#utility.yul\":14473:14487   */\n              add\n                /* \"#utility.yul\":14466:14524   */\n              mstore\n                /* \"#utility.yul\":14558:14566   */\n              0x652074696d650000000000000000000000000000000000000000000000000000\n                /* \"#utility.yul\":14553:14555   */\n              0x20\n                /* \"#utility.yul\":14545:14551   */\n              dup3\n                /* \"#utility.yul\":14541:14556   */\n              add\n                /* \"#utility.yul\":14534:14567   */\n              mstore\n                /* \"#utility.yul\":14349:14574   */\n              pop\n              jump\t// out\n                /* \"#utility.yul\":14580:14946   */\n            tag_155:\n                /* \"#utility.yul\":14722:14725   */\n              0x00\n                /* \"#utility.yul\":14743:14810   */\n              tag_308\n                /* \"#utility.yul\":14807:14809   */\n              0x26\n                /* \"#utility.yul\":14802:14805   */\n              dup4\n                /* \"#utility.yul\":14743:14810   */\n              tag_139\n              jump\t// in\n            tag_308:\n                /* \"#utility.yul\":14736:14810   */\n              swap2\n              pop\n                /* \"#utility.yul\":14819:14912   */\n              tag_309\n                /* \"#utility.yul\":14908:14911   */\n              dup3\n                /* \"#utility.yul\":14819:14912   */\n              tag_154\n              jump\t// in\n            tag_309:\n                /* \"#utility.yul\":14937:14939   */\n              0x40\n                /* \"#utility.yul\":14932:14935   */\n              dup3\n                /* \"#utility.yul\":14928:14940   */\n              add\n                /* \"#utility.yul\":14921:14940   */\n              swap1\n              pop\n                /* \"#utility.yul\":14580:14946   */\n              swap2\n              swap1\n              pop\n              jump\t// out\n                /* \"#utility.yul\":14952:15371   */\n            tag_91:\n                /* \"#utility.yul\":15118:15122   */\n              0x00\n                /* \"#utility.yul\":15156:15158   */\n              0x20\n                /* \"#utility.yul\":15145:15154   */\n              dup3\n                /* \"#utility.yul\":15141:15159   */\n              add\n                /* \"#utility.yul\":15133:15159   */\n              swap1\n              pop\n                /* \"#utility.yul\":15205:15214   */\n              dup2\n                /* \"#utility.yul\":15199:15203   */\n              dup2\n                /* \"#utility.yul\":15195:15215   */\n              sub\n                /* \"#utility.yul\":15191:15192   */\n              0x00\n                /* \"#utility.yul\":15180:15189   */\n              dup4\n                /* \"#utility.yul\":15176:15193   */\n              add\n                /* \"#utility.yul\":15169:15216   */\n              mstore\n                /* \"#utility.yul\":15233:15364   */\n              tag_311\n                /* \"#utility.yul\":15359:15363   */\n              dup2\n                /* \"#utility.yul\":15233:15364   */\n              tag_155\n              jump\t// in\n            tag_311:\n                /* \"#utility.yul\":15225:15364   */\n              swap1\n              pop\n                /* \"#utility.yul\":14952:15371   */\n              swap2\n              swap1\n              pop\n              jump\t// out\n                /* \"#utility.yul\":15377:15603   */\n            tag_156:\n                /* \"#utility.yul\":15517:15551   */\n              0x4f6e6c7920636f6e7472696275746572732063616e2075736520746869732066\n                /* \"#utility.yul\":15513:15514   */\n              0x00\n                /* \"#utility.yul\":15505:15511   */\n              dup3\n                /* \"#utility.yul\":15501:15515   */\n              add\n                /* \"#utility.yul\":15494:15552   */\n              mstore\n                /* \"#utility.yul\":15586:15595   */\n              0x756e6374696f6e00000000000000000000000000000000000000000000000000\n                /* \"#utility.yul\":15581:15583   */\n              0x20\n                /* \"#utility.yul\":15573:15579   */\n              dup3\n                /* \"#utility.yul\":15569:15584   */\n              add\n                /* \"#utility.yul\":15562:15596   */\n              mstore\n                /* \"#utility.yul\":15377:15603   */\n              pop\n              jump\t// out\n                /* \"#utility.yul\":15609:15975   */\n            tag_157:\n                /* \"#utility.yul\":15751:15754   */\n              0x00\n                /* \"#utility.yul\":15772:15839   */\n              tag_314\n                /* \"#utility.yul\":15836:15838   */\n              0x27\n                /* \"#utility.yul\":15831:15834   */\n              dup4\n                /* \"#utility.yul\":15772:15839   */\n              tag_139\n              jump\t// in\n            tag_314:\n                /* \"#utility.yul\":15765:15839   */\n              swap2\n              pop\n                /* \"#utility.yul\":15848:15941   */\n              tag_315\n                /* \"#utility.yul\":15937:15940   */\n              dup3\n                /* \"#utility.yul\":15848:15941   */\n              tag_156\n              jump\t// in\n            tag_315:\n                /* \"#utility.yul\":15966:15968   */\n              0x40\n                /* \"#utility.yul\":15961:15964   */\n              dup3\n                /* \"#utility.yul\":15957:15969   */\n              add\n                /* \"#utility.yul\":15950:15969   */\n              swap1\n              pop\n                /* \"#utility.yul\":15609:15975   */\n              swap2\n              swap1\n              pop\n              jump\t// out\n                /* \"#utility.yul\":15981:16400   */\n            tag_96:\n                /* \"#utility.yul\":16147:16151   */\n              0x00\n                /* \"#utility.yul\":16185:16187   */\n              0x20\n                /* \"#utility.yul\":16174:16183   */\n              dup3\n                /* \"#utility.yul\":16170:16188   */\n              add\n                /* \"#utility.yul\":16162:16188   */\n              swap1\n              pop\n                /* \"#utility.yul\":16234:16243   */\n              dup2\n                /* \"#utility.yul\":16228:16232   */\n              dup2\n                /* \"#utility.yul\":16224:16244   */\n              sub\n                /* \"#utility.yul\":16220:16221   */\n              0x00\n                /* \"#utility.yul\":16209:16218   */\n              dup4\n                /* \"#utility.yul\":16205:16222   */\n              add\n                /* \"#utility.yul\":16198:16245   */\n              mstore\n                /* \"#utility.yul\":16262:16393   */\n              tag_317\n                /* \"#utility.yul\":16388:16392   */\n              dup2\n                /* \"#utility.yul\":16262:16393   */\n              tag_157\n              jump\t// in\n            tag_317:\n                /* \"#utility.yul\":16254:16393   */\n              swap1\n              pop\n                /* \"#utility.yul\":15981:16400   */\n              swap2\n              swap1\n              pop\n              jump\t// out\n                /* \"#utility.yul\":16406:16578   */\n            tag_158:\n                /* \"#utility.yul\":16546:16570   */\n              0x596f75206861766520616c726561647920766f74656400000000000000000000\n                /* \"#utility.yul\":16542:16543   */\n              0x00\n                /* \"#utility.yul\":16534:16540   */\n              dup3\n                /* \"#utility.yul\":16530:16544   */\n              add\n                /* \"#utility.yul\":16523:16571   */\n              mstore\n                /* \"#utility.yul\":16406:16578   */\n              pop\n              jump\t// out\n                /* \"#utility.yul\":16584:16950   */\n            tag_159:\n                /* \"#utility.yul\":16726:16729   */\n              0x00\n                /* \"#utility.yul\":16747:16814   */\n              tag_320\n                /* \"#utility.yul\":16811:16813   */\n              0x16\n                /* \"#utility.yul\":16806:16809   */\n              dup4\n                /* \"#utility.yul\":16747:16814   */\n              tag_139\n              jump\t// in\n            tag_320:\n                /* \"#utility.yul\":16740:16814   */\n              swap2\n              pop\n                /* \"#utility.yul\":16823:16916   */\n              tag_321\n                /* \"#utility.yul\":16912:16915   */\n              dup3\n                /* \"#utility.yul\":16823:16916   */\n              tag_158\n              jump\t// in\n            tag_321:\n                /* \"#utility.yul\":16941:16943   */\n              0x20\n                /* \"#utility.yul\":16936:16939   */\n              dup3\n                /* \"#utility.yul\":16932:16944   */\n              add\n                /* \"#utility.yul\":16925:16944   */\n              swap1\n              pop\n                /* \"#utility.yul\":16584:16950   */\n              swap2\n              swap1\n              pop\n              jump\t// out\n                /* \"#utility.yul\":16956:17375   */\n            tag_99:\n                /* \"#utility.yul\":17122:17126   */\n              0x00\n                /* \"#utility.yul\":17160:17162   */\n              0x20\n                /* \"#utility.yul\":17149:17158   */\n              dup3\n                /* \"#utility.yul\":17145:17163   */\n              add\n                /* \"#utility.yul\":17137:17163   */\n              swap1\n              pop\n                /* \"#utility.yul\":17209:17218   */\n              dup2\n                /* \"#utility.yul\":17203:17207   */\n              dup2\n                /* \"#utility.yul\":17199:17219   */\n              sub\n                /* \"#utility.yul\":17195:17196   */\n              0x00\n                /* \"#utility.yul\":17184:17193   */\n              dup4\n                /* \"#utility.yul\":17180:17197   */\n              add\n                /* \"#utility.yul\":17173:17220   */\n              mstore\n                /* \"#utility.yul\":17237:17368   */\n              tag_323\n                /* \"#utility.yul\":17363:17367   */\n              dup2\n                /* \"#utility.yul\":17237:17368   */\n              tag_159\n              jump\t// in\n            tag_323:\n                /* \"#utility.yul\":17229:17368   */\n              swap1\n              pop\n                /* \"#utility.yul\":16956:17375   */\n              swap2\n              swap1\n              pop\n              jump\t// out\n\n            auxdata: 0xa2646970667358221220c308390ca0059484d31b69c35383e20e8aa766747acf463e4de5da5631cd023964736f6c634300080a0033\n        }\n    }\n\n    auxdata: 0xa2646970667358221220e0dfe95975722fc200fde1337ff5da5f4818b7be39466aecbde58bc970d83e6964736f6c634300080a0033\n}\n","bytecode":{"linkReferences":{},"object":"608060405234801561001057600080fd5b50611934806100206000396000f3fe608060405234801561001057600080fd5b50600436106100365760003560e01c8063236b8e3a1461003b578063a3303a7514610059575b600080fd5b610043610075565b60405161005091906102a1565b60405180910390f35b610073600480360381019061006e91906102fe565b610103565b005b606060008054806020026020016040519081016040528092919081815260200182805480156100f957602002820191906000526020600020905b8160009054906101000a900473ffffffffffffffffffffffffffffffffffffffff1673ffffffffffffffffffffffffffffffffffffffff16815260200190600101908083116100af575b5050505050905090565b60003382604051610113906101a4565b61011e929190610349565b604051809103906000f08015801561013a573d6000803e3d6000fd5b5090506000819080600181540180825580915050600190039060005260206000200160009091909190916101000a81548173ffffffffffffffffffffffffffffffffffffffff021916908373ffffffffffffffffffffffffffffffffffffffff1602179055505050565b61158c8061037383390190565b600081519050919050565b600082825260208201905092915050565b6000819050602082019050919050565b600073ffffffffffffffffffffffffffffffffffffffff82169050919050565b6000610208826101dd565b9050919050565b610218816101fd565b82525050565b600061022a838361020f565b60208301905092915050565b6000602082019050919050565b600061024e826101b1565b61025881856101bc565b9350610263836101cd565b8060005b8381101561029457815161027b888261021e565b975061028683610236565b925050600181019050610267565b5085935050505092915050565b600060208201905081810360008301526102bb8184610243565b905092915050565b600080fd5b6000819050919050565b6102db816102c8565b81146102e657600080fd5b50565b6000813590506102f8816102d2565b92915050565b600060208284031215610314576103136102c3565b5b6000610322848285016102e9565b91505092915050565b610334816101fd565b82525050565b610343816102c8565b82525050565b600060408201905061035e600083018561032b565b61036b602083018461033a565b939250505056fe60806040523480156200001157600080fd5b506040516200158c3803806200158c83398181016040528101906200003791906200013b565b816000806101000a81548173ffffffffffffffffffffffffffffffffffffffff021916908373ffffffffffffffffffffffffffffffffffffffff1602179055508060028190555060006004819055506000600581905550505062000182565b600080fd5b600073ffffffffffffffffffffffffffffffffffffffff82169050919050565b6000620000c8826200009b565b9050919050565b620000da81620000bb565b8114620000e657600080fd5b50565b600081519050620000fa81620000cf565b92915050565b6000819050919050565b620001158162000100565b81146200012157600080fd5b50565b60008151905062000135816200010a565b92915050565b6000806040838503121562000155576200015462000096565b5b60006200016585828601620000e9565b9250506020620001788582860162000124565b9150509250929050565b6113fa80620001926000396000f3fe6080604052600436106100865760003560e01c8063481c6a7511610059578063481c6a751461013c57806381d12c5814610167578063aaffadf3146101a8578063d7bb99ba146101d3578063d7d1bbdb146101dd57610086565b8063034410061461008b5780630a144391146100a75780631b16bb5c146100e45780634051ddac1461010d575b600080fd5b6100a560048036038101906100a09190610a86565b610206565b005b3480156100b357600080fd5b506100ce60048036038101906100c99190610b11565b6103e1565b6040516100db9190610b59565b60405180910390f35b3480156100f057600080fd5b5061010b60048036038101906101069190610cf8565b610401565b005b34801561011957600080fd5b50610122610552565b604051610133959493929190610d85565b60405180910390f35b34801561014857600080fd5b50610151610597565b60405161015e9190610dd8565b60405180910390f35b34801561017357600080fd5b5061018e60048036038101906101899190610a86565b6105bb565b60405161019f959493929190610e8a565b60405180910390f35b3480156101b457600080fd5b506101bd6106a6565b6040516101ca9190610ee4565b60405180910390f35b6101db6106ac565b005b3480156101e957600080fd5b5061020460048036038101906101ff9190610a86565b6107ef565b005b60008054906101000a900473ffffffffffffffffffffffffffffffffffffffff1673ffffffffffffffffffffffffffffffffffffffff163373ffffffffffffffffffffffffffffffffffffffff1614610294576040517f08c379a000000000000000000000000000000000000000000000000000000000815260040161028b90610f71565b60405180910390fd5b60006003600083815260200190815260200160002090508060030160009054906101000a900460ff16156102fd576040517f08c379a00000000000000000000000000000000000000000000000000000000081526004016102f490610fdd565b60405180910390fd5b600260055461030c919061105b565b816004015411610351576040517f08c379a0000000000000000000000000000000000000000000000000000000008152600401610348906110d8565b60405180910390fd5b60018160030160006101000a81548160ff0219169083151502179055508060010160009054906101000a900473ffffffffffffffffffffffffffffffffffffffff1673ffffffffffffffffffffffffffffffffffffffff166108fc82600201549081150290604051600060405180830381858888f193505050501580156103dc573d6000803e3d6000fd5b505050565b60016020528060005260406000206000915054906101000a900460ff1681565b60008054906101000a900473ffffffffffffffffffffffffffffffffffffffff1673ffffffffffffffffffffffffffffffffffffffff163373ffffffffffffffffffffffffffffffffffffffff161461048f576040517f08c379a000000000000000000000000000000000000000000000000000000000815260040161048690610f71565b60405180910390fd5b60006003600060045481526020019081526020016000209050838160000190805190602001906104c0929190610999565b50828160010160006101000a81548173ffffffffffffffffffffffffffffffffffffffff021916908373ffffffffffffffffffffffffffffffffffffffff16021790555081816002018190555060008160030160006101000a81548160ff0219169083151502179055506000816004018190555060046000815480929190610547906110f8565b919050555050505050565b60008060008060008060009054906101000a900473ffffffffffffffffffffffffffffffffffffffff1660025460045460055447945094509450945094509091929394565b60008054906101000a900473ffffffffffffffffffffffffffffffffffffffff1681565b60036020528060005260406000206000915090508060000180546105de90611170565b80601f016020809104026020016040519081016040528092919081815260200182805461060a90611170565b80156106575780601f1061062c57610100808354040283529160200191610657565b820191906000526020600020905b81548152906001019060200180831161063a57829003601f168201915b5050505050908060010160009054906101000a900473ffffffffffffffffffffffffffffffffffffffff16908060020154908060030160009054906101000a900460ff16908060040154905085565b60025481565b6002543410156106f1576040517f08c379a00000000000000000000000000000000000000000000000000000000081526004016106e890611214565b60405180910390fd5b600160003373ffffffffffffffffffffffffffffffffffffffff1673ffffffffffffffffffffffffffffffffffffffff16815260200190815260200160002060009054906101000a900460ff161561077e576040517f08c379a0000000000000000000000000000000000000000000000000000000008152600401610775906112a6565b60405180910390fd5b60018060003373ffffffffffffffffffffffffffffffffffffffff1673ffffffffffffffffffffffffffffffffffffffff16815260200190815260200160002060006101000a81548160ff021916908315150217905550600560008154809291906107e8906110f8565b9190505550565b6000600360008381526020019081526020016000209050600160003373ffffffffffffffffffffffffffffffffffffffff1673ffffffffffffffffffffffffffffffffffffffff16815260200190815260200160002060009054906101000a900460ff16610892576040517f08c379a000000000000000000000000000000000000000000000000000000000815260040161088990611338565b60405180910390fd5b8060050160003373ffffffffffffffffffffffffffffffffffffffff1673ffffffffffffffffffffffffffffffffffffffff16815260200190815260200160002060009054906101000a900460ff1615610921576040517f08c379a0000000000000000000000000000000000000000000000000000000008152600401610918906113a4565b60405180910390fd5b806004016000815480929190610936906110f8565b919050555060018160050160003373ffffffffffffffffffffffffffffffffffffffff1673ffffffffffffffffffffffffffffffffffffffff16815260200190815260200160002060006101000a81548160ff0219169083151502179055505050565b8280546109a590611170565b90600052602060002090601f0160209004810192826109c75760008555610a0e565b82601f106109e057805160ff1916838001178555610a0e565b82800160010185558215610a0e579182015b82811115610a0d5782518255916020019190600101906109f2565b5b509050610a1b9190610a1f565b5090565b5b80821115610a38576000816000905550600101610a20565b5090565b6000604051905090565b600080fd5b600080fd5b6000819050919050565b610a6381610a50565b8114610a6e57600080fd5b50565b600081359050610a8081610a5a565b92915050565b600060208284031215610a9c57610a9b610a46565b5b6000610aaa84828501610a71565b91505092915050565b600073ffffffffffffffffffffffffffffffffffffffff82169050919050565b6000610ade82610ab3565b9050919050565b610aee81610ad3565b8114610af957600080fd5b50565b600081359050610b0b81610ae5565b92915050565b600060208284031215610b2757610b26610a46565b5b6000610b3584828501610afc565b91505092915050565b60008115159050919050565b610b5381610b3e565b82525050565b6000602082019050610b6e6000830184610b4a565b92915050565b600080fd5b600080fd5b6000601f19601f8301169050919050565b7f4e487b7100000000000000000000000000000000000000000000000000000000600052604160045260246000fd5b610bc782610b7e565b810181811067ffffffffffffffff82111715610be657610be5610b8f565b5b80604052505050565b6000610bf9610a3c565b9050610c058282610bbe565b919050565b600067ffffffffffffffff821115610c2557610c24610b8f565b5b610c2e82610b7e565b9050602081019050919050565b82818337600083830152505050565b6000610c5d610c5884610c0a565b610bef565b905082815260208101848484011115610c7957610c78610b79565b5b610c84848285610c3b565b509392505050565b600082601f830112610ca157610ca0610b74565b5b8135610cb1848260208601610c4a565b91505092915050565b6000610cc582610ab3565b9050919050565b610cd581610cba565b8114610ce057600080fd5b50565b600081359050610cf281610ccc565b92915050565b600080600060608486031215610d1157610d10610a46565b5b600084013567ffffffffffffffff811115610d2f57610d2e610a4b565b5b610d3b86828701610c8c565b9350506020610d4c86828701610ce3565b9250506040610d5d86828701610a71565b9150509250925092565b610d7081610ad3565b82525050565b610d7f81610a50565b82525050565b600060a082019050610d9a6000830188610d67565b610da76020830187610d76565b610db46040830186610d76565b610dc16060830185610d76565b610dce6080830184610d76565b9695505050505050565b6000602082019050610ded6000830184610d67565b92915050565b600081519050919050565b600082825260208201905092915050565b60005b83811015610e2d578082015181840152602081019050610e12565b83811115610e3c576000848401525b50505050565b6000610e4d82610df3565b610e578185610dfe565b9350610e67818560208601610e0f565b610e7081610b7e565b840191505092915050565b610e8481610cba565b82525050565b600060a0820190508181036000830152610ea48188610e42565b9050610eb36020830187610e7b565b610ec06040830186610d76565b610ecd6060830185610b4a565b610eda6080830184610d76565b9695505050505050565b6000602082019050610ef96000830184610d76565b92915050565b7f4f6e6c79206d616e616765722063616e2075736520746869732066756e63746960008201527f6f6e000000000000000000000000000000000000000000000000000000000000602082015250565b6000610f5b602283610dfe565b9150610f6682610eff565b604082019050919050565b60006020820190508181036000830152610f8a81610f4e565b9050919050565b7f7265717565737420616c72656164792066696e616c697a656400000000000000600082015250565b6000610fc7601983610dfe565b9150610fd282610f91565b602082019050919050565b60006020820190508181036000830152610ff681610fba565b9050919050565b7f4e487b7100000000000000000000000000000000000000000000000000000000600052601260045260246000fd5b7f4e487b7100000000000000000000000000000000000000000000000000000000600052601160045260246000fd5b600061106682610a50565b915061107183610a50565b92508261108157611080610ffd565b5b828204905092915050565b7f4e6f7420656e6f75676820706f737469766520766f7465730000000000000000600082015250565b60006110c2601883610dfe565b91506110cd8261108c565b602082019050919050565b600060208201905081810360008301526110f1816110b5565b9050919050565b600061110382610a50565b91507fffffffffffffffffffffffffffffffffffffffffffffffffffffffffffffffff8214156111365761113561102c565b5b600182019050919050565b7f4e487b7100000000000000000000000000000000000000000000000000000000600052602260045260246000fd5b6000600282049050600182168061118857607f821691505b6020821081141561119c5761119b611141565b5b50919050565b7f636f6e747269627574696f6e2073686f756c642062652067726561746572207460008201527f68616e206d696e696d756d20636f6e747269627574696f6e0000000000000000602082015250565b60006111fe603883610dfe565b9150611209826111a2565b604082019050919050565b6000602082019050818103600083015261122d816111f1565b9050919050565b7f636f6e747269627574696f6e2063616e206f6e6c79206265206d616465206f6e60008201527f652074696d650000000000000000000000000000000000000000000000000000602082015250565b6000611290602683610dfe565b915061129b82611234565b604082019050919050565b600060208201905081810360008301526112bf81611283565b9050919050565b7f4f6e6c7920636f6e7472696275746572732063616e207573652074686973206660008201527f756e6374696f6e00000000000000000000000000000000000000000000000000602082015250565b6000611322602783610dfe565b915061132d826112c6565b604082019050919050565b6000602082019050818103600083015261135181611315565b9050919050565b7f596f75206861766520616c726561647920766f74656400000000000000000000600082015250565b600061138e601683610dfe565b915061139982611358565b602082019050919050565b600060208201905081810360008301526113bd81611381565b905091905056fea2646970667358221220c308390ca0059484d31b69c35383e20e8aa766747acf463e4de5da5631cd023964736f6c634300080a0033a2646970667358221220e0dfe95975722fc200fde1337ff5da5f4818b7be39466aecbde58bc970d83e6964736f6c634300080a0033","opcodes":"PUSH1 0x80 PUSH1 0x40 MSTORE CALLVALUE DUP1 ISZERO PUSH2 0x10 JUMPI PUSH1 0x0 DUP1 REVERT JUMPDEST POP PUSH2 0x1934 DUP1 PUSH2 0x20 PUSH1 0x0 CODECOPY PUSH1 0x0 RETURN INVALID PUSH1 0x80 PUSH1 0x40 MSTORE CALLVALUE DUP1 ISZERO PUSH2 0x10 JUMPI PUSH1 0x0 DUP1 REVERT JUMPDEST POP PUSH1 0x4 CALLDATASIZE LT PUSH2 0x36 JUMPI PUSH1 0x0 CALLDATALOAD PUSH1 0xE0 SHR DUP1 PUSH4 0x236B8E3A EQ PUSH2 0x3B JUMPI DUP1 PUSH4 0xA3303A75 EQ PUSH2 0x59 JUMPI JUMPDEST PUSH1 0x0 DUP1 REVERT JUMPDEST PUSH2 0x43 PUSH2 0x75 JUMP JUMPDEST PUSH1 0x40 MLOAD PUSH2 0x50 SWAP2 SWAP1 PUSH2 0x2A1 JUMP JUMPDEST PUSH1 0x40 MLOAD DUP1 SWAP2 SUB SWAP1 RETURN JUMPDEST PUSH2 0x73 PUSH1 0x4 DUP1 CALLDATASIZE SUB DUP2 ADD SWAP1 PUSH2 0x6E SWAP2 SWAP1 PUSH2 0x2FE JUMP JUMPDEST PUSH2 0x103 JUMP JUMPDEST STOP JUMPDEST PUSH1 0x60 PUSH1 0x0 DUP1 SLOAD DUP1 PUSH1 0x20 MUL PUSH1 0x20 ADD PUSH1 0x40 MLOAD SWAP1 DUP2 ADD PUSH1 0x40 MSTORE DUP1 SWAP3 SWAP2 SWAP1 DUP2 DUP2 MSTORE PUSH1 0x20 ADD DUP3 DUP1 SLOAD DUP1 ISZERO PUSH2 0xF9 JUMPI PUSH1 0x20 MUL DUP3 ADD SWAP2 SWAP1 PUSH1 0x0 MSTORE PUSH1 0x20 PUSH1 0x0 KECCAK256 SWAP1 JUMPDEST DUP2 PUSH1 0x0 SWAP1 SLOAD SWAP1 PUSH2 0x100 EXP SWAP1 DIV PUSH20 0xFFFFFFFFFFFFFFFFFFFFFFFFFFFFFFFFFFFFFFFF AND PUSH20 0xFFFFFFFFFFFFFFFFFFFFFFFFFFFFFFFFFFFFFFFF AND DUP2 MSTORE PUSH1 0x20 ADD SWAP1 PUSH1 0x1 ADD SWAP1 DUP1 DUP4 GT PUSH2 0xAF JUMPI JUMPDEST POP POP POP POP POP SWAP1 POP SWAP1 JUMP JUMPDEST PUSH1 0x0 CALLER DUP3 PUSH1 0x40 MLOAD PUSH2 0x113 SWAP1 PUSH2 0x1A4 JUMP JUMPDEST PUSH2 0x11E SWAP3 SWAP2 SWAP1 PUSH2 0x349 JUMP JUMPDEST PUSH1 0x40 MLOAD DUP1 SWAP2 SUB SWAP1 PUSH1 0x0 CREATE DUP1 ISZERO DUP1 ISZERO PUSH2 0x13A JUMPI RETURNDATASIZE PUSH1 0x0 DUP1 RETURNDATACOPY RETURNDATASIZE PUSH1 0x0 REVERT JUMPDEST POP SWAP1 POP PUSH1 0x0 DUP2 SWAP1 DUP1 PUSH1 0x1 DUP2 SLOAD ADD DUP1 DUP3 SSTORE DUP1 SWAP2 POP POP PUSH1 0x1 SWAP1 SUB SWAP1 PUSH1 0x0 MSTORE PUSH1 0x20 PUSH1 0x0 KECCAK256 ADD PUSH1 0x0 SWAP1 SWAP2 SWAP1 SWAP2 SWAP1 SWAP2 PUSH2 0x100 EXP DUP2 SLOAD DUP2 PUSH20 0xFFFFFFFFFFFFFFFFFFFFFFFFFFFFFFFFFFFFFFFF MUL NOT AND SWAP1 DUP4 PUSH20 0xFFFFFFFFFFFFFFFFFFFFFFFFFFFFFFFFFFFFFFFF AND MUL OR SWAP1 SSTORE POP POP POP JUMP JUMPDEST PUSH2 0x158C DUP1 PUSH2 0x373 DUP4 CODECOPY ADD SWAP1 JUMP JUMPDEST PUSH1 0x0 DUP2 MLOAD SWAP1 POP SWAP2 SWAP1 POP JUMP JUMPDEST PUSH1 0x0 DUP3 DUP3 MSTORE PUSH1 0x20 DUP3 ADD SWAP1 POP SWAP3 SWAP2 POP POP JUMP JUMPDEST PUSH1 0x0 DUP2 SWAP1 POP PUSH1 0x20 DUP3 ADD SWAP1 POP SWAP2 SWAP1 POP JUMP JUMPDEST PUSH1 0x0 PUSH20 0xFFFFFFFFFFFFFFFFFFFFFFFFFFFFFFFFFFFFFFFF DUP3 AND SWAP1 POP SWAP2 SWAP1 POP JUMP JUMPDEST PUSH1 0x0 PUSH2 0x208 DUP3 PUSH2 0x1DD JUMP JUMPDEST SWAP1 POP SWAP2 SWAP1 POP JUMP JUMPDEST PUSH2 0x218 DUP2 PUSH2 0x1FD JUMP JUMPDEST DUP3 MSTORE POP POP JUMP JUMPDEST PUSH1 0x0 PUSH2 0x22A DUP4 DUP4 PUSH2 0x20F JUMP JUMPDEST PUSH1 0x20 DUP4 ADD SWAP1 POP SWAP3 SWAP2 POP POP JUMP JUMPDEST PUSH1 0x0 PUSH1 0x20 DUP3 ADD SWAP1 POP SWAP2 SWAP1 POP JUMP JUMPDEST PUSH1 0x0 PUSH2 0x24E DUP3 PUSH2 0x1B1 JUMP JUMPDEST PUSH2 0x258 DUP2 DUP6 PUSH2 0x1BC JUMP JUMPDEST SWAP4 POP PUSH2 0x263 DUP4 PUSH2 0x1CD JUMP JUMPDEST DUP1 PUSH1 0x0 JUMPDEST DUP4 DUP2 LT ISZERO PUSH2 0x294 JUMPI DUP2 MLOAD PUSH2 0x27B DUP9 DUP3 PUSH2 0x21E JUMP JUMPDEST SWAP8 POP PUSH2 0x286 DUP4 PUSH2 0x236 JUMP JUMPDEST SWAP3 POP POP PUSH1 0x1 DUP2 ADD SWAP1 POP PUSH2 0x267 JUMP JUMPDEST POP DUP6 SWAP4 POP POP POP POP SWAP3 SWAP2 POP POP JUMP JUMPDEST PUSH1 0x0 PUSH1 0x20 DUP3 ADD SWAP1 POP DUP2 DUP2 SUB PUSH1 0x0 DUP4 ADD MSTORE PUSH2 0x2BB DUP2 DUP5 PUSH2 0x243 JUMP JUMPDEST SWAP1 POP SWAP3 SWAP2 POP POP JUMP JUMPDEST PUSH1 0x0 DUP1 REVERT JUMPDEST PUSH1 0x0 DUP2 SWAP1 POP SWAP2 SWAP1 POP JUMP JUMPDEST PUSH2 0x2DB DUP2 PUSH2 0x2C8 JUMP JUMPDEST DUP2 EQ PUSH2 0x2E6 JUMPI PUSH1 0x0 DUP1 REVERT JUMPDEST POP JUMP JUMPDEST PUSH1 0x0 DUP2 CALLDATALOAD SWAP1 POP PUSH2 0x2F8 DUP2 PUSH2 0x2D2 JUMP JUMPDEST SWAP3 SWAP2 POP POP JUMP JUMPDEST PUSH1 0x0 PUSH1 0x20 DUP3 DUP5 SUB SLT ISZERO PUSH2 0x314 JUMPI PUSH2 0x313 PUSH2 0x2C3 JUMP JUMPDEST JUMPDEST PUSH1 0x0 PUSH2 0x322 DUP5 DUP3 DUP6 ADD PUSH2 0x2E9 JUMP JUMPDEST SWAP2 POP POP SWAP3 SWAP2 POP POP JUMP JUMPDEST PUSH2 0x334 DUP2 PUSH2 0x1FD JUMP JUMPDEST DUP3 MSTORE POP POP JUMP JUMPDEST PUSH2 0x343 DUP2 PUSH2 0x2C8 JUMP JUMPDEST DUP3 MSTORE POP POP JUMP JUMPDEST PUSH1 0x0 PUSH1 0x40 DUP3 ADD SWAP1 POP PUSH2 0x35E PUSH1 0x0 DUP4 ADD DUP6 PUSH2 0x32B JUMP JUMPDEST PUSH2 0x36B PUSH1 0x20 DUP4 ADD DUP5 PUSH2 0x33A JUMP JUMPDEST SWAP4 SWAP3 POP POP POP JUMP INVALID PUSH1 0x80 PUSH1 0x40 MSTORE CALLVALUE DUP1 ISZERO PUSH3 0x11 JUMPI PUSH1 0x0 DUP1 REVERT JUMPDEST POP PUSH1 0x40 MLOAD PUSH3 0x158C CODESIZE SUB DUP1 PUSH3 0x158C DUP4 CODECOPY DUP2 DUP2 ADD PUSH1 0x40 MSTORE DUP2 ADD SWAP1 PUSH3 0x37 SWAP2 SWAP1 PUSH3 0x13B JUMP JUMPDEST DUP2 PUSH1 0x0 DUP1 PUSH2 0x100 EXP DUP2 SLOAD DUP2 PUSH20 0xFFFFFFFFFFFFFFFFFFFFFFFFFFFFFFFFFFFFFFFF MUL NOT AND SWAP1 DUP4 PUSH20 0xFFFFFFFFFFFFFFFFFFFFFFFFFFFFFFFFFFFFFFFF AND MUL OR SWAP1 SSTORE POP DUP1 PUSH1 0x2 DUP2 SWAP1 SSTORE POP PUSH1 0x0 PUSH1 0x4 DUP2 SWAP1 SSTORE POP PUSH1 0x0 PUSH1 0x5 DUP2 SWAP1 SSTORE POP POP POP PUSH3 0x182 JUMP JUMPDEST PUSH1 0x0 DUP1 REVERT JUMPDEST PUSH1 0x0 PUSH20 0xFFFFFFFFFFFFFFFFFFFFFFFFFFFFFFFFFFFFFFFF DUP3 AND SWAP1 POP SWAP2 SWAP1 POP JUMP JUMPDEST PUSH1 0x0 PUSH3 0xC8 DUP3 PUSH3 0x9B JUMP JUMPDEST SWAP1 POP SWAP2 SWAP1 POP JUMP JUMPDEST PUSH3 0xDA DUP2 PUSH3 0xBB JUMP JUMPDEST DUP2 EQ PUSH3 0xE6 JUMPI PUSH1 0x0 DUP1 REVERT JUMPDEST POP JUMP JUMPDEST PUSH1 0x0 DUP2 MLOAD SWAP1 POP PUSH3 0xFA DUP2 PUSH3 0xCF JUMP JUMPDEST SWAP3 SWAP2 POP POP JUMP JUMPDEST PUSH1 0x0 DUP2 SWAP1 POP SWAP2 SWAP1 POP JUMP JUMPDEST PUSH3 0x115 DUP2 PUSH3 0x100 JUMP JUMPDEST DUP2 EQ PUSH3 0x121 JUMPI PUSH1 0x0 DUP1 REVERT JUMPDEST POP JUMP JUMPDEST PUSH1 0x0 DUP2 MLOAD SWAP1 POP PUSH3 0x135 DUP2 PUSH3 0x10A JUMP JUMPDEST SWAP3 SWAP2 POP POP JUMP JUMPDEST PUSH1 0x0 DUP1 PUSH1 0x40 DUP4 DUP6 SUB SLT ISZERO PUSH3 0x155 JUMPI PUSH3 0x154 PUSH3 0x96 JUMP JUMPDEST JUMPDEST PUSH1 0x0 PUSH3 0x165 DUP6 DUP3 DUP7 ADD PUSH3 0xE9 JUMP JUMPDEST SWAP3 POP POP PUSH1 0x20 PUSH3 0x178 DUP6 DUP3 DUP7 ADD PUSH3 0x124 JUMP JUMPDEST SWAP2 POP POP SWAP3 POP SWAP3 SWAP1 POP JUMP JUMPDEST PUSH2 0x13FA DUP1 PUSH3 0x192 PUSH1 0x0 CODECOPY PUSH1 0x0 RETURN INVALID PUSH1 0x80 PUSH1 0x40 MSTORE PUSH1 0x4 CALLDATASIZE LT PUSH2 0x86 JUMPI PUSH1 0x0 CALLDATALOAD PUSH1 0xE0 SHR DUP1 PUSH4 0x481C6A75 GT PUSH2 0x59 JUMPI DUP1 PUSH4 0x481C6A75 EQ PUSH2 0x13C JUMPI DUP1 PUSH4 0x81D12C58 EQ PUSH2 0x167 JUMPI DUP1 PUSH4 0xAAFFADF3 EQ PUSH2 0x1A8 JUMPI DUP1 PUSH4 0xD7BB99BA EQ PUSH2 0x1D3 JUMPI DUP1 PUSH4 0xD7D1BBDB EQ PUSH2 0x1DD JUMPI PUSH2 0x86 JUMP JUMPDEST DUP1 PUSH4 0x3441006 EQ PUSH2 0x8B JUMPI DUP1 PUSH4 0xA144391 EQ PUSH2 0xA7 JUMPI DUP1 PUSH4 0x1B16BB5C EQ PUSH2 0xE4 JUMPI DUP1 PUSH4 0x4051DDAC EQ PUSH2 0x10D JUMPI JUMPDEST PUSH1 0x0 DUP1 REVERT JUMPDEST PUSH2 0xA5 PUSH1 0x4 DUP1 CALLDATASIZE SUB DUP2 ADD SWAP1 PUSH2 0xA0 SWAP2 SWAP1 PUSH2 0xA86 JUMP JUMPDEST PUSH2 0x206 JUMP JUMPDEST STOP JUMPDEST CALLVALUE DUP1 ISZERO PUSH2 0xB3 JUMPI PUSH1 0x0 DUP1 REVERT JUMPDEST POP PUSH2 0xCE PUSH1 0x4 DUP1 CALLDATASIZE SUB DUP2 ADD SWAP1 PUSH2 0xC9 SWAP2 SWAP1 PUSH2 0xB11 JUMP JUMPDEST PUSH2 0x3E1 JUMP JUMPDEST PUSH1 0x40 MLOAD PUSH2 0xDB SWAP2 SWAP1 PUSH2 0xB59 JUMP JUMPDEST PUSH1 0x40 MLOAD DUP1 SWAP2 SUB SWAP1 RETURN JUMPDEST CALLVALUE DUP1 ISZERO PUSH2 0xF0 JUMPI PUSH1 0x0 DUP1 REVERT JUMPDEST POP PUSH2 0x10B PUSH1 0x4 DUP1 CALLDATASIZE SUB DUP2 ADD SWAP1 PUSH2 0x106 SWAP2 SWAP1 PUSH2 0xCF8 JUMP JUMPDEST PUSH2 0x401 JUMP JUMPDEST STOP JUMPDEST CALLVALUE DUP1 ISZERO PUSH2 0x119 JUMPI PUSH1 0x0 DUP1 REVERT JUMPDEST POP PUSH2 0x122 PUSH2 0x552 JUMP JUMPDEST PUSH1 0x40 MLOAD PUSH2 0x133 SWAP6 SWAP5 SWAP4 SWAP3 SWAP2 SWAP1 PUSH2 0xD85 JUMP JUMPDEST PUSH1 0x40 MLOAD DUP1 SWAP2 SUB SWAP1 RETURN JUMPDEST CALLVALUE DUP1 ISZERO PUSH2 0x148 JUMPI PUSH1 0x0 DUP1 REVERT JUMPDEST POP PUSH2 0x151 PUSH2 0x597 JUMP JUMPDEST PUSH1 0x40 MLOAD PUSH2 0x15E SWAP2 SWAP1 PUSH2 0xDD8 JUMP JUMPDEST PUSH1 0x40 MLOAD DUP1 SWAP2 SUB SWAP1 RETURN JUMPDEST CALLVALUE DUP1 ISZERO PUSH2 0x173 JUMPI PUSH1 0x0 DUP1 REVERT JUMPDEST POP PUSH2 0x18E PUSH1 0x4 DUP1 CALLDATASIZE SUB DUP2 ADD SWAP1 PUSH2 0x189 SWAP2 SWAP1 PUSH2 0xA86 JUMP JUMPDEST PUSH2 0x5BB JUMP JUMPDEST PUSH1 0x40 MLOAD PUSH2 0x19F SWAP6 SWAP5 SWAP4 SWAP3 SWAP2 SWAP1 PUSH2 0xE8A JUMP JUMPDEST PUSH1 0x40 MLOAD DUP1 SWAP2 SUB SWAP1 RETURN JUMPDEST CALLVALUE DUP1 ISZERO PUSH2 0x1B4 JUMPI PUSH1 0x0 DUP1 REVERT JUMPDEST POP PUSH2 0x1BD PUSH2 0x6A6 JUMP JUMPDEST PUSH1 0x40 MLOAD PUSH2 0x1CA SWAP2 SWAP1 PUSH2 0xEE4 JUMP JUMPDEST PUSH1 0x40 MLOAD DUP1 SWAP2 SUB SWAP1 RETURN JUMPDEST PUSH2 0x1DB PUSH2 0x6AC JUMP JUMPDEST STOP JUMPDEST CALLVALUE DUP1 ISZERO PUSH2 0x1E9 JUMPI PUSH1 0x0 DUP1 REVERT JUMPDEST POP PUSH2 0x204 PUSH1 0x4 DUP1 CALLDATASIZE SUB DUP2 ADD SWAP1 PUSH2 0x1FF SWAP2 SWAP1 PUSH2 0xA86 JUMP JUMPDEST PUSH2 0x7EF JUMP JUMPDEST STOP JUMPDEST PUSH1 0x0 DUP1 SLOAD SWAP1 PUSH2 0x100 EXP SWAP1 DIV PUSH20 0xFFFFFFFFFFFFFFFFFFFFFFFFFFFFFFFFFFFFFFFF AND PUSH20 0xFFFFFFFFFFFFFFFFFFFFFFFFFFFFFFFFFFFFFFFF AND CALLER PUSH20 0xFFFFFFFFFFFFFFFFFFFFFFFFFFFFFFFFFFFFFFFF AND EQ PUSH2 0x294 JUMPI PUSH1 0x40 MLOAD PUSH32 0x8C379A000000000000000000000000000000000000000000000000000000000 DUP2 MSTORE PUSH1 0x4 ADD PUSH2 0x28B SWAP1 PUSH2 0xF71 JUMP JUMPDEST PUSH1 0x40 MLOAD DUP1 SWAP2 SUB SWAP1 REVERT JUMPDEST PUSH1 0x0 PUSH1 0x3 PUSH1 0x0 DUP4 DUP2 MSTORE PUSH1 0x20 ADD SWAP1 DUP2 MSTORE PUSH1 0x20 ADD PUSH1 0x0 KECCAK256 SWAP1 POP DUP1 PUSH1 0x3 ADD PUSH1 0x0 SWAP1 SLOAD SWAP1 PUSH2 0x100 EXP SWAP1 DIV PUSH1 0xFF AND ISZERO PUSH2 0x2FD JUMPI PUSH1 0x40 MLOAD PUSH32 0x8C379A000000000000000000000000000000000000000000000000000000000 DUP2 MSTORE PUSH1 0x4 ADD PUSH2 0x2F4 SWAP1 PUSH2 0xFDD JUMP JUMPDEST PUSH1 0x40 MLOAD DUP1 SWAP2 SUB SWAP1 REVERT JUMPDEST PUSH1 0x2 PUSH1 0x5 SLOAD PUSH2 0x30C SWAP2 SWAP1 PUSH2 0x105B JUMP JUMPDEST DUP2 PUSH1 0x4 ADD SLOAD GT PUSH2 0x351 JUMPI PUSH1 0x40 MLOAD PUSH32 0x8C379A000000000000000000000000000000000000000000000000000000000 DUP2 MSTORE PUSH1 0x4 ADD PUSH2 0x348 SWAP1 PUSH2 0x10D8 JUMP JUMPDEST PUSH1 0x40 MLOAD DUP1 SWAP2 SUB SWAP1 REVERT JUMPDEST PUSH1 0x1 DUP2 PUSH1 0x3 ADD PUSH1 0x0 PUSH2 0x100 EXP DUP2 SLOAD DUP2 PUSH1 0xFF MUL NOT AND SWAP1 DUP4 ISZERO ISZERO MUL OR SWAP1 SSTORE POP DUP1 PUSH1 0x1 ADD PUSH1 0x0 SWAP1 SLOAD SWAP1 PUSH2 0x100 EXP SWAP1 DIV PUSH20 0xFFFFFFFFFFFFFFFFFFFFFFFFFFFFFFFFFFFFFFFF AND PUSH20 0xFFFFFFFFFFFFFFFFFFFFFFFFFFFFFFFFFFFFFFFF AND PUSH2 0x8FC DUP3 PUSH1 0x2 ADD SLOAD SWAP1 DUP2 ISZERO MUL SWAP1 PUSH1 0x40 MLOAD PUSH1 0x0 PUSH1 0x40 MLOAD DUP1 DUP4 SUB DUP2 DUP6 DUP9 DUP9 CALL SWAP4 POP POP POP POP ISZERO DUP1 ISZERO PUSH2 0x3DC JUMPI RETURNDATASIZE PUSH1 0x0 DUP1 RETURNDATACOPY RETURNDATASIZE PUSH1 0x0 REVERT JUMPDEST POP POP POP JUMP JUMPDEST PUSH1 0x1 PUSH1 0x20 MSTORE DUP1 PUSH1 0x0 MSTORE PUSH1 0x40 PUSH1 0x0 KECCAK256 PUSH1 0x0 SWAP2 POP SLOAD SWAP1 PUSH2 0x100 EXP SWAP1 DIV PUSH1 0xFF AND DUP2 JUMP JUMPDEST PUSH1 0x0 DUP1 SLOAD SWAP1 PUSH2 0x100 EXP SWAP1 DIV PUSH20 0xFFFFFFFFFFFFFFFFFFFFFFFFFFFFFFFFFFFFFFFF AND PUSH20 0xFFFFFFFFFFFFFFFFFFFFFFFFFFFFFFFFFFFFFFFF AND CALLER PUSH20 0xFFFFFFFFFFFFFFFFFFFFFFFFFFFFFFFFFFFFFFFF AND EQ PUSH2 0x48F JUMPI PUSH1 0x40 MLOAD PUSH32 0x8C379A000000000000000000000000000000000000000000000000000000000 DUP2 MSTORE PUSH1 0x4 ADD PUSH2 0x486 SWAP1 PUSH2 0xF71 JUMP JUMPDEST PUSH1 0x40 MLOAD DUP1 SWAP2 SUB SWAP1 REVERT JUMPDEST PUSH1 0x0 PUSH1 0x3 PUSH1 0x0 PUSH1 0x4 SLOAD DUP2 MSTORE PUSH1 0x20 ADD SWAP1 DUP2 MSTORE PUSH1 0x20 ADD PUSH1 0x0 KECCAK256 SWAP1 POP DUP4 DUP2 PUSH1 0x0 ADD SWAP1 DUP1 MLOAD SWAP1 PUSH1 0x20 ADD SWAP1 PUSH2 0x4C0 SWAP3 SWAP2 SWAP1 PUSH2 0x999 JUMP JUMPDEST POP DUP3 DUP2 PUSH1 0x1 ADD PUSH1 0x0 PUSH2 0x100 EXP DUP2 SLOAD DUP2 PUSH20 0xFFFFFFFFFFFFFFFFFFFFFFFFFFFFFFFFFFFFFFFF MUL NOT AND SWAP1 DUP4 PUSH20 0xFFFFFFFFFFFFFFFFFFFFFFFFFFFFFFFFFFFFFFFF AND MUL OR SWAP1 SSTORE POP DUP2 DUP2 PUSH1 0x2 ADD DUP2 SWAP1 SSTORE POP PUSH1 0x0 DUP2 PUSH1 0x3 ADD PUSH1 0x0 PUSH2 0x100 EXP DUP2 SLOAD DUP2 PUSH1 0xFF MUL NOT AND SWAP1 DUP4 ISZERO ISZERO MUL OR SWAP1 SSTORE POP PUSH1 0x0 DUP2 PUSH1 0x4 ADD DUP2 SWAP1 SSTORE POP PUSH1 0x4 PUSH1 0x0 DUP2 SLOAD DUP1 SWAP3 SWAP2 SWAP1 PUSH2 0x547 SWAP1 PUSH2 0x10F8 JUMP JUMPDEST SWAP2 SWAP1 POP SSTORE POP POP POP POP POP JUMP JUMPDEST PUSH1 0x0 DUP1 PUSH1 0x0 DUP1 PUSH1 0x0 DUP1 PUSH1 0x0 SWAP1 SLOAD SWAP1 PUSH2 0x100 EXP SWAP1 DIV PUSH20 0xFFFFFFFFFFFFFFFFFFFFFFFFFFFFFFFFFFFFFFFF AND PUSH1 0x2 SLOAD PUSH1 0x4 SLOAD PUSH1 0x5 SLOAD SELFBALANCE SWAP5 POP SWAP5 POP SWAP5 POP SWAP5 POP SWAP5 POP SWAP1 SWAP2 SWAP3 SWAP4 SWAP5 JUMP JUMPDEST PUSH1 0x0 DUP1 SLOAD SWAP1 PUSH2 0x100 EXP SWAP1 DIV PUSH20 0xFFFFFFFFFFFFFFFFFFFFFFFFFFFFFFFFFFFFFFFF AND DUP2 JUMP JUMPDEST PUSH1 0x3 PUSH1 0x20 MSTORE DUP1 PUSH1 0x0 MSTORE PUSH1 0x40 PUSH1 0x0 KECCAK256 PUSH1 0x0 SWAP2 POP SWAP1 POP DUP1 PUSH1 0x0 ADD DUP1 SLOAD PUSH2 0x5DE SWAP1 PUSH2 0x1170 JUMP JUMPDEST DUP1 PUSH1 0x1F ADD PUSH1 0x20 DUP1 SWAP2 DIV MUL PUSH1 0x20 ADD PUSH1 0x40 MLOAD SWAP1 DUP2 ADD PUSH1 0x40 MSTORE DUP1 SWAP3 SWAP2 SWAP1 DUP2 DUP2 MSTORE PUSH1 0x20 ADD DUP3 DUP1 SLOAD PUSH2 0x60A SWAP1 PUSH2 0x1170 JUMP JUMPDEST DUP1 ISZERO PUSH2 0x657 JUMPI DUP1 PUSH1 0x1F LT PUSH2 0x62C JUMPI PUSH2 0x100 DUP1 DUP4 SLOAD DIV MUL DUP4 MSTORE SWAP2 PUSH1 0x20 ADD SWAP2 PUSH2 0x657 JUMP JUMPDEST DUP3 ADD SWAP2 SWAP1 PUSH1 0x0 MSTORE PUSH1 0x20 PUSH1 0x0 KECCAK256 SWAP1 JUMPDEST DUP2 SLOAD DUP2 MSTORE SWAP1 PUSH1 0x1 ADD SWAP1 PUSH1 0x20 ADD DUP1 DUP4 GT PUSH2 0x63A JUMPI DUP3 SWAP1 SUB PUSH1 0x1F AND DUP3 ADD SWAP2 JUMPDEST POP POP POP POP POP SWAP1 DUP1 PUSH1 0x1 ADD PUSH1 0x0 SWAP1 SLOAD SWAP1 PUSH2 0x100 EXP SWAP1 DIV PUSH20 0xFFFFFFFFFFFFFFFFFFFFFFFFFFFFFFFFFFFFFFFF AND SWAP1 DUP1 PUSH1 0x2 ADD SLOAD SWAP1 DUP1 PUSH1 0x3 ADD PUSH1 0x0 SWAP1 SLOAD SWAP1 PUSH2 0x100 EXP SWAP1 DIV PUSH1 0xFF AND SWAP1 DUP1 PUSH1 0x4 ADD SLOAD SWAP1 POP DUP6 JUMP JUMPDEST PUSH1 0x2 SLOAD DUP2 JUMP JUMPDEST PUSH1 0x2 SLOAD CALLVALUE LT ISZERO PUSH2 0x6F1 JUMPI PUSH1 0x40 MLOAD PUSH32 0x8C379A000000000000000000000000000000000000000000000000000000000 DUP2 MSTORE PUSH1 0x4 ADD PUSH2 0x6E8 SWAP1 PUSH2 0x1214 JUMP JUMPDEST PUSH1 0x40 MLOAD DUP1 SWAP2 SUB SWAP1 REVERT JUMPDEST PUSH1 0x1 PUSH1 0x0 CALLER PUSH20 0xFFFFFFFFFFFFFFFFFFFFFFFFFFFFFFFFFFFFFFFF AND PUSH20 0xFFFFFFFFFFFFFFFFFFFFFFFFFFFFFFFFFFFFFFFF AND DUP2 MSTORE PUSH1 0x20 ADD SWAP1 DUP2 MSTORE PUSH1 0x20 ADD PUSH1 0x0 KECCAK256 PUSH1 0x0 SWAP1 SLOAD SWAP1 PUSH2 0x100 EXP SWAP1 DIV PUSH1 0xFF AND ISZERO PUSH2 0x77E JUMPI PUSH1 0x40 MLOAD PUSH32 0x8C379A000000000000000000000000000000000000000000000000000000000 DUP2 MSTORE PUSH1 0x4 ADD PUSH2 0x775 SWAP1 PUSH2 0x12A6 JUMP JUMPDEST PUSH1 0x40 MLOAD DUP1 SWAP2 SUB SWAP1 REVERT JUMPDEST PUSH1 0x1 DUP1 PUSH1 0x0 CALLER PUSH20 0xFFFFFFFFFFFFFFFFFFFFFFFFFFFFFFFFFFFFFFFF AND PUSH20 0xFFFFFFFFFFFFFFFFFFFFFFFFFFFFFFFFFFFFFFFF AND DUP2 MSTORE PUSH1 0x20 ADD SWAP1 DUP2 MSTORE PUSH1 0x20 ADD PUSH1 0x0 KECCAK256 PUSH1 0x0 PUSH2 0x100 EXP DUP2 SLOAD DUP2 PUSH1 0xFF MUL NOT AND SWAP1 DUP4 ISZERO ISZERO MUL OR SWAP1 SSTORE POP PUSH1 0x5 PUSH1 0x0 DUP2 SLOAD DUP1 SWAP3 SWAP2 SWAP1 PUSH2 0x7E8 SWAP1 PUSH2 0x10F8 JUMP JUMPDEST SWAP2 SWAP1 POP SSTORE POP JUMP JUMPDEST PUSH1 0x0 PUSH1 0x3 PUSH1 0x0 DUP4 DUP2 MSTORE PUSH1 0x20 ADD SWAP1 DUP2 MSTORE PUSH1 0x20 ADD PUSH1 0x0 KECCAK256 SWAP1 POP PUSH1 0x1 PUSH1 0x0 CALLER PUSH20 0xFFFFFFFFFFFFFFFFFFFFFFFFFFFFFFFFFFFFFFFF AND PUSH20 0xFFFFFFFFFFFFFFFFFFFFFFFFFFFFFFFFFFFFFFFF AND DUP2 MSTORE PUSH1 0x20 ADD SWAP1 DUP2 MSTORE PUSH1 0x20 ADD PUSH1 0x0 KECCAK256 PUSH1 0x0 SWAP1 SLOAD SWAP1 PUSH2 0x100 EXP SWAP1 DIV PUSH1 0xFF AND PUSH2 0x892 JUMPI PUSH1 0x40 MLOAD PUSH32 0x8C379A000000000000000000000000000000000000000000000000000000000 DUP2 MSTORE PUSH1 0x4 ADD PUSH2 0x889 SWAP1 PUSH2 0x1338 JUMP JUMPDEST PUSH1 0x40 MLOAD DUP1 SWAP2 SUB SWAP1 REVERT JUMPDEST DUP1 PUSH1 0x5 ADD PUSH1 0x0 CALLER PUSH20 0xFFFFFFFFFFFFFFFFFFFFFFFFFFFFFFFFFFFFFFFF AND PUSH20 0xFFFFFFFFFFFFFFFFFFFFFFFFFFFFFFFFFFFFFFFF AND DUP2 MSTORE PUSH1 0x20 ADD SWAP1 DUP2 MSTORE PUSH1 0x20 ADD PUSH1 0x0 KECCAK256 PUSH1 0x0 SWAP1 SLOAD SWAP1 PUSH2 0x100 EXP SWAP1 DIV PUSH1 0xFF AND ISZERO PUSH2 0x921 JUMPI PUSH1 0x40 MLOAD PUSH32 0x8C379A000000000000000000000000000000000000000000000000000000000 DUP2 MSTORE PUSH1 0x4 ADD PUSH2 0x918 SWAP1 PUSH2 0x13A4 JUMP JUMPDEST PUSH1 0x40 MLOAD DUP1 SWAP2 SUB SWAP1 REVERT JUMPDEST DUP1 PUSH1 0x4 ADD PUSH1 0x0 DUP2 SLOAD DUP1 SWAP3 SWAP2 SWAP1 PUSH2 0x936 SWAP1 PUSH2 0x10F8 JUMP JUMPDEST SWAP2 SWAP1 POP SSTORE POP PUSH1 0x1 DUP2 PUSH1 0x5 ADD PUSH1 0x0 CALLER PUSH20 0xFFFFFFFFFFFFFFFFFFFFFFFFFFFFFFFFFFFFFFFF AND PUSH20 0xFFFFFFFFFFFFFFFFFFFFFFFFFFFFFFFFFFFFFFFF AND DUP2 MSTORE PUSH1 0x20 ADD SWAP1 DUP2 MSTORE PUSH1 0x20 ADD PUSH1 0x0 KECCAK256 PUSH1 0x0 PUSH2 0x100 EXP DUP2 SLOAD DUP2 PUSH1 0xFF MUL NOT AND SWAP1 DUP4 ISZERO ISZERO MUL OR SWAP1 SSTORE POP POP POP JUMP JUMPDEST DUP3 DUP1 SLOAD PUSH2 0x9A5 SWAP1 PUSH2 0x1170 JUMP JUMPDEST SWAP1 PUSH1 0x0 MSTORE PUSH1 0x20 PUSH1 0x0 KECCAK256 SWAP1 PUSH1 0x1F ADD PUSH1 0x20 SWAP1 DIV DUP2 ADD SWAP3 DUP3 PUSH2 0x9C7 JUMPI PUSH1 0x0 DUP6 SSTORE PUSH2 0xA0E JUMP JUMPDEST DUP3 PUSH1 0x1F LT PUSH2 0x9E0 JUMPI DUP1 MLOAD PUSH1 0xFF NOT AND DUP4 DUP1 ADD OR DUP6 SSTORE PUSH2 0xA0E JUMP JUMPDEST DUP3 DUP1 ADD PUSH1 0x1 ADD DUP6 SSTORE DUP3 ISZERO PUSH2 0xA0E JUMPI SWAP2 DUP3 ADD JUMPDEST DUP3 DUP2 GT ISZERO PUSH2 0xA0D JUMPI DUP3 MLOAD DUP3 SSTORE SWAP2 PUSH1 0x20 ADD SWAP2 SWAP1 PUSH1 0x1 ADD SWAP1 PUSH2 0x9F2 JUMP JUMPDEST JUMPDEST POP SWAP1 POP PUSH2 0xA1B SWAP2 SWAP1 PUSH2 0xA1F JUMP JUMPDEST POP SWAP1 JUMP JUMPDEST JUMPDEST DUP1 DUP3 GT ISZERO PUSH2 0xA38 JUMPI PUSH1 0x0 DUP2 PUSH1 0x0 SWAP1 SSTORE POP PUSH1 0x1 ADD PUSH2 0xA20 JUMP JUMPDEST POP SWAP1 JUMP JUMPDEST PUSH1 0x0 PUSH1 0x40 MLOAD SWAP1 POP SWAP1 JUMP JUMPDEST PUSH1 0x0 DUP1 REVERT JUMPDEST PUSH1 0x0 DUP1 REVERT JUMPDEST PUSH1 0x0 DUP2 SWAP1 POP SWAP2 SWAP1 POP JUMP JUMPDEST PUSH2 0xA63 DUP2 PUSH2 0xA50 JUMP JUMPDEST DUP2 EQ PUSH2 0xA6E JUMPI PUSH1 0x0 DUP1 REVERT JUMPDEST POP JUMP JUMPDEST PUSH1 0x0 DUP2 CALLDATALOAD SWAP1 POP PUSH2 0xA80 DUP2 PUSH2 0xA5A JUMP JUMPDEST SWAP3 SWAP2 POP POP JUMP JUMPDEST PUSH1 0x0 PUSH1 0x20 DUP3 DUP5 SUB SLT ISZERO PUSH2 0xA9C JUMPI PUSH2 0xA9B PUSH2 0xA46 JUMP JUMPDEST JUMPDEST PUSH1 0x0 PUSH2 0xAAA DUP5 DUP3 DUP6 ADD PUSH2 0xA71 JUMP JUMPDEST SWAP2 POP POP SWAP3 SWAP2 POP POP JUMP JUMPDEST PUSH1 0x0 PUSH20 0xFFFFFFFFFFFFFFFFFFFFFFFFFFFFFFFFFFFFFFFF DUP3 AND SWAP1 POP SWAP2 SWAP1 POP JUMP JUMPDEST PUSH1 0x0 PUSH2 0xADE DUP3 PUSH2 0xAB3 JUMP JUMPDEST SWAP1 POP SWAP2 SWAP1 POP JUMP JUMPDEST PUSH2 0xAEE DUP2 PUSH2 0xAD3 JUMP JUMPDEST DUP2 EQ PUSH2 0xAF9 JUMPI PUSH1 0x0 DUP1 REVERT JUMPDEST POP JUMP JUMPDEST PUSH1 0x0 DUP2 CALLDATALOAD SWAP1 POP PUSH2 0xB0B DUP2 PUSH2 0xAE5 JUMP JUMPDEST SWAP3 SWAP2 POP POP JUMP JUMPDEST PUSH1 0x0 PUSH1 0x20 DUP3 DUP5 SUB SLT ISZERO PUSH2 0xB27 JUMPI PUSH2 0xB26 PUSH2 0xA46 JUMP JUMPDEST JUMPDEST PUSH1 0x0 PUSH2 0xB35 DUP5 DUP3 DUP6 ADD PUSH2 0xAFC JUMP JUMPDEST SWAP2 POP POP SWAP3 SWAP2 POP POP JUMP JUMPDEST PUSH1 0x0 DUP2 ISZERO ISZERO SWAP1 POP SWAP2 SWAP1 POP JUMP JUMPDEST PUSH2 0xB53 DUP2 PUSH2 0xB3E JUMP JUMPDEST DUP3 MSTORE POP POP JUMP JUMPDEST PUSH1 0x0 PUSH1 0x20 DUP3 ADD SWAP1 POP PUSH2 0xB6E PUSH1 0x0 DUP4 ADD DUP5 PUSH2 0xB4A JUMP JUMPDEST SWAP3 SWAP2 POP POP JUMP JUMPDEST PUSH1 0x0 DUP1 REVERT JUMPDEST PUSH1 0x0 DUP1 REVERT JUMPDEST PUSH1 0x0 PUSH1 0x1F NOT PUSH1 0x1F DUP4 ADD AND SWAP1 POP SWAP2 SWAP1 POP JUMP JUMPDEST PUSH32 0x4E487B7100000000000000000000000000000000000000000000000000000000 PUSH1 0x0 MSTORE PUSH1 0x41 PUSH1 0x4 MSTORE PUSH1 0x24 PUSH1 0x0 REVERT JUMPDEST PUSH2 0xBC7 DUP3 PUSH2 0xB7E JUMP JUMPDEST DUP2 ADD DUP2 DUP2 LT PUSH8 0xFFFFFFFFFFFFFFFF DUP3 GT OR ISZERO PUSH2 0xBE6 JUMPI PUSH2 0xBE5 PUSH2 0xB8F JUMP JUMPDEST JUMPDEST DUP1 PUSH1 0x40 MSTORE POP POP POP JUMP JUMPDEST PUSH1 0x0 PUSH2 0xBF9 PUSH2 0xA3C JUMP JUMPDEST SWAP1 POP PUSH2 0xC05 DUP3 DUP3 PUSH2 0xBBE JUMP JUMPDEST SWAP2 SWAP1 POP JUMP JUMPDEST PUSH1 0x0 PUSH8 0xFFFFFFFFFFFFFFFF DUP3 GT ISZERO PUSH2 0xC25 JUMPI PUSH2 0xC24 PUSH2 0xB8F JUMP JUMPDEST JUMPDEST PUSH2 0xC2E DUP3 PUSH2 0xB7E JUMP JUMPDEST SWAP1 POP PUSH1 0x20 DUP2 ADD SWAP1 POP SWAP2 SWAP1 POP JUMP JUMPDEST DUP3 DUP2 DUP4 CALLDATACOPY PUSH1 0x0 DUP4 DUP4 ADD MSTORE POP POP POP JUMP JUMPDEST PUSH1 0x0 PUSH2 0xC5D PUSH2 0xC58 DUP5 PUSH2 0xC0A JUMP JUMPDEST PUSH2 0xBEF JUMP JUMPDEST SWAP1 POP DUP3 DUP2 MSTORE PUSH1 0x20 DUP2 ADD DUP5 DUP5 DUP5 ADD GT ISZERO PUSH2 0xC79 JUMPI PUSH2 0xC78 PUSH2 0xB79 JUMP JUMPDEST JUMPDEST PUSH2 0xC84 DUP5 DUP3 DUP6 PUSH2 0xC3B JUMP JUMPDEST POP SWAP4 SWAP3 POP POP POP JUMP JUMPDEST PUSH1 0x0 DUP3 PUSH1 0x1F DUP4 ADD SLT PUSH2 0xCA1 JUMPI PUSH2 0xCA0 PUSH2 0xB74 JUMP JUMPDEST JUMPDEST DUP2 CALLDATALOAD PUSH2 0xCB1 DUP5 DUP3 PUSH1 0x20 DUP7 ADD PUSH2 0xC4A JUMP JUMPDEST SWAP2 POP POP SWAP3 SWAP2 POP POP JUMP JUMPDEST PUSH1 0x0 PUSH2 0xCC5 DUP3 PUSH2 0xAB3 JUMP JUMPDEST SWAP1 POP SWAP2 SWAP1 POP JUMP JUMPDEST PUSH2 0xCD5 DUP2 PUSH2 0xCBA JUMP JUMPDEST DUP2 EQ PUSH2 0xCE0 JUMPI PUSH1 0x0 DUP1 REVERT JUMPDEST POP JUMP JUMPDEST PUSH1 0x0 DUP2 CALLDATALOAD SWAP1 POP PUSH2 0xCF2 DUP2 PUSH2 0xCCC JUMP JUMPDEST SWAP3 SWAP2 POP POP JUMP JUMPDEST PUSH1 0x0 DUP1 PUSH1 0x0 PUSH1 0x60 DUP5 DUP7 SUB SLT ISZERO PUSH2 0xD11 JUMPI PUSH2 0xD10 PUSH2 0xA46 JUMP JUMPDEST JUMPDEST PUSH1 0x0 DUP5 ADD CALLDATALOAD PUSH8 0xFFFFFFFFFFFFFFFF DUP2 GT ISZERO PUSH2 0xD2F JUMPI PUSH2 0xD2E PUSH2 0xA4B JUMP JUMPDEST JUMPDEST PUSH2 0xD3B DUP7 DUP3 DUP8 ADD PUSH2 0xC8C JUMP JUMPDEST SWAP4 POP POP PUSH1 0x20 PUSH2 0xD4C DUP7 DUP3 DUP8 ADD PUSH2 0xCE3 JUMP JUMPDEST SWAP3 POP POP PUSH1 0x40 PUSH2 0xD5D DUP7 DUP3 DUP8 ADD PUSH2 0xA71 JUMP JUMPDEST SWAP2 POP POP SWAP3 POP SWAP3 POP SWAP3 JUMP JUMPDEST PUSH2 0xD70 DUP2 PUSH2 0xAD3 JUMP JUMPDEST DUP3 MSTORE POP POP JUMP JUMPDEST PUSH2 0xD7F DUP2 PUSH2 0xA50 JUMP JUMPDEST DUP3 MSTORE POP POP JUMP JUMPDEST PUSH1 0x0 PUSH1 0xA0 DUP3 ADD SWAP1 POP PUSH2 0xD9A PUSH1 0x0 DUP4 ADD DUP9 PUSH2 0xD67 JUMP JUMPDEST PUSH2 0xDA7 PUSH1 0x20 DUP4 ADD DUP8 PUSH2 0xD76 JUMP JUMPDEST PUSH2 0xDB4 PUSH1 0x40 DUP4 ADD DUP7 PUSH2 0xD76 JUMP JUMPDEST PUSH2 0xDC1 PUSH1 0x60 DUP4 ADD DUP6 PUSH2 0xD76 JUMP JUMPDEST PUSH2 0xDCE PUSH1 0x80 DUP4 ADD DUP5 PUSH2 0xD76 JUMP JUMPDEST SWAP7 SWAP6 POP POP POP POP POP POP JUMP JUMPDEST PUSH1 0x0 PUSH1 0x20 DUP3 ADD SWAP1 POP PUSH2 0xDED PUSH1 0x0 DUP4 ADD DUP5 PUSH2 0xD67 JUMP JUMPDEST SWAP3 SWAP2 POP POP JUMP JUMPDEST PUSH1 0x0 DUP2 MLOAD SWAP1 POP SWAP2 SWAP1 POP JUMP JUMPDEST PUSH1 0x0 DUP3 DUP3 MSTORE PUSH1 0x20 DUP3 ADD SWAP1 POP SWAP3 SWAP2 POP POP JUMP JUMPDEST PUSH1 0x0 JUMPDEST DUP4 DUP2 LT ISZERO PUSH2 0xE2D JUMPI DUP1 DUP3 ADD MLOAD DUP2 DUP5 ADD MSTORE PUSH1 0x20 DUP2 ADD SWAP1 POP PUSH2 0xE12 JUMP JUMPDEST DUP4 DUP2 GT ISZERO PUSH2 0xE3C JUMPI PUSH1 0x0 DUP5 DUP5 ADD MSTORE JUMPDEST POP POP POP POP JUMP JUMPDEST PUSH1 0x0 PUSH2 0xE4D DUP3 PUSH2 0xDF3 JUMP JUMPDEST PUSH2 0xE57 DUP2 DUP6 PUSH2 0xDFE JUMP JUMPDEST SWAP4 POP PUSH2 0xE67 DUP2 DUP6 PUSH1 0x20 DUP7 ADD PUSH2 0xE0F JUMP JUMPDEST PUSH2 0xE70 DUP2 PUSH2 0xB7E JUMP JUMPDEST DUP5 ADD SWAP2 POP POP SWAP3 SWAP2 POP POP JUMP JUMPDEST PUSH2 0xE84 DUP2 PUSH2 0xCBA JUMP JUMPDEST DUP3 MSTORE POP POP JUMP JUMPDEST PUSH1 0x0 PUSH1 0xA0 DUP3 ADD SWAP1 POP DUP2 DUP2 SUB PUSH1 0x0 DUP4 ADD MSTORE PUSH2 0xEA4 DUP2 DUP9 PUSH2 0xE42 JUMP JUMPDEST SWAP1 POP PUSH2 0xEB3 PUSH1 0x20 DUP4 ADD DUP8 PUSH2 0xE7B JUMP JUMPDEST PUSH2 0xEC0 PUSH1 0x40 DUP4 ADD DUP7 PUSH2 0xD76 JUMP JUMPDEST PUSH2 0xECD PUSH1 0x60 DUP4 ADD DUP6 PUSH2 0xB4A JUMP JUMPDEST PUSH2 0xEDA PUSH1 0x80 DUP4 ADD DUP5 PUSH2 0xD76 JUMP JUMPDEST SWAP7 SWAP6 POP POP POP POP POP POP JUMP JUMPDEST PUSH1 0x0 PUSH1 0x20 DUP3 ADD SWAP1 POP PUSH2 0xEF9 PUSH1 0x0 DUP4 ADD DUP5 PUSH2 0xD76 JUMP JUMPDEST SWAP3 SWAP2 POP POP JUMP JUMPDEST PUSH32 0x4F6E6C79206D616E616765722063616E2075736520746869732066756E637469 PUSH1 0x0 DUP3 ADD MSTORE PUSH32 0x6F6E000000000000000000000000000000000000000000000000000000000000 PUSH1 0x20 DUP3 ADD MSTORE POP JUMP JUMPDEST PUSH1 0x0 PUSH2 0xF5B PUSH1 0x22 DUP4 PUSH2 0xDFE JUMP JUMPDEST SWAP2 POP PUSH2 0xF66 DUP3 PUSH2 0xEFF JUMP JUMPDEST PUSH1 0x40 DUP3 ADD SWAP1 POP SWAP2 SWAP1 POP JUMP JUMPDEST PUSH1 0x0 PUSH1 0x20 DUP3 ADD SWAP1 POP DUP2 DUP2 SUB PUSH1 0x0 DUP4 ADD MSTORE PUSH2 0xF8A DUP2 PUSH2 0xF4E JUMP JUMPDEST SWAP1 POP SWAP2 SWAP1 POP JUMP JUMPDEST PUSH32 0x7265717565737420616C72656164792066696E616C697A656400000000000000 PUSH1 0x0 DUP3 ADD MSTORE POP JUMP JUMPDEST PUSH1 0x0 PUSH2 0xFC7 PUSH1 0x19 DUP4 PUSH2 0xDFE JUMP JUMPDEST SWAP2 POP PUSH2 0xFD2 DUP3 PUSH2 0xF91 JUMP JUMPDEST PUSH1 0x20 DUP3 ADD SWAP1 POP SWAP2 SWAP1 POP JUMP JUMPDEST PUSH1 0x0 PUSH1 0x20 DUP3 ADD SWAP1 POP DUP2 DUP2 SUB PUSH1 0x0 DUP4 ADD MSTORE PUSH2 0xFF6 DUP2 PUSH2 0xFBA JUMP JUMPDEST SWAP1 POP SWAP2 SWAP1 POP JUMP JUMPDEST PUSH32 0x4E487B7100000000000000000000000000000000000000000000000000000000 PUSH1 0x0 MSTORE PUSH1 0x12 PUSH1 0x4 MSTORE PUSH1 0x24 PUSH1 0x0 REVERT JUMPDEST PUSH32 0x4E487B7100000000000000000000000000000000000000000000000000000000 PUSH1 0x0 MSTORE PUSH1 0x11 PUSH1 0x4 MSTORE PUSH1 0x24 PUSH1 0x0 REVERT JUMPDEST PUSH1 0x0 PUSH2 0x1066 DUP3 PUSH2 0xA50 JUMP JUMPDEST SWAP2 POP PUSH2 0x1071 DUP4 PUSH2 0xA50 JUMP JUMPDEST SWAP3 POP DUP3 PUSH2 0x1081 JUMPI PUSH2 0x1080 PUSH2 0xFFD JUMP JUMPDEST JUMPDEST DUP3 DUP3 DIV SWAP1 POP SWAP3 SWAP2 POP POP JUMP JUMPDEST PUSH32 0x4E6F7420656E6F75676820706F737469766520766F7465730000000000000000 PUSH1 0x0 DUP3 ADD MSTORE POP JUMP JUMPDEST PUSH1 0x0 PUSH2 0x10C2 PUSH1 0x18 DUP4 PUSH2 0xDFE JUMP JUMPDEST SWAP2 POP PUSH2 0x10CD DUP3 PUSH2 0x108C JUMP JUMPDEST PUSH1 0x20 DUP3 ADD SWAP1 POP SWAP2 SWAP1 POP JUMP JUMPDEST PUSH1 0x0 PUSH1 0x20 DUP3 ADD SWAP1 POP DUP2 DUP2 SUB PUSH1 0x0 DUP4 ADD MSTORE PUSH2 0x10F1 DUP2 PUSH2 0x10B5 JUMP JUMPDEST SWAP1 POP SWAP2 SWAP1 POP JUMP JUMPDEST PUSH1 0x0 PUSH2 0x1103 DUP3 PUSH2 0xA50 JUMP JUMPDEST SWAP2 POP PUSH32 0xFFFFFFFFFFFFFFFFFFFFFFFFFFFFFFFFFFFFFFFFFFFFFFFFFFFFFFFFFFFFFFFF DUP3 EQ ISZERO PUSH2 0x1136 JUMPI PUSH2 0x1135 PUSH2 0x102C JUMP JUMPDEST JUMPDEST PUSH1 0x1 DUP3 ADD SWAP1 POP SWAP2 SWAP1 POP JUMP JUMPDEST PUSH32 0x4E487B7100000000000000000000000000000000000000000000000000000000 PUSH1 0x0 MSTORE PUSH1 0x22 PUSH1 0x4 MSTORE PUSH1 0x24 PUSH1 0x0 REVERT JUMPDEST PUSH1 0x0 PUSH1 0x2 DUP3 DIV SWAP1 POP PUSH1 0x1 DUP3 AND DUP1 PUSH2 0x1188 JUMPI PUSH1 0x7F DUP3 AND SWAP2 POP JUMPDEST PUSH1 0x20 DUP3 LT DUP2 EQ ISZERO PUSH2 0x119C JUMPI PUSH2 0x119B PUSH2 0x1141 JUMP JUMPDEST JUMPDEST POP SWAP2 SWAP1 POP JUMP JUMPDEST PUSH32 0x636F6E747269627574696F6E2073686F756C6420626520677265617465722074 PUSH1 0x0 DUP3 ADD MSTORE PUSH32 0x68616E206D696E696D756D20636F6E747269627574696F6E0000000000000000 PUSH1 0x20 DUP3 ADD MSTORE POP JUMP JUMPDEST PUSH1 0x0 PUSH2 0x11FE PUSH1 0x38 DUP4 PUSH2 0xDFE JUMP JUMPDEST SWAP2 POP PUSH2 0x1209 DUP3 PUSH2 0x11A2 JUMP JUMPDEST PUSH1 0x40 DUP3 ADD SWAP1 POP SWAP2 SWAP1 POP JUMP JUMPDEST PUSH1 0x0 PUSH1 0x20 DUP3 ADD SWAP1 POP DUP2 DUP2 SUB PUSH1 0x0 DUP4 ADD MSTORE PUSH2 0x122D DUP2 PUSH2 0x11F1 JUMP JUMPDEST SWAP1 POP SWAP2 SWAP1 POP JUMP JUMPDEST PUSH32 0x636F6E747269627574696F6E2063616E206F6E6C79206265206D616465206F6E PUSH1 0x0 DUP3 ADD MSTORE PUSH32 0x652074696D650000000000000000000000000000000000000000000000000000 PUSH1 0x20 DUP3 ADD MSTORE POP JUMP JUMPDEST PUSH1 0x0 PUSH2 0x1290 PUSH1 0x26 DUP4 PUSH2 0xDFE JUMP JUMPDEST SWAP2 POP PUSH2 0x129B DUP3 PUSH2 0x1234 JUMP JUMPDEST PUSH1 0x40 DUP3 ADD SWAP1 POP SWAP2 SWAP1 POP JUMP JUMPDEST PUSH1 0x0 PUSH1 0x20 DUP3 ADD SWAP1 POP DUP2 DUP2 SUB PUSH1 0x0 DUP4 ADD MSTORE PUSH2 0x12BF DUP2 PUSH2 0x1283 JUMP JUMPDEST SWAP1 POP SWAP2 SWAP1 POP JUMP JUMPDEST PUSH32 0x4F6E6C7920636F6E7472696275746572732063616E2075736520746869732066 PUSH1 0x0 DUP3 ADD MSTORE PUSH32 0x756E6374696F6E00000000000000000000000000000000000000000000000000 PUSH1 0x20 DUP3 ADD MSTORE POP JUMP JUMPDEST PUSH1 0x0 PUSH2 0x1322 PUSH1 0x27 DUP4 PUSH2 0xDFE JUMP JUMPDEST SWAP2 POP PUSH2 0x132D DUP3 PUSH2 0x12C6 JUMP JUMPDEST PUSH1 0x40 DUP3 ADD SWAP1 POP SWAP2 SWAP1 POP JUMP JUMPDEST PUSH1 0x0 PUSH1 0x20 DUP3 ADD SWAP1 POP DUP2 DUP2 SUB PUSH1 0x0 DUP4 ADD MSTORE PUSH2 0x1351 DUP2 PUSH2 0x1315 JUMP JUMPDEST SWAP1 POP SWAP2 SWAP1 POP JUMP JUMPDEST PUSH32 0x596F75206861766520616C726561647920766F74656400000000000000000000 PUSH1 0x0 DUP3 ADD MSTORE POP JUMP JUMPDEST PUSH1 0x0 PUSH2 0x138E PUSH1 0x16 DUP4 PUSH2 0xDFE JUMP JUMPDEST SWAP2 POP PUSH2 0x1399 DUP3 PUSH2 0x1358 JUMP JUMPDEST PUSH1 0x20 DUP3 ADD SWAP1 POP SWAP2 SWAP1 POP JUMP JUMPDEST PUSH1 0x0 PUSH1 0x20 DUP3 ADD SWAP1 POP DUP2 DUP2 SUB PUSH1 0x0 DUP4 ADD MSTORE PUSH2 0x13BD DUP2 PUSH2 0x1381 JUMP JUMPDEST SWAP1 POP SWAP2 SWAP1 POP JUMP INVALID LOG2 PUSH5 0x6970667358 0x22 SLT KECCAK256 0xC3 ADDMOD CODECOPY 0xC LOG0 SDIV SWAP5 DUP5 0xD3 SHL PUSH10 0xC35383E20E8AA766747A 0xCF CHAINID RETURNDATACOPY 0x4D 0xE5 0xDA JUMP BALANCE 0xCD MUL CODECOPY PUSH5 0x736F6C6343 STOP ADDMOD EXP STOP CALLER LOG2 PUSH5 0x6970667358 0x22 SLT KECCAK256 0xE0 0xDF 0xE9 MSIZE PUSH22 0x722FC200FDE1337FF5DA5F4818B7BE39466AECBDE58B 0xC9 PUSH17 0xD83E6964736F6C634300080A0033000000 "},"gasEstimates":{"creation":{"codeDepositCost":"1290400","executionCost":"1342","totalCost":"1291742"},"external":{"createCampaign(uint256)":"infinite","getCampaign()":"infinite"}},"methodIdentifiers":{"createCampaign(uint256)":"a3303a75","getCampaign()":"236b8e3a"}},"storageLayout":{"storage":[{"astId":4,"contract":"Campaign.sol:CampaignFactory","label":"campaignAddresses","offset":0,"slot":"0","type":"t_array(t_address)dyn_storage"}],"types":{"t_address":{"encoding":"inplace","label":"address","numberOfBytes":"20"},"t_array(t_address)dyn_storage":{"base":"t_address","encoding":"dynamic_array","label":"address[]","numberOfBytes":"32"}}},"userdoc":{"kind":"user","methods":{},"version":1}}